{
  "contractName": "CryptoFPLCards",
  "abi": [
    {
      "inputs": [
        {
          "internalType": "uint32",
          "name": "_season",
          "type": "uint32"
        }
      ],
      "payable": false,
      "stateMutability": "nonpayable",
      "type": "constructor"
    },
    {
      "anonymous": false,
      "inputs": [
        {
          "indexed": true,
          "internalType": "address",
          "name": "_owner",
          "type": "address"
        },
        {
          "indexed": true,
          "internalType": "address",
          "name": "_operator",
          "type": "address"
        },
        {
          "indexed": false,
          "internalType": "bool",
          "name": "_approved",
          "type": "bool"
        }
      ],
      "name": "ApprovalForAll",
      "type": "event"
    },
    {
      "anonymous": false,
      "inputs": [
        {
          "indexed": false,
          "internalType": "uint256[]",
          "name": "ids",
          "type": "uint256[]"
        },
        {
          "indexed": false,
          "internalType": "address",
          "name": "owner",
          "type": "address"
        }
      ],
      "name": "LogTeamMinted",
      "type": "event"
    },
    {
      "anonymous": false,
      "inputs": [
        {
          "indexed": true,
          "internalType": "address",
          "name": "previousOwner",
          "type": "address"
        },
        {
          "indexed": true,
          "internalType": "address",
          "name": "newOwner",
          "type": "address"
        }
      ],
      "name": "OwnershipTransferred",
      "type": "event"
    },
    {
      "anonymous": false,
      "inputs": [
        {
          "indexed": true,
          "internalType": "address",
          "name": "_operator",
          "type": "address"
        },
        {
          "indexed": true,
          "internalType": "address",
          "name": "_from",
          "type": "address"
        },
        {
          "indexed": true,
          "internalType": "address",
          "name": "_to",
          "type": "address"
        },
        {
          "indexed": false,
          "internalType": "uint256[]",
          "name": "_ids",
          "type": "uint256[]"
        },
        {
          "indexed": false,
          "internalType": "uint256[]",
          "name": "_amounts",
          "type": "uint256[]"
        }
      ],
      "name": "TransferBatch",
      "type": "event"
    },
    {
      "anonymous": false,
      "inputs": [
        {
          "indexed": true,
          "internalType": "address",
          "name": "_operator",
          "type": "address"
        },
        {
          "indexed": true,
          "internalType": "address",
          "name": "_from",
          "type": "address"
        },
        {
          "indexed": true,
          "internalType": "address",
          "name": "_to",
          "type": "address"
        },
        {
          "indexed": false,
          "internalType": "uint256",
          "name": "_id",
          "type": "uint256"
        },
        {
          "indexed": false,
          "internalType": "uint256",
          "name": "_amount",
          "type": "uint256"
        }
      ],
      "name": "TransferSingle",
      "type": "event"
    },
    {
      "anonymous": false,
      "inputs": [
        {
          "indexed": false,
          "internalType": "string",
          "name": "_uri",
          "type": "string"
        },
        {
          "indexed": true,
          "internalType": "uint256",
          "name": "_id",
          "type": "uint256"
        }
      ],
      "name": "URI",
      "type": "event"
    },
    {
      "payable": true,
      "stateMutability": "payable",
      "type": "fallback"
    },
    {
      "constant": true,
      "inputs": [
        {
          "internalType": "address",
          "name": "_owner",
          "type": "address"
        },
        {
          "internalType": "uint256",
          "name": "_id",
          "type": "uint256"
        }
      ],
      "name": "balanceOf",
      "outputs": [
        {
          "internalType": "uint256",
          "name": "",
          "type": "uint256"
        }
      ],
      "payable": false,
      "stateMutability": "view",
      "type": "function"
    },
    {
      "constant": true,
      "inputs": [
        {
          "internalType": "address[]",
          "name": "_owners",
          "type": "address[]"
        },
        {
          "internalType": "uint256[]",
          "name": "_ids",
          "type": "uint256[]"
        }
      ],
      "name": "balanceOfBatch",
      "outputs": [
        {
          "internalType": "uint256[]",
          "name": "",
          "type": "uint256[]"
        }
      ],
      "payable": false,
      "stateMutability": "view",
      "type": "function"
    },
    {
      "constant": true,
      "inputs": [
        {
          "internalType": "address",
          "name": "_owner",
          "type": "address"
        },
        {
          "internalType": "address",
          "name": "_operator",
          "type": "address"
        }
      ],
      "name": "isApprovedForAll",
      "outputs": [
        {
          "internalType": "bool",
          "name": "isOperator",
          "type": "bool"
        }
      ],
      "payable": false,
      "stateMutability": "view",
      "type": "function"
    },
    {
      "constant": true,
      "inputs": [],
      "name": "isOwner",
      "outputs": [
        {
          "internalType": "bool",
          "name": "",
          "type": "bool"
        }
      ],
      "payable": false,
      "stateMutability": "view",
      "type": "function"
    },
    {
      "constant": true,
      "inputs": [
        {
          "internalType": "address",
          "name": "owner",
          "type": "address"
        }
      ],
      "name": "ownedTokens",
      "outputs": [
        {
          "internalType": "uint256[]",
          "name": "",
          "type": "uint256[]"
        }
      ],
      "payable": false,
      "stateMutability": "view",
      "type": "function"
    },
    {
      "constant": true,
      "inputs": [],
      "name": "owner",
      "outputs": [
        {
          "internalType": "address",
          "name": "",
          "type": "address"
        }
      ],
      "payable": false,
      "stateMutability": "view",
      "type": "function"
    },
    {
      "constant": true,
      "inputs": [
        {
          "internalType": "uint256",
          "name": "",
          "type": "uint256"
        }
      ],
      "name": "positions",
      "outputs": [
        {
          "internalType": "enum CryptoFPLCards.Position",
          "name": "",
          "type": "uint8"
        }
      ],
      "payable": false,
      "stateMutability": "view",
      "type": "function"
    },
    {
      "constant": true,
      "inputs": [
        {
          "internalType": "uint256",
          "name": "",
          "type": "uint256"
        }
      ],
      "name": "ratings",
      "outputs": [
        {
          "internalType": "enum CryptoFPLCards.Rating",
          "name": "",
          "type": "uint8"
        }
      ],
      "payable": false,
      "stateMutability": "view",
      "type": "function"
    },
    {
      "constant": false,
      "inputs": [],
      "name": "renounceOwnership",
      "outputs": [],
      "payable": false,
      "stateMutability": "nonpayable",
      "type": "function"
    },
    {
      "constant": false,
      "inputs": [
        {
          "internalType": "address",
          "name": "_from",
          "type": "address"
        },
        {
          "internalType": "address",
          "name": "_to",
          "type": "address"
        },
        {
          "internalType": "uint256[]",
          "name": "_ids",
          "type": "uint256[]"
        },
        {
          "internalType": "uint256[]",
          "name": "_amounts",
          "type": "uint256[]"
        },
        {
          "internalType": "bytes",
          "name": "_data",
          "type": "bytes"
        }
      ],
      "name": "safeBatchTransferFrom",
      "outputs": [],
      "payable": false,
      "stateMutability": "nonpayable",
      "type": "function"
    },
    {
      "constant": false,
      "inputs": [
        {
          "internalType": "address",
          "name": "_from",
          "type": "address"
        },
        {
          "internalType": "address",
          "name": "_to",
          "type": "address"
        },
        {
          "internalType": "uint256",
          "name": "_id",
          "type": "uint256"
        },
        {
          "internalType": "uint256",
          "name": "_amount",
          "type": "uint256"
        },
        {
          "internalType": "bytes",
          "name": "_data",
          "type": "bytes"
        }
      ],
      "name": "safeTransferFrom",
      "outputs": [],
      "payable": false,
      "stateMutability": "nonpayable",
      "type": "function"
    },
    {
      "constant": true,
      "inputs": [],
      "name": "season",
      "outputs": [
        {
          "internalType": "uint32",
          "name": "",
          "type": "uint32"
        }
      ],
      "payable": false,
      "stateMutability": "view",
      "type": "function"
    },
    {
      "constant": false,
      "inputs": [
        {
          "internalType": "address",
          "name": "_operator",
          "type": "address"
        },
        {
          "internalType": "bool",
          "name": "_approved",
          "type": "bool"
        }
      ],
      "name": "setApprovalForAll",
      "outputs": [],
      "payable": false,
      "stateMutability": "nonpayable",
      "type": "function"
    },
    {
      "constant": true,
      "inputs": [
        {
          "internalType": "bytes4",
          "name": "_interfaceID",
          "type": "bytes4"
        }
      ],
      "name": "supportsInterface",
      "outputs": [
        {
          "internalType": "bool",
          "name": "",
          "type": "bool"
        }
      ],
      "payable": false,
      "stateMutability": "view",
      "type": "function"
    },
    {
      "constant": false,
      "inputs": [
        {
          "internalType": "address",
          "name": "newOwner",
          "type": "address"
        }
      ],
      "name": "transferOwnership",
      "outputs": [],
      "payable": false,
      "stateMutability": "nonpayable",
      "type": "function"
    },
    {
      "constant": true,
      "inputs": [
        {
          "internalType": "uint256",
          "name": "_id",
          "type": "uint256"
        }
      ],
      "name": "uri",
      "outputs": [
        {
          "internalType": "string",
          "name": "",
          "type": "string"
        }
      ],
      "payable": false,
      "stateMutability": "view",
      "type": "function"
    },
    {
      "constant": false,
      "inputs": [],
      "name": "withdrawFunds",
      "outputs": [],
      "payable": false,
      "stateMutability": "nonpayable",
      "type": "function"
    },
    {
      "constant": false,
      "inputs": [],
      "name": "withdrawRefund",
      "outputs": [],
      "payable": false,
      "stateMutability": "nonpayable",
      "type": "function"
    },
    {
      "constant": true,
      "inputs": [
        {
          "internalType": "uint256",
          "name": "tokenId",
          "type": "uint256"
        }
      ],
      "name": "positionOf",
      "outputs": [
        {
          "internalType": "enum CryptoFPLCards.Position",
          "name": "",
          "type": "uint8"
        }
      ],
      "payable": false,
      "stateMutability": "view",
      "type": "function"
    },
    {
      "constant": true,
      "inputs": [],
      "name": "name",
      "outputs": [
        {
          "internalType": "string",
          "name": "",
          "type": "string"
        }
      ],
      "payable": false,
      "stateMutability": "pure",
      "type": "function"
    },
    {
      "constant": true,
      "inputs": [],
      "name": "symbol",
      "outputs": [
        {
          "internalType": "string",
          "name": "",
          "type": "string"
        }
      ],
      "payable": false,
      "stateMutability": "pure",
      "type": "function"
    },
    {
      "constant": true,
      "inputs": [],
      "name": "viewCardPackPrice",
      "outputs": [
        {
          "internalType": "uint256",
          "name": "price",
          "type": "uint256"
        }
      ],
      "payable": false,
      "stateMutability": "view",
      "type": "function"
    },
    {
      "constant": false,
      "inputs": [
        {
          "internalType": "address",
          "name": "_owner",
          "type": "address"
        },
        {
          "internalType": "uint256[]",
          "name": "ids",
          "type": "uint256[]"
        },
        {
          "internalType": "uint256[]",
          "name": "playerPositions",
          "type": "uint256[]"
        },
        {
          "internalType": "uint256[]",
          "name": "amounts",
          "type": "uint256[]"
        }
      ],
      "name": "mintTeam",
      "outputs": [],
      "payable": true,
      "stateMutability": "payable",
      "type": "function"
    }
  ],
  "bytecode": "0x608060405267016345785d8a0000600755600a6008553480156200002257600080fd5b50604051620037c1380380620037c1833981810160405260208110156200004857600080fd5b8101908080519060200190929190505050336000806101000a81548173ffffffffffffffffffffffffffffffffffffffff021916908373ffffffffffffffffffffffffffffffffffffffff1602179055506000809054906101000a900473ffffffffffffffffffffffffffffffffffffffff1673ffffffffffffffffffffffffffffffffffffffff16600073ffffffffffffffffffffffffffffffffffffffff167f8be0079c531659141344cd1fd0a4f28419497f9722a3daafe3b4186f6b6457e060405160405180910390a36200013f6040518060600160405280602681526020016200379b602691396200016760201b60201c565b80600660006101000a81548163ffffffff021916908363ffffffff1602179055505062000232565b80600390805190602001906200017f92919062000183565b5050565b828054600181600116156101000203166002900490600052602060002090601f016020900481019282601f10620001c657805160ff1916838001178555620001f7565b82800160010185558215620001f7579182015b82811115620001f6578251825591602001919060010190620001d9565b5b5090506200020691906200020a565b5090565b6200022f91905b808211156200022b57600081600090555060010162000211565b5090565b90565b61355980620002426000396000f3fe60806040526004361061013f5760003560e01c8063715018a6116100b6578063b12ab40f1161006f578063b12ab40f14610b95578063c50b0fb014610c3b578063e1b78c5b14610c72578063e985e9c514610c9d578063f242432a14610d26578063f2fde38b14610e425761013f565b8063715018a6146109ae5780638da5cb5b146109c55780638f32d59b14610a1c57806395d89b4114610a4b57806399fbab8814610adb578063a22cb46514610b385761013f565b80631dd69f71116101085780631dd69f711461037d57806324600fc31461057d5780632eb2c2d61461059457806346f96023146107c45780634e1273f4146108215780635d30e84d146109515761013f565b8062fdd58e1461014157806301ffc9a7146101b057806306fdde03146102225780630e89341c146102b2578063110f887414610366575b005b34801561014d57600080fd5b5061019a6004803603604081101561016457600080fd5b81019080803573ffffffffffffffffffffffffffffffffffffffff16906020019092919080359060200190929190505050610e93565b6040518082815260200191505060405180910390f35b3480156101bc57600080fd5b50610208600480360360208110156101d357600080fd5b8101908080357bffffffffffffffffffffffffffffffffffffffffffffffffffffffff19169060200190929190505050610eee565b604051808215151515815260200191505060405180910390f35b34801561022e57600080fd5b50610237610f9f565b6040518080602001828103825283818151815260200191508051906020019080838360005b8381101561027757808201518184015260208101905061025c565b50505050905090810190601f1680156102a45780820380516001836020036101000a031916815260200191505b509250505060405180910390f35b3480156102be57600080fd5b506102eb600480360360208110156102d557600080fd5b8101908080359060200190929190505050610fdc565b6040518080602001828103825283818151815260200191508051906020019080838360005b8381101561032b578082015181840152602081019050610310565b50505050905090810190601f1680156103585780820380516001836020036101000a031916815260200191505b509250505060405180910390f35b34801561037257600080fd5b5061037b6110dc565b005b61057b6004803603608081101561039357600080fd5b81019080803573ffffffffffffffffffffffffffffffffffffffff169060200190929190803590602001906401000000008111156103d057600080fd5b8201836020820111156103e257600080fd5b8035906020019184602083028401116401000000008311171561040457600080fd5b919080806020026020016040519081016040528093929190818152602001838360200280828437600081840152601f19601f8201169050808301925050505050505091929192908035906020019064010000000081111561046457600080fd5b82018360208201111561047657600080fd5b8035906020019184602083028401116401000000008311171561049857600080fd5b919080806020026020016040519081016040528093929190818152602001838360200280828437600081840152601f19601f820116905080830192505050505050509192919290803590602001906401000000008111156104f857600080fd5b82018360208201111561050a57600080fd5b8035906020019184602083028401116401000000008311171561052c57600080fd5b919080806020026020016040519081016040528093929190818152602001838360200280828437600081840152601f19601f8201169050808301925050505050505091929192905050506111af565b005b34801561058957600080fd5b50610592611537565b005b3480156105a057600080fd5b506107c2600480360360a08110156105b757600080fd5b81019080803573ffffffffffffffffffffffffffffffffffffffff169060200190929190803573ffffffffffffffffffffffffffffffffffffffff1690602001909291908035906020019064010000000081111561061457600080fd5b82018360208201111561062657600080fd5b8035906020019184602083028401116401000000008311171561064857600080fd5b919080806020026020016040519081016040528093929190818152602001838360200280828437600081840152601f19601f820116905080830192505050505050509192919290803590602001906401000000008111156106a857600080fd5b8201836020820111156106ba57600080fd5b803590602001918460208302840111640100000000831117156106dc57600080fd5b919080806020026020016040519081016040528093929190818152602001838360200280828437600081840152601f19601f8201169050808301925050505050505091929192908035906020019064010000000081111561073c57600080fd5b82018360208201111561074e57600080fd5b8035906020019184600183028401116401000000008311171561077057600080fd5b91908080601f016020809104026020016040519081016040528093929190818152602001838380828437600081840152601f19601f82011690508083019250505050505050919291929050505061163e565b005b3480156107d057600080fd5b506107fd600480360360208110156107e757600080fd5b81019080803590602001909291905050506117ed565b6040518082600381111561080d57fe5b60ff16815260200191505060405180910390f35b34801561082d57600080fd5b506108fa6004803603604081101561084457600080fd5b810190808035906020019064010000000081111561086157600080fd5b82018360208201111561087357600080fd5b8035906020019184602083028401116401000000008311171561089557600080fd5b9091929391929390803590602001906401000000008111156108b657600080fd5b8201836020820111156108c857600080fd5b803590602001918460208302840111640100000000831117156108ea57600080fd5b9091929391929390505050611817565b6040518080602001828103825283818151815260200191508051906020019060200280838360005b8381101561093d578082015181840152602081019050610922565b505050509050019250505060405180910390f35b34801561095d57600080fd5b5061098a6004803603602081101561097457600080fd5b810190808035906020019092919050505061197c565b6040518082600381111561099a57fe5b60ff16815260200191505060405180910390f35b3480156109ba57600080fd5b506109c361199c565b005b3480156109d157600080fd5b506109da611b13565b604051808273ffffffffffffffffffffffffffffffffffffffff1673ffffffffffffffffffffffffffffffffffffffff16815260200191505060405180910390f35b348015610a2857600080fd5b50610a31611b3c565b604051808215151515815260200191505060405180910390f35b348015610a5757600080fd5b50610a60611b93565b6040518080602001828103825283818151815260200191508051906020019080838360005b83811015610aa0578082015181840152602081019050610a85565b50505050905090810190601f168015610acd5780820380516001836020036101000a031916815260200191505b509250505060405180910390f35b348015610ae757600080fd5b50610b1460048036036020811015610afe57600080fd5b8101908080359060200190929190505050611bd0565b60405180826003811115610b2457fe5b60ff16815260200191505060405180910390f35b348015610b4457600080fd5b50610b9360048036036040811015610b5b57600080fd5b81019080803573ffffffffffffffffffffffffffffffffffffffff169060200190929190803515159060200190929190505050611bf0565b005b348015610ba157600080fd5b50610be460048036036020811015610bb857600080fd5b81019080803573ffffffffffffffffffffffffffffffffffffffff169060200190929190505050611cf1565b6040518080602001828103825283818151815260200191508051906020019060200280838360005b83811015610c27578082015181840152602081019050610c0c565b505050509050019250505060405180910390f35b348015610c4757600080fd5b50610c50611dc2565b604051808263ffffffff1663ffffffff16815260200191505060405180910390f35b348015610c7e57600080fd5b50610c87611dd8565b6040518082815260200191505060405180910390f35b348015610ca957600080fd5b50610d0c60048036036040811015610cc057600080fd5b81019080803573ffffffffffffffffffffffffffffffffffffffff169060200190929190803573ffffffffffffffffffffffffffffffffffffffff169060200190929190505050611de2565b604051808215151515815260200191505060405180910390f35b348015610d3257600080fd5b50610e40600480360360a0811015610d4957600080fd5b81019080803573ffffffffffffffffffffffffffffffffffffffff169060200190929190803573ffffffffffffffffffffffffffffffffffffffff169060200190929190803590602001909291908035906020019092919080359060200190640100000000811115610dba57600080fd5b820183602082011115610dcc57600080fd5b80359060200191846001830284011164010000000083111715610dee57600080fd5b91908080601f016020809104026020016040519081016040528093929190818152602001838380828437600081840152601f19601f820116905080830192505050505050509192919290505050611e76565b005b348015610e4e57600080fd5b50610e9160048036036020811015610e6557600080fd5b81019080803573ffffffffffffffffffffffffffffffffffffffff169060200190929190505050612025565b005b6000600160008473ffffffffffffffffffffffffffffffffffffffff1673ffffffffffffffffffffffffffffffffffffffff168152602001908152602001600020600083815260200190815260200160002054905092915050565b60006301ffc9a760e01b7bffffffffffffffffffffffffffffffffffffffffffffffffffffffff1916827bffffffffffffffffffffffffffffffffffffffffffffffffffffffff19161480610f87575063d9b67a2660e01b7bffffffffffffffffffffffffffffffffffffffffffffffffffffffff1916827bffffffffffffffffffffffffffffffffffffffffffffffffffffffff1916145b15610f955760019050610f9a565b600090505b919050565b60606040518060400160405280600981526020017f43727970746f46504c0000000000000000000000000000000000000000000000815250905090565b60606003610fe9836120e9565b60405160200180838054600181600116156101000203166002900480156110475780601f10611025576101008083540402835291820191611047565b820191906000526020600020905b815481529060010190602001808311611033575b505082805190602001908083835b602083106110785780518252602082019150602081019050602083039250611055565b6001836020036101000a038019825116818451168082178552505050505050905001807f2e6a736f6e000000000000000000000000000000000000000000000000000000815250600501925050506040516020818303038152906040529050919050565b6000600c60003373ffffffffffffffffffffffffffffffffffffffff1673ffffffffffffffffffffffffffffffffffffffff1681526020019081526020016000205490506000600c60003373ffffffffffffffffffffffffffffffffffffffff1673ffffffffffffffffffffffffffffffffffffffff168152602001908152602001600020819055503373ffffffffffffffffffffffffffffffffffffffff166108fc829081150290604051600060405180830381858888f193505050501580156111ab573d6000803e3d6000fd5b5050565b600754341015611227576040517f08c379a000000000000000000000000000000000000000000000000000000000815260040180806020018281038252601f8152602001807f496e73756666696369656e742066756e647320746f206d696e74207465616d0081525060200191505060405180910390fd5b600854835114156112a0576040517f08c379a000000000000000000000000000000000000000000000000000000000815260040180806020018281038252601f8152602001807f496e76616c6964206e756d626572206f6620636172647320696e207061636b0081525060200191505060405180910390fd5b81518351146112fa576040517f08c379a000000000000000000000000000000000000000000000000000000000815260040180806020018281038252602c81526020018061348d602c913960400191505060405180910390fd5b8051835114611354576040517f08c379a00000000000000000000000000000000000000000000000000000000081526004018080602001828103825260328152602001806134b96032913960400191505060405180910390fd5b61135e848461221c565b6113698484836123d3565b60008090505b835181101561142d57600b600085838151811061138857fe5b6020026020010151815260200190815260200160002060009054906101000a900460ff16611420576113e08482815181106113bf57fe5b60200260200101518483815181106113d357fe5b602002602001015161264c565b6001600b60008684815181106113f257fe5b6020026020010151815260200190815260200160002060006101000a81548160ff0219169083151502179055505b808060010191505061136f565b5060006007543403905080600c60003373ffffffffffffffffffffffffffffffffffffffff1673ffffffffffffffffffffffffffffffffffffffff168152602001908152602001600020600082825401925050819055507f596b94174caec1e7e9afd41a8fa987600e917bf5a6870d761428c709e80f1a2b848660405180806020018373ffffffffffffffffffffffffffffffffffffffff1673ffffffffffffffffffffffffffffffffffffffff168152602001828103825284818151815260200191508051906020019060200280838360005b8381101561151c578082015181840152602081019050611501565b50505050905001935050505060405180910390a15050505050565b3073ffffffffffffffffffffffffffffffffffffffff16638da5cb5b6040518163ffffffff1660e01b815260040160206040518083038186803b15801561157d57600080fd5b505afa158015611591573d6000803e3d6000fd5b505050506040513d60208110156115a757600080fd5b810190808051906020019092919050505073ffffffffffffffffffffffffffffffffffffffff163373ffffffffffffffffffffffffffffffffffffffff16146115ef57600080fd5b60004790503373ffffffffffffffffffffffffffffffffffffffff166108fc829081150290604051600060405180830381858888f1935050505015801561163a573d6000803e3d6000fd5b5050565b8473ffffffffffffffffffffffffffffffffffffffff163373ffffffffffffffffffffffffffffffffffffffff1614806116fe5750600260008673ffffffffffffffffffffffffffffffffffffffff1673ffffffffffffffffffffffffffffffffffffffff16815260200190815260200160002060003373ffffffffffffffffffffffffffffffffffffffff1673ffffffffffffffffffffffffffffffffffffffff16815260200190815260200160002060009054906101000a900460ff165b611753576040517f08c379a000000000000000000000000000000000000000000000000000000000815260040180806020018281038252602f81526020018061342e602f913960400191505060405180910390fd5b600073ffffffffffffffffffffffffffffffffffffffff168473ffffffffffffffffffffffffffffffffffffffff1614156117d9576040517f08c379a000000000000000000000000000000000000000000000000000000000815260040180806020018281038252603081526020018061339d6030913960400191505060405180910390fd5b6117e6858585858561277f565b5050505050565b60006009600083815260200190815260200160002060009054906101000a900460ff169050919050565b6060828290508585905014611877576040517f08c379a000000000000000000000000000000000000000000000000000000000815260040180806020018281038252602c8152602001806133cd602c913960400191505060405180910390fd5b6060858590506040519080825280602002602001820160405280156118ab5781602001602082028038833980820191505090505b50905060008090505b8686905081101561196f57600160008888848181106118cf57fe5b9050602002013573ffffffffffffffffffffffffffffffffffffffff1673ffffffffffffffffffffffffffffffffffffffff1673ffffffffffffffffffffffffffffffffffffffff168152602001908152602001600020600086868481811061193457fe5b9050602002013581526020019081526020016000205482828151811061195657fe5b60200260200101818152505080806001019150506118b4565b5080915050949350505050565b600a6020528060005260406000206000915054906101000a900460ff1681565b3073ffffffffffffffffffffffffffffffffffffffff16638da5cb5b6040518163ffffffff1660e01b815260040160206040518083038186803b1580156119e257600080fd5b505afa1580156119f6573d6000803e3d6000fd5b505050506040513d6020811015611a0c57600080fd5b810190808051906020019092919050505073ffffffffffffffffffffffffffffffffffffffff163373ffffffffffffffffffffffffffffffffffffffff1614611a5457600080fd5b600073ffffffffffffffffffffffffffffffffffffffff166000809054906101000a900473ffffffffffffffffffffffffffffffffffffffff1673ffffffffffffffffffffffffffffffffffffffff167f8be0079c531659141344cd1fd0a4f28419497f9722a3daafe3b4186f6b6457e060405160405180910390a360008060006101000a81548173ffffffffffffffffffffffffffffffffffffffff021916908373ffffffffffffffffffffffffffffffffffffffff160217905550565b60008060009054906101000a900473ffffffffffffffffffffffffffffffffffffffff16905090565b60008060009054906101000a900473ffffffffffffffffffffffffffffffffffffffff1673ffffffffffffffffffffffffffffffffffffffff163373ffffffffffffffffffffffffffffffffffffffff1614905090565b60606040518060400160405280600381526020017f46504c0000000000000000000000000000000000000000000000000000000000815250905090565b60096020528060005260406000206000915054906101000a900460ff1681565b80600260003373ffffffffffffffffffffffffffffffffffffffff1673ffffffffffffffffffffffffffffffffffffffff16815260200190815260200160002060008473ffffffffffffffffffffffffffffffffffffffff1673ffffffffffffffffffffffffffffffffffffffff16815260200190815260200160002060006101000a81548160ff0219169083151502179055508173ffffffffffffffffffffffffffffffffffffffff163373ffffffffffffffffffffffffffffffffffffffff167f17307eab39ab6107e8899845ad3d59bd9653f200f220920489ca2b5937696c3183604051808215151515815260200191505060405180910390a35050565b6060600073ffffffffffffffffffffffffffffffffffffffff168273ffffffffffffffffffffffffffffffffffffffff161415611d2d57600080fd5b600460008373ffffffffffffffffffffffffffffffffffffffff1673ffffffffffffffffffffffffffffffffffffffff168152602001908152602001600020805480602002602001604051908101604052809291908181526020018280548015611db657602002820191906000526020600020905b815481526020019060010190808311611da2575b50505050509050919050565b600660009054906101000a900463ffffffff1681565b6000600754905090565b6000600260008473ffffffffffffffffffffffffffffffffffffffff1673ffffffffffffffffffffffffffffffffffffffff16815260200190815260200160002060008373ffffffffffffffffffffffffffffffffffffffff1673ffffffffffffffffffffffffffffffffffffffff16815260200190815260200160002060009054906101000a900460ff16905092915050565b8473ffffffffffffffffffffffffffffffffffffffff163373ffffffffffffffffffffffffffffffffffffffff161480611f365750600260008673ffffffffffffffffffffffffffffffffffffffff1673ffffffffffffffffffffffffffffffffffffffff16815260200190815260200160002060003373ffffffffffffffffffffffffffffffffffffffff1673ffffffffffffffffffffffffffffffffffffffff16815260200190815260200160002060009054906101000a900460ff165b611f8b576040517f08c379a000000000000000000000000000000000000000000000000000000000815260040180806020018281038252602a81526020018061333e602a913960400191505060405180910390fd5b600073ffffffffffffffffffffffffffffffffffffffff168473ffffffffffffffffffffffffffffffffffffffff161415612011576040517f08c379a000000000000000000000000000000000000000000000000000000000815260040180806020018281038252602b815260200180613313602b913960400191505060405180910390fd5b61201e8585858585612d9d565b5050505050565b3073ffffffffffffffffffffffffffffffffffffffff16638da5cb5b6040518163ffffffff1660e01b815260040160206040518083038186803b15801561206b57600080fd5b505afa15801561207f573d6000803e3d6000fd5b505050506040513d602081101561209557600080fd5b810190808051906020019092919050505073ffffffffffffffffffffffffffffffffffffffff163373ffffffffffffffffffffffffffffffffffffffff16146120dd57600080fd5b6120e6816131c8565b50565b60606000821415612131576040518060400160405280600181526020017f30000000000000000000000000000000000000000000000000000000000000008152509050612217565b6000829050600083905060005b60008314612160578080600101915050600a838161215857fe5b04925061213e565b6060816040519080825280601f01601f1916602001820160405280156121955781602001600182028038833980820191505090505b50905060006001830390505b6000841461220e57600a84816121b357fe5b0660300160f81b828280600190039350815181106121cd57fe5b60200101907effffffffffffffffffffffffffffffffffffffffffffffffffffffffffffff1916908160001a905350600a848161220657fe5b0493506121a1565b81955050505050505b919050565b600073ffffffffffffffffffffffffffffffffffffffff168273ffffffffffffffffffffffffffffffffffffffff16141561225657600080fd5b600080600090505b82518110156123cd57600460008573ffffffffffffffffffffffffffffffffffffffff1673ffffffffffffffffffffffffffffffffffffffff1681526020019081526020016000208054905091506000600160008673ffffffffffffffffffffffffffffffffffffffff1673ffffffffffffffffffffffffffffffffffffffff16815260200190815260200160002060008584815181106122fb57fe5b602002602001015181526020019081526020016000205414156123c057600460008573ffffffffffffffffffffffffffffffffffffffff1673ffffffffffffffffffffffffffffffffffffffff16815260200190815260200160002083828151811061236357fe5b6020026020010151908060018154018082558091505090600182039060005260206000200160009091929091909150555081600560008584815181106123a557fe5b60200260200101518152602001908152602001600020819055505b808060010191505061225e565b50505050565b805182511461242d576040517f08c379a000000000000000000000000000000000000000000000000000000000815260040180806020018281038252603081526020018061345d6030913960400191505060405180910390fd5b60008251905060008090505b8181101561253e576124ca83828151811061245057fe5b6020026020010151600160008873ffffffffffffffffffffffffffffffffffffffff1673ffffffffffffffffffffffffffffffffffffffff16815260200190815260200160002060008785815181106124a557fe5b60200260200101518152602001908152602001600020546132c090919063ffffffff16565b600160008773ffffffffffffffffffffffffffffffffffffffff1673ffffffffffffffffffffffffffffffffffffffff168152602001908152602001600020600086848151811061251757fe5b60200260200101518152602001908152602001600020819055508080600101915050612439565b508373ffffffffffffffffffffffffffffffffffffffff16600073ffffffffffffffffffffffffffffffffffffffff163373ffffffffffffffffffffffffffffffffffffffff167f4a39dc06d4c0dbc64b70af90fd698a233a518aa5d07e595d983b8c0526c8f7fb8686604051808060200180602001838103835285818151815260200191508051906020019060200280838360005b838110156125ef5780820151818401526020810190506125d4565b50505050905001838103825284818151815260200191508051906020019060200280838360005b83811015612631578082015181840152602081019050612616565b5050505090500194505050505060405180910390a450505050565b600181148061265b5750600281145b806126665750600381145b806126715750600481145b61267a57600080fd5b60018114156126bd5760006009600084815260200190815260200160002060006101000a81548160ff021916908360038111156126b357fe5b021790555061277b565b60028114156127005760016009600084815260200190815260200160002060006101000a81548160ff021916908360038111156126f657fe5b021790555061277a565b60038114156127435760026009600084815260200190815260200160002060006101000a81548160ff0219169083600381111561273957fe5b0217905550612779565b60036009600084815260200190815260200160002060006101000a81548160ff0219169083600381111561277357fe5b02179055505b5b5b5050565b81518351146127d9576040517f08c379a00000000000000000000000000000000000000000000000000000000081526004018080602001828103825260358152602001806133686035913960400191505060405180910390fd5b60008351905060008090505b818110156129da576128768482815181106127fc57fe5b6020026020010151600160008a73ffffffffffffffffffffffffffffffffffffffff1673ffffffffffffffffffffffffffffffffffffffff168152602001908152602001600020600088858151811061285157fe5b60200260200101518152602001908152602001600020546132df90919063ffffffff16565b600160008973ffffffffffffffffffffffffffffffffffffffff1673ffffffffffffffffffffffffffffffffffffffff16815260200190815260200160002060008784815181106128c357fe5b60200260200101518152602001908152602001600020819055506129668482815181106128ec57fe5b6020026020010151600160008973ffffffffffffffffffffffffffffffffffffffff1673ffffffffffffffffffffffffffffffffffffffff168152602001908152602001600020600088858151811061294157fe5b60200260200101518152602001908152602001600020546132c090919063ffffffff16565b600160008873ffffffffffffffffffffffffffffffffffffffff1673ffffffffffffffffffffffffffffffffffffffff16815260200190815260200160002060008784815181106129b357fe5b602002602001015181526020019081526020016000208190555080806001019150506127e5565b508473ffffffffffffffffffffffffffffffffffffffff168673ffffffffffffffffffffffffffffffffffffffff163373ffffffffffffffffffffffffffffffffffffffff167f4a39dc06d4c0dbc64b70af90fd698a233a518aa5d07e595d983b8c0526c8f7fb8787604051808060200180602001838103835285818151815260200191508051906020019060200280838360005b83811015612a8a578082015181840152602081019050612a6f565b50505050905001838103825284818151815260200191508051906020019060200280838360005b83811015612acc578082015181840152602081019050612ab1565b5050505090500194505050505060405180910390a4612b008573ffffffffffffffffffffffffffffffffffffffff166132ff565b15612d955760008573ffffffffffffffffffffffffffffffffffffffff1663bc197c8133898888886040518663ffffffff1660e01b8152600401808673ffffffffffffffffffffffffffffffffffffffff1673ffffffffffffffffffffffffffffffffffffffff1681526020018573ffffffffffffffffffffffffffffffffffffffff1673ffffffffffffffffffffffffffffffffffffffff168152602001806020018060200180602001848103845287818151815260200191508051906020019060200280838360005b83811015612be6578082015181840152602081019050612bcb565b50505050905001848103835286818151815260200191508051906020019060200280838360005b83811015612c28578082015181840152602081019050612c0d565b50505050905001848103825285818151815260200191508051906020019080838360005b83811015612c67578082015181840152602081019050612c4c565b50505050905090810190601f168015612c945780820380516001836020036101000a031916815260200191505b5098505050505050505050602060405180830381600087803b158015612cb957600080fd5b505af1158015612ccd573d6000803e3d6000fd5b505050506040513d6020811015612ce357600080fd5b8101908080519060200190929190505050905063bc197c8160e01b7bffffffffffffffffffffffffffffffffffffffffffffffffffffffff1916817bffffffffffffffffffffffffffffffffffffffffffffffffffffffff191614612d93576040517f08c379a000000000000000000000000000000000000000000000000000000000815260040180806020018281038252603a8152602001806134eb603a913960400191505060405180910390fd5b505b505050505050565b612e0082600160008873ffffffffffffffffffffffffffffffffffffffff1673ffffffffffffffffffffffffffffffffffffffff1681526020019081526020016000206000868152602001908152602001600020546132df90919063ffffffff16565b600160008773ffffffffffffffffffffffffffffffffffffffff1673ffffffffffffffffffffffffffffffffffffffff168152602001908152602001600020600085815260200190815260200160002081905550612eb782600160008773ffffffffffffffffffffffffffffffffffffffff1673ffffffffffffffffffffffffffffffffffffffff1681526020019081526020016000206000868152602001908152602001600020546132c090919063ffffffff16565b600160008673ffffffffffffffffffffffffffffffffffffffff1673ffffffffffffffffffffffffffffffffffffffff1681526020019081526020016000206000858152602001908152602001600020819055508373ffffffffffffffffffffffffffffffffffffffff168573ffffffffffffffffffffffffffffffffffffffff163373ffffffffffffffffffffffffffffffffffffffff167fc3d58168c5ae7397731d063d5bbf3d657854427343f4c083240f7aacaa2d0f628686604051808381526020018281526020019250505060405180910390a4612fae8473ffffffffffffffffffffffffffffffffffffffff166132ff565b156131c15760008473ffffffffffffffffffffffffffffffffffffffff1663f23a6e6133888787876040518663ffffffff1660e01b8152600401808673ffffffffffffffffffffffffffffffffffffffff1673ffffffffffffffffffffffffffffffffffffffff1681526020018573ffffffffffffffffffffffffffffffffffffffff1673ffffffffffffffffffffffffffffffffffffffff16815260200184815260200183815260200180602001828103825283818151815260200191508051906020019080838360005b8381101561309557808201518184015260208101905061307a565b50505050905090810190601f1680156130c25780820380516001836020036101000a031916815260200191505b509650505050505050602060405180830381600087803b1580156130e557600080fd5b505af11580156130f9573d6000803e3d6000fd5b505050506040513d602081101561310f57600080fd5b8101908080519060200190929190505050905063f23a6e6160e01b7bffffffffffffffffffffffffffffffffffffffffffffffffffffffff1916817bffffffffffffffffffffffffffffffffffffffffffffffffffffffff1916146131bf576040517f08c379a00000000000000000000000000000000000000000000000000000000081526004018080602001828103825260358152602001806133f96035913960400191505060405180910390fd5b505b5050505050565b600073ffffffffffffffffffffffffffffffffffffffff168173ffffffffffffffffffffffffffffffffffffffff16141561320257600080fd5b8073ffffffffffffffffffffffffffffffffffffffff166000809054906101000a900473ffffffffffffffffffffffffffffffffffffffff1673ffffffffffffffffffffffffffffffffffffffff167f8be0079c531659141344cd1fd0a4f28419497f9722a3daafe3b4186f6b6457e060405160405180910390a3806000806101000a81548173ffffffffffffffffffffffffffffffffffffffff021916908373ffffffffffffffffffffffffffffffffffffffff16021790555050565b6000808284019050838110156132d557600080fd5b8091505092915050565b6000828211156132ee57600080fd5b600082840390508091505092915050565b600080823b90506000811191505091905056fe4552433131353523736166655472616e7366657246726f6d3a20494e56414c49445f524543495049454e544552433131353523736166655472616e7366657246726f6d3a20494e56414c49445f4f50455241544f5245524331313535235f7361666542617463685472616e7366657246726f6d3a20494e56414c49445f4152524159535f4c454e47544845524331313535237361666542617463685472616e7366657246726f6d3a20494e56414c49445f524543495049454e54455243313135352362616c616e63654f6642617463683a20494e56414c49445f41525241595f4c454e47544845524331313535235f736166655472616e7366657246726f6d3a20494e56414c49445f4f4e5f524543454956455f4d45535341474545524331313535237361666542617463685472616e7366657246726f6d3a20494e56414c49445f4f50455241544f52455243313135354d696e744275726e2362617463684d696e743a20494e56414c49445f4152524159535f4c454e475448506c617965722069647320616e6420706f736974696f6e732061727261792073697a65206d69736d61746368506c617965722069647320616e6420616d6f756e747320746f206d696e742061727261792073697a65206d69736d6174636845524331313535235f7361666542617463685472616e7366657246726f6d3a20494e56414c49445f4f4e5f524543454956455f4d455353414745a265627a7a723158202ad5a887d83b226489a9e95fc811981f7574f1a2befb42de98b3eea6886e3d1b64736f6c63430005100032687474703a2f2f6c6f63616c686f73743a343030312f6170692f666f6f7462616c6c6572732f",
  "source": "pragma solidity ^0.5.0;\n\n/// @author Nichanan Kesonpat\n/// @title Base multi-fungible token contract for cards of CryptoFPL. A PvP card game based on Fantasy Premier League.\n\nimport \"../utils/Ownable.sol\";\nimport \"../erc/erc1155/ERC1155MintBurn.sol\";\nimport \"../erc/erc1155/ERC1155Metadata.sol\";\nimport \"./erc1155/CryptoFPL1155BaseEnumerable.sol\";\n\ncontract CryptoFPLCards is Ownable, ERC1155MintBurn, ERC1155Metadata, CryptoFPL1155BaseEnumerable {\n  \n  //Storage variables\n  uint32 public season;\n  uint CARDPACK_PRICE = 100000000000000000 wei;\n  uint CARDPACK_SIZE = 10;\n\n  //Structs and Enums\n  enum Position {\n    Goalkeeper,\n    Defender,\n    Midfielder,\n    Forward\n  }\n\n  enum Rating {\n    Rookie,\n    RisingStar,\n    FirstTeam,\n    MVP\n  }\n  \n  struct Footballer {\n    Rating rating;\n    Position position;\n    uint32 season;\n  }\n\n  //Maps tokenID to player position\n  mapping(uint => Position) public positions;\n  mapping(uint => Rating) public ratings;\n  mapping(uint => bool) private positionInitialized; //Only updates footballer positions for new ids.\n  mapping(address => uint) refunds; // Keeps track of refunds for players to withdraw from in case they deposited too much.\n\n  //Events\n  // event PlayerMinted(uint id, Position position, address owner);\n  event LogTeamMinted(uint256[] ids, address owner);\n\n  //Modifiers\n  modifier onlyOwner { require (msg.sender == this.owner()); _;}\n\n  //Functions\n  constructor(uint32 _season) public {\n    _setBaseMetadataURI(\"http://localhost:4001/api/footballers/\");\n    season = _season;\n  }\n\n  /// Fallback function\n  function () external payable {\n\n  }\n\n  /// Allows league admin to withdraw funds from the contract.\n  function withdrawFunds() external onlyOwner() {\n    uint availableFunds = address(this).balance;\n    msg.sender.transfer(availableFunds);\n  }\n\n  /// Lets the user withdraw the refund in case of overpayment\n  function withdrawRefund() external {\n    uint refund = refunds[msg.sender];\n    refunds[msg.sender] = 0;\n    msg.sender.transfer(refund);\n  }\n\n  /// Retrieves the Position of a footballer\n  /// @param tokenId of the footballer in question\n  /// @return the Position enum of the footballer\n  function positionOf(uint tokenId) external view returns(Position) {\n    return positions[tokenId];\n  }\n\n  function name() public pure returns(string memory) {\n    return 'CryptoFPL';\n  }\n\n  function symbol() public pure returns(string memory) {\n    return 'FPL';\n  }\n\n  function viewCardPackPrice() public view returns(uint price) {\n    return CARDPACK_PRICE;\n  }\n\n  /// Mints footballer card pack to a user\n  /// @param _owner address to mint to\n  /// @param ids of the footballers, as per the FPL API\n  /// @param playerPositions of the footballers 1 = GK, 2 = DEF, 3 = MID, 4 = FWD\n  /// @param amounts to mint for each footballer ID\n  function mintTeam(address _owner, uint[] memory ids, uint[] memory playerPositions, uint[] memory amounts) public payable {\n    require(msg.value >= CARDPACK_PRICE, \"Insufficient funds to mint team\");\n    require (ids.length != CARDPACK_SIZE, \"Invalid number of cards in pack\");\n    require (ids.length == playerPositions.length, \"Player ids and positions array size mismatch\");\n    require (ids.length == amounts.length, \"Player ids and amounts to mint array size mismatch\");\n    // require (msg.sender == _owner);\n    _addTokensTo(_owner, ids);\n    _batchMint(_owner, ids, amounts);\n  \n    for (uint i = 0; i < ids.length; i++) {\n      if (!positionInitialized[ids[i]]) {\n        _updatePosition(ids[i], playerPositions[i]);\n        positionInitialized[ids[i]] = true;\n      }\n    }\n    uint change = msg.value - CARDPACK_PRICE;\n    refunds[msg.sender] += change;\n    emit LogTeamMinted(ids, _owner);\n  }\n  \n  /// Updates the position of a footballer\n  /// @param tokenId of the footballer\n  /// @param position of the footballer to be updated to\n  function _updatePosition(uint tokenId, uint position) private {\n    require(position == 1 || position == 2 || position == 3 || position == 4);\n    \n    // Positions are 1-indexed in server but 0-indexed as Enums.  \n    if (position == 1) {\n      positions[tokenId] = Position.Goalkeeper;\n    } else if (position == 2) {\n      positions[tokenId] = Position.Defender;\n    } else if (position == 3) {\n      positions[tokenId] = Position.Midfielder;\n    } else {\n      positions[tokenId] = Position.Forward;\n    }\n  }\n\n\n}",
  "sourcePath": "C:\\Users\\hp\\Pictures\\Crypto-FPL\\contracts\\CryptoFPLCore\\CryptoFPLCards.sol",
  "compiler": {
    "name": "solc",
    "version": "0.5.16+commit.9c3226ce.Emscripten.clang"
  },
  "schemaVersion": "3.4.16",
  "updatedAt": "2025-08-02T14:26:58.475Z",
  "networkType": "ethereum",
  "devdoc": {
    "methods": {
      "balanceOf(address,uint256)": {
        "params": {
          "_id": "ID of the Token",
          "_owner": "The address of the token holder"
        },
        "return": "The _owner's balance of the Token type requested"
      },
      "balanceOfBatch(address[],uint256[])": {
        "params": {
          "_ids": "ID of the Tokens",
          "_owners": "The addresses of the token holders"
        },
        "return": "The _owner's balance of the Token types requested (i.e. balance for each (owner, id) pair)"
      },
      "isApprovedForAll(address,address)": {
        "params": {
          "_operator": "Address of authorized operator",
          "_owner": "The owner of the Tokens"
        },
        "return": "True if the operator is approved, false if not"
      },
      "isOwner()": {
        "return": "true if `msg.sender` is the owner of the contract."
      },
      "mintTeam(address,uint256[],uint256[],uint256[])": {
        "params": {
          "_owner": "address to mint to",
          "amounts": "to mint for each footballer ID",
          "ids": "of the footballers, as per the FPL API",
          "playerPositions": "of the footballers 1 = GK, 2 = DEF, 3 = MID, 4 = FWD"
        }
      },
      "owner()": {
        "return": "the address of the owner."
      },
      "positionOf(uint256)": {
        "params": {
          "tokenId": "of the footballer in question"
        },
        "return": "the Position enum of the footballer"
      },
      "renounceOwnership()": {
        "details": "Allows the current owner to relinquish control of the contract."
      },
      "safeBatchTransferFrom(address,address,uint256[],uint256[],bytes)": {
        "params": {
          "_amounts": "Transfer amounts per token type",
          "_data": "Additional data with no specified format, sent in call to `_to`",
          "_from": "Source addresses",
          "_ids": "IDs of each token type",
          "_to": "Target addresses"
        }
      },
      "safeTransferFrom(address,address,uint256,uint256,bytes)": {
        "params": {
          "_amount": "Transfered amount",
          "_data": "Additional data with no specified format, sent in call to `_to`",
          "_from": "Source address",
          "_id": "ID of the token type",
          "_to": "Target address"
        }
      },
      "setApprovalForAll(address,bool)": {
        "params": {
          "_approved": "True if the operator is approved, false to revoke approval",
          "_operator": "Address to add to the set of authorized operators"
        }
      },
      "supportsInterface(bytes4)": {
        "params": {
          "_interfaceID": "The interface identifier, as specified in ERC-165"
        },
        "return": "`true` if the contract implements `_interfaceID` and"
      },
      "transferOwnership(address)": {
        "details": "Allows the current owner to transfer control of the contract to a newOwner.",
        "params": {
          "newOwner": "The address to transfer ownership to."
        }
      },
      "uri(uint256)": {
        "details": "URIs are defined in RFC 3986.     URIs are assumed to be deterministically generated based on token ID     Token IDs are assumed to be represented in their hex format in URIs ",
        "return": "URI string"
      }
    }
  },
  "userdoc": {
    "methods": {
      "balanceOf(address,uint256)": {
        "notice": "Get the balance of an account's Tokens"
      },
      "balanceOfBatch(address[],uint256[])": {
        "notice": "Get the balance of multiple account/token pairs"
      },
      "isApprovedForAll(address,address)": {
        "notice": "Queries the approval status of an operator for a given owner"
      },
      "mintTeam(address,uint256[],uint256[],uint256[])": {
        "notice": "Mints footballer card pack to a user"
      },
      "positionOf(uint256)": {
        "notice": "Retrieves the Position of a footballer"
      },
      "renounceOwnership()": {
        "notice": "Renouncing to ownership will leave the contract without an owner. It will not be possible to call the functions with the `onlyOwner` modifier anymore."
      },
      "safeBatchTransferFrom(address,address,uint256[],uint256[],bytes)": {
        "notice": "Send multiple types of Tokens from the _from address to the _to address (with safety call)"
      },
      "safeTransferFrom(address,address,uint256,uint256,bytes)": {
        "notice": "Transfers amount amount of an _id from the _from address to the _to address specified"
      },
      "setApprovalForAll(address,bool)": {
        "notice": "Enable or disable approval for a third party (\"operator\") to manage all of caller's tokens"
      },
      "supportsInterface(bytes4)": {
        "notice": "Query if a contract implements an interface"
      },
      "uri(uint256)": {
        "notice": "A distinct Uniform Resource Identifier (URI) for a given token."
      },
      "withdrawFunds()": {
        "notice": "Allows league admin to withdraw funds from the contract."
      },
      "withdrawRefund()": {
        "notice": "Lets the user withdraw the refund in case of overpayment"
      }
    }
  }
}