{
  "contractName": "CryptoFPLAdmin",
  "abi": [
    {
      "anonymous": false,
      "inputs": [
        {
          "indexed": false,
          "internalType": "uint256",
          "name": "gameweek",
          "type": "uint256"
        },
        {
          "indexed": false,
          "internalType": "bool",
          "name": "deadlinePassed",
          "type": "bool"
        },
        {
          "indexed": false,
          "internalType": "uint256",
          "name": "timeNow",
          "type": "uint256"
        }
      ],
      "name": "LogDeadlineStatusUpdated",
      "type": "event"
    },
    {
      "anonymous": false,
      "inputs": [
        {
          "indexed": false,
          "internalType": "uint256",
          "name": "gameweek",
          "type": "uint256"
        },
        {
          "indexed": false,
          "internalType": "uint256",
          "name": "deadline",
          "type": "uint256"
        }
      ],
      "name": "LogNewGameweekBegin",
      "type": "event"
    },
    {
      "anonymous": false,
      "inputs": [
        {
          "indexed": false,
          "internalType": "string",
          "name": "message",
          "type": "string"
        }
      ],
      "name": "LogNewProvableQuery",
      "type": "event"
    },
    {
      "constant": true,
      "inputs": [],
      "name": "leagueManager",
      "outputs": [
        {
          "internalType": "address payable",
          "name": "",
          "type": "address"
        }
      ],
      "payable": false,
      "stateMutability": "view",
      "type": "function"
    },
    {
      "constant": true,
      "inputs": [],
      "name": "provableId",
      "outputs": [
        {
          "internalType": "bytes32",
          "name": "",
          "type": "bytes32"
        }
      ],
      "payable": false,
      "stateMutability": "view",
      "type": "function"
    },
    {
      "constant": true,
      "inputs": [],
      "name": "isPaused",
      "outputs": [
        {
          "internalType": "bool",
          "name": "",
          "type": "bool"
        }
      ],
      "payable": false,
      "stateMutability": "view",
      "type": "function"
    },
    {
      "constant": true,
      "inputs": [],
      "name": "viewDeadlineStatus",
      "outputs": [
        {
          "internalType": "uint256",
          "name": "_deadline",
          "type": "uint256"
        },
        {
          "internalType": "bool",
          "name": "_deadlinePassed",
          "type": "bool"
        }
      ],
      "payable": false,
      "stateMutability": "view",
      "type": "function"
    },
    {
      "constant": false,
      "inputs": [],
      "name": "toggleContractPause",
      "outputs": [],
      "payable": false,
      "stateMutability": "nonpayable",
      "type": "function"
    },
    {
      "constant": false,
      "inputs": [
        {
          "internalType": "uint256",
          "name": "_deadline",
          "type": "uint256"
        }
      ],
      "name": "incrementGameweek",
      "outputs": [],
      "payable": false,
      "stateMutability": "nonpayable",
      "type": "function"
    },
    {
      "constant": false,
      "inputs": [],
      "name": "toggleDeadlinePassed",
      "outputs": [],
      "payable": true,
      "stateMutability": "payable",
      "type": "function"
    },
    {
      "constant": false,
      "inputs": [
        {
          "internalType": "bytes32",
          "name": "_provableId",
          "type": "bytes32"
        },
        {
          "internalType": "string",
          "name": "_res",
          "type": "string"
        }
      ],
      "name": "__callback",
      "outputs": [],
      "payable": false,
      "stateMutability": "nonpayable",
      "type": "function"
    },
    {
      "constant": false,
      "inputs": [
        {
          "internalType": "bytes32",
          "name": "_myid",
          "type": "bytes32"
        },
        {
          "internalType": "string",
          "name": "_result",
          "type": "string"
        },
        {
          "internalType": "bytes",
          "name": "_proof",
          "type": "bytes"
        }
      ],
      "name": "__callback",
      "outputs": [],
      "payable": false,
      "stateMutability": "nonpayable",
      "type": "function"
    }
  ],
  "bytecode": "0x60806040526000600760006101000a81548160ff0219169083151502179055506000600955635d4db4a0600a556000600b60006101000a81548160ff02191690831515021790555034801561005357600080fd5b50611d7e806100636000396000f3fe6080604052600436106100865760003560e01c80639cf262b5116100595780639cf262b5146102e7578063b187bd2614610312578063bce1dd2414610341578063ea93ae4114610398578063fc1d6354146103d357610086565b80632575d0c71461008b57806327dc297e1461009557806338bbfa501461016757806386f9c864146102d0575b600080fd5b610093610409565b005b3480156100a157600080fd5b50610165600480360360408110156100b857600080fd5b8101908080359060200190929190803590602001906401000000008111156100df57600080fd5b8201836020820111156100f157600080fd5b8035906020019184600183028401116401000000008311171561011357600080fd5b91908080601f016020809104026020016040519081016040528093929190818152602001838380828437600081840152601f19601f8201169050808301925050505050505091929192905050506105ef565b005b34801561017357600080fd5b506102ce6004803603606081101561018a57600080fd5b8101908080359060200190929190803590602001906401000000008111156101b157600080fd5b8201836020820111156101c357600080fd5b803590602001918460018302840111640100000000831117156101e557600080fd5b91908080601f016020809104026020016040519081016040528093929190818152602001838380828437600081840152601f19601f8201169050808301925050505050505091929192908035906020019064010000000081111561024857600080fd5b82018360208201111561025a57600080fd5b8035906020019184600183028401116401000000008311171561027c57600080fd5b91908080601f016020809104026020016040519081016040528093929190818152602001838380828437600081840152601f19601f8201169050808301925050505050505091929192905050506106c2565b005b3480156102dc57600080fd5b506102e56106e5565b005b3480156102f357600080fd5b506102fc6107b7565b6040518082815260200191505060405180910390f35b34801561031e57600080fd5b506103276107bd565b604051808215151515815260200191505060405180910390f35b34801561034d57600080fd5b506103566107d4565b604051808273ffffffffffffffffffffffffffffffffffffffff1673ffffffffffffffffffffffffffffffffffffffff16815260200191505060405180910390f35b3480156103a457600080fd5b506103d1600480360360208110156103bb57600080fd5b81019080803590602001909291905050506107fa565b005b3480156103df57600080fd5b506103e8610919565b60405180838152602001821515151581526020019250505060405180910390f35b600560009054906101000a900473ffffffffffffffffffffffffffffffffffffffff1673ffffffffffffffffffffffffffffffffffffffff163373ffffffffffffffffffffffffffffffffffffffff16146104af576040517f08c379a000000000000000000000000000000000000000000000000000000000815260040180806020018281038252602f815260200180611d1b602f913960400191505060405180910390fd5b476104ee6040518060400160405280600381526020017f55524c0000000000000000000000000000000000000000000000000000000000815250610937565b1115610544577fc4dc360d0a9c0677a3379ae0a3d81e887f761e65fdf3d7e00859d1bcd3c4738960405180806020018281038252602e815260200180611cc6602e913960400191505060405180910390a16105ed565b7fc4dc360d0a9c0677a3379ae0a3d81e887f761e65fdf3d7e00859d1bcd3c47389604051808060200182810382526027815260200180611cf46027913960400191505060405180910390a16105e66040518060400160405280600381526020017f55524c0000000000000000000000000000000000000000000000000000000000815250604051806080016040528060418152602001611c8560419139610cc8565b6006819055505b565b6105f761120e565b73ffffffffffffffffffffffffffffffffffffffff163373ffffffffffffffffffffffffffffffffffffffff161461062e57600080fd5b60006106398261152b565b9050600a54811115610661576001600760006101000a81548160ff0219169083151502179055505b7f4c97b356a78d40593befa5f223e75b96e277f9b9214b77dd51c2b6898cb0ef9c600954600760009054906101000a900460ff16836040518084815260200183151515158152602001828152602001935050505060405180910390a1505050565b6000801b600360008060001b815260200190815260200160002081905550505050565b600560009054906101000a900473ffffffffffffffffffffffffffffffffffffffff1673ffffffffffffffffffffffffffffffffffffffff163373ffffffffffffffffffffffffffffffffffffffff161461078b576040517f08c379a000000000000000000000000000000000000000000000000000000000815260040180806020018281038252602f815260200180611d1b602f913960400191505060405180910390fd5b600b60009054906101000a900460ff1615600b60006101000a81548160ff021916908315150217905550565b60065481565b6000600b60009054906101000a900460ff16905090565b600560009054906101000a900473ffffffffffffffffffffffffffffffffffffffff1681565b600560009054906101000a900473ffffffffffffffffffffffffffffffffffffffff1673ffffffffffffffffffffffffffffffffffffffff163373ffffffffffffffffffffffffffffffffffffffff16146108a0576040517f08c379a000000000000000000000000000000000000000000000000000000000815260040180806020018281038252602f815260200180611d1b602f913960400191505060405180910390fd5b600160096000828254019250508190555080600a819055506000600760006101000a81548160ff0219169083151502179055507fa21c7a9265c04997aa5d2437820f73de709c1520d918243528537c2c41db3561600954600a54604051808381526020018281526020019250505060405180910390a150565b600080600a54600760009054906101000a900460ff16915091509091565b60008073ffffffffffffffffffffffffffffffffffffffff16600160009054906101000a900473ffffffffffffffffffffffffffffffffffffffff1673ffffffffffffffffffffffffffffffffffffffff1614806109bf575060006109bd600160009054906101000a900473ffffffffffffffffffffffffffffffffffffffff1661153f565b145b156109d0576109ce600061154a565b505b600160009054906101000a900473ffffffffffffffffffffffffffffffffffffffff1673ffffffffffffffffffffffffffffffffffffffff166338cc48316040518163ffffffff1660e01b8152600401602060405180830381600087803b158015610a3a57600080fd5b505af1158015610a4e573d6000803e3d6000fd5b505050506040513d6020811015610a6457600080fd5b810190808051906020019092919050505073ffffffffffffffffffffffffffffffffffffffff166000809054906101000a900473ffffffffffffffffffffffffffffffffffffffff1673ffffffffffffffffffffffffffffffffffffffff1614610bad57600160009054906101000a900473ffffffffffffffffffffffffffffffffffffffff1673ffffffffffffffffffffffffffffffffffffffff166338cc48316040518163ffffffff1660e01b8152600401602060405180830381600087803b158015610b3257600080fd5b505af1158015610b46573d6000803e3d6000fd5b505050506040513d6020811015610b5c57600080fd5b81019080805190602001909291905050506000806101000a81548173ffffffffffffffffffffffffffffffffffffffff021916908373ffffffffffffffffffffffffffffffffffffffff1602179055505b6000809054906101000a900473ffffffffffffffffffffffffffffffffffffffff1673ffffffffffffffffffffffffffffffffffffffff1663524f3889836040518263ffffffff1660e01b81526004018080602001828103825283818151815260200191508051906020019080838360005b83811015610c3a578082015181840152602081019050610c1f565b50505050905090810190601f168015610c675780820380516001836020036101000a031916815260200191505b5092505050602060405180830381600087803b158015610c8657600080fd5b505af1158015610c9a573d6000803e3d6000fd5b505050506040513d6020811015610cb057600080fd5b81019080805190602001909291905050509050919050565b60008073ffffffffffffffffffffffffffffffffffffffff16600160009054906101000a900473ffffffffffffffffffffffffffffffffffffffff1673ffffffffffffffffffffffffffffffffffffffff161480610d5057506000610d4e600160009054906101000a900473ffffffffffffffffffffffffffffffffffffffff1661153f565b145b15610d6157610d5f600061154a565b505b600160009054906101000a900473ffffffffffffffffffffffffffffffffffffffff1673ffffffffffffffffffffffffffffffffffffffff166338cc48316040518163ffffffff1660e01b8152600401602060405180830381600087803b158015610dcb57600080fd5b505af1158015610ddf573d6000803e3d6000fd5b505050506040513d6020811015610df557600080fd5b810190808051906020019092919050505073ffffffffffffffffffffffffffffffffffffffff166000809054906101000a900473ffffffffffffffffffffffffffffffffffffffff1673ffffffffffffffffffffffffffffffffffffffff1614610f3e57600160009054906101000a900473ffffffffffffffffffffffffffffffffffffffff1673ffffffffffffffffffffffffffffffffffffffff166338cc48316040518163ffffffff1660e01b8152600401602060405180830381600087803b158015610ec357600080fd5b505af1158015610ed7573d6000803e3d6000fd5b505050506040513d6020811015610eed57600080fd5b81019080805190602001909291905050506000806101000a81548173ffffffffffffffffffffffffffffffffffffffff021916908373ffffffffffffffffffffffffffffffffffffffff1602179055505b60008060009054906101000a900473ffffffffffffffffffffffffffffffffffffffff1673ffffffffffffffffffffffffffffffffffffffff1663524f3889856040518263ffffffff1660e01b81526004018080602001828103825283818151815260200191508051906020019080838360005b83811015610fcd578082015181840152602081019050610fb2565b50505050905090810190601f168015610ffa5780820380516001836020036101000a031916815260200191505b5092505050602060405180830381600087803b15801561101957600080fd5b505af115801561102d573d6000803e3d6000fd5b505050506040513d602081101561104357600080fd5b8101908080519060200190929190505050905062030d403a02670de0b6b3a764000001811115611079576000801b915050611208565b6000809054906101000a900473ffffffffffffffffffffffffffffffffffffffff1673ffffffffffffffffffffffffffffffffffffffff1663adf59f9982600087876040518563ffffffff1660e01b8152600401808481526020018060200180602001838103835285818151815260200191508051906020019080838360005b838110156111145780820151818401526020810190506110f9565b50505050905090810190601f1680156111415780820380516001836020036101000a031916815260200191505b50838103825284818151815260200191508051906020019080838360005b8381101561117a57808201518184015260208101905061115f565b50505050905090810190601f1680156111a75780820380516001836020036101000a031916815260200191505b50955050505050506020604051808303818588803b1580156111c857600080fd5b505af11580156111dc573d6000803e3d6000fd5b50505050506040513d60208110156111f357600080fd5b81019080805190602001909291905050509150505b92915050565b60008073ffffffffffffffffffffffffffffffffffffffff16600160009054906101000a900473ffffffffffffffffffffffffffffffffffffffff1673ffffffffffffffffffffffffffffffffffffffff16148061129657506000611294600160009054906101000a900473ffffffffffffffffffffffffffffffffffffffff1661153f565b145b156112a7576112a5600061154a565b505b600160009054906101000a900473ffffffffffffffffffffffffffffffffffffffff1673ffffffffffffffffffffffffffffffffffffffff166338cc48316040518163ffffffff1660e01b8152600401602060405180830381600087803b15801561131157600080fd5b505af1158015611325573d6000803e3d6000fd5b505050506040513d602081101561133b57600080fd5b810190808051906020019092919050505073ffffffffffffffffffffffffffffffffffffffff166000809054906101000a900473ffffffffffffffffffffffffffffffffffffffff1673ffffffffffffffffffffffffffffffffffffffff161461148457600160009054906101000a900473ffffffffffffffffffffffffffffffffffffffff1673ffffffffffffffffffffffffffffffffffffffff166338cc48316040518163ffffffff1660e01b8152600401602060405180830381600087803b15801561140957600080fd5b505af115801561141d573d6000803e3d6000fd5b505050506040513d602081101561143357600080fd5b81019080805190602001909291905050506000806101000a81548173ffffffffffffffffffffffffffffffffffffffff021916908373ffffffffffffffffffffffffffffffffffffffff1602179055505b6000809054906101000a900473ffffffffffffffffffffffffffffffffffffffff1673ffffffffffffffffffffffffffffffffffffffff1663c281d19e6040518163ffffffff1660e01b815260040160206040518083038186803b1580156114eb57600080fd5b505afa1580156114ff573d6000803e3d6000fd5b505050506040513d602081101561151557600080fd5b8101908080519060200190929190505050905090565b600061153882600061155b565b9050919050565b6000813b9050919050565b600061155461166e565b9050919050565b600060608390506000809050600080905060008090505b835181101561164f57603084828151811061158957fe5b602001015160f81c60f81b60f81c60ff16101580156115c5575060398482815181106115b157fe5b602001015160f81c60f81b60f81c60ff1611155b156116175781156115e85760008614156115de5761164f565b8580600190039650505b600a8302925060308482815181106115fc57fe5b602001015160f81c60f81b60f81c60ff160383019250611642565b602e84828151811061162557fe5b602001015160f81c60f81b60f81c60ff16141561164157600191505b5b8080600101915050611572565b5060008511156116625784600a0a820291505b81935050505092915050565b60008061168e731d3b2638a7cc9f2cb3d298a3da7a90b67e5506ed61153f565b111561173057731d3b2638a7cc9f2cb3d298a3da7a90b67e5506ed600160006101000a81548173ffffffffffffffffffffffffffffffffffffffff021916908373ffffffffffffffffffffffffffffffffffffffff1602179055506117276040518060400160405280600b81526020017f6574685f6d61696e6e6574000000000000000000000000000000000000000000815250611bc5565b60019050611bc2565b600061174f73c03a2615d5efaf5f49f60b7bb6583eaec212fdf161153f565b11156117f15773c03a2615d5efaf5f49f60b7bb6583eaec212fdf1600160006101000a81548173ffffffffffffffffffffffffffffffffffffffff021916908373ffffffffffffffffffffffffffffffffffffffff1602179055506117e86040518060400160405280600c81526020017f6574685f726f707374656e330000000000000000000000000000000000000000815250611bc5565b60019050611bc2565b600061181073b7a07bcf2ba2f2703b24c0691b5278999c59ac7e61153f565b11156118b25773b7a07bcf2ba2f2703b24c0691b5278999c59ac7e600160006101000a81548173ffffffffffffffffffffffffffffffffffffffff021916908373ffffffffffffffffffffffffffffffffffffffff1602179055506118a96040518060400160405280600981526020017f6574685f6b6f76616e0000000000000000000000000000000000000000000000815250611bc5565b60019050611bc2565b60006118d173146500cfd35b22e4a392fe0adc06de1a1368ed4861153f565b11156119735773146500cfd35b22e4a392fe0adc06de1a1368ed48600160006101000a81548173ffffffffffffffffffffffffffffffffffffffff021916908373ffffffffffffffffffffffffffffffffffffffff16021790555061196a6040518060400160405280600b81526020017f6574685f72696e6b656279000000000000000000000000000000000000000000815250611bc5565b60019050611bc2565b600061199273a2998efd205fb9d4b4963afb70778d6354ad3a4161153f565b1115611a345773a2998efd205fb9d4b4963afb70778d6354ad3a41600160006101000a81548173ffffffffffffffffffffffffffffffffffffffff021916908373ffffffffffffffffffffffffffffffffffffffff160217905550611a2b6040518060400160405280600a81526020017f6574685f676f65726c6900000000000000000000000000000000000000000000815250611bc5565b60019050611bc2565b6000611a53736f485c8bf6fc43ea212e93bbf8ce046c7f1cb47561153f565b1115611ab757736f485c8bf6fc43ea212e93bbf8ce046c7f1cb475600160006101000a81548173ffffffffffffffffffffffffffffffffffffffff021916908373ffffffffffffffffffffffffffffffffffffffff16021790555060019050611bc2565b6000611ad67320e12a1f859b3feae5fb2a0a32c18f5a65555bbf61153f565b1115611b3a577320e12a1f859b3feae5fb2a0a32c18f5a65555bbf600160006101000a81548173ffffffffffffffffffffffffffffffffffffffff021916908373ffffffffffffffffffffffffffffffffffffffff16021790555060019050611bc2565b6000611b597351efaf4c8b3c9afbd5ab9f4bbc82784ab6ef8faa61153f565b1115611bbd577351efaf4c8b3c9afbd5ab9f4bbc82784ab6ef8faa600160006101000a81548173ffffffffffffffffffffffffffffffffffffffff021916908373ffffffffffffffffffffffffffffffffffffffff16021790555060019050611bc2565b600090505b90565b8060029080519060200190611bdb929190611bdf565b5050565b828054600181600116156101000203166002900490600052602060002090601f016020900481019282601f10611c2057805160ff1916838001178555611c4e565b82800160010185558215611c4e579182015b82811115611c4d578251825591602001919060010190611c32565b5b509050611c5b9190611c5f565b5090565b611c8191905b80821115611c7d576000816000905550600101611c65565b5090565b9056fe6a736f6e28687474703a2f2f776f726c6474696d656170692e6f72672f6170692f74696d657a6f6e652f4575726f70652f4c6f6e646f6e292e756e697854696d65506c656173652061646420736f6d652045544820746f20636f76657220666f72207468652071756572792066656570726f7661626c65207175657279207761732073656e742c207374616e64696e672062792e2e2e4f6e6c7920746865206c6561677565206d616e616765722063616e20706572666f726d207468697320616374696f6ea265627a7a723158204c903215c7c318c292db648c21997db4c5a9e1bb73072d93b8e0f42868ae344164736f6c63430005100032",
  "source": "pragma solidity ^0.5.0;\n\nimport \"../ProvableAPI.sol\";\n\n    /// @author Nichanan Kesonpat\n    /// @title Admin functions for CryptoFPL\n\ncontract CryptoFPLAdmin is usingProvable {\n\n    /// Storage variables\n    address payable public leagueManager;\n    bytes32 public provableId;\n    bool deadlinePassed = false;\n    uint entryFee;\n    uint gameweek = 0;\n    uint deadline = 1565373600; // Gameweek deadline epoch\n    bool private paused = false;\n\n    /// Events\n    event LogNewProvableQuery(string message);\n    event LogNewGameweekBegin(uint gameweek, uint deadline);\n    event LogDeadlineStatusUpdated(uint gameweek, bool deadlinePassed, uint timeNow);\n\n    /// Modifiers\n    modifier isLeagueManager() { require(msg.sender == leagueManager, \"Only the league manager can perform this action\"); _; }\n    modifier stopInEmergency() { require(!paused, \"Cannot execute this function when contract is paused\"); _; }\n    modifier onlyInEmergency() { require(paused, \"This function can only be executed if the contract has been paused\"); _; }\n    modifier withinDeadline() {require(!deadlinePassed, \"This function can only be executed within the gameweek deadline\"); _; }\n\n    /// Returns the pause status of the contract\n    /// @dev Circuit breaker for contract\n    /// @return boolean of whether or not the contract is currently paused\n    function isPaused() external view returns(bool) {\n        return paused;\n    }\n\n    /// Returns deadline passed status\n    /// @return boolean of whether or not the gameweek deadline has passed\n    function viewDeadlineStatus() external view returns(uint _deadline, bool _deadlinePassed) {\n        return (deadline, deadlinePassed);\n    }\n\n    /// Allows the admin to pause certain contract functions to be called in case of emergency\n    /// Functions paused in emergency are: createGame, joinGame, commitTeam, and revealTeam\n    function toggleContractPause() external isLeagueManager() {\n        paused = !paused;\n    }\n\n    /// Updates the live gameweek\n    /// @param _deadline time epoch of the live gameweek\n    function incrementGameweek(uint _deadline) external isLeagueManager() {\n        gameweek += 1;\n        deadline = _deadline;\n        deadlinePassed = false;\n        emit LogNewGameweekBegin(gameweek, deadline);\n    }\n\n    // /// Backup function to toggle deadline if provable query fails\n    // function toggleDeadlinePassedBackup() external isLeagueManager() {\n    //     deadlinePassed = !deadlinePassed;\n    // }\n\n    /// Queries the current time (GMT+1) using Provable\n    /// @dev should be called by admin when the gameweek deadline has passed\n    function toggleDeadlinePassed() external payable isLeagueManager() {\n        if (provable_getPrice(\"URL\") > address(this).balance) {\n            emit LogNewProvableQuery(\"Please add some ETH to cover for the query fee\");\n        } else {\n            emit LogNewProvableQuery(\"provable query was sent, standing by...\");\n            provableId = provable_query(\"URL\", \"json(http://worldtimeapi.org/api/timezone/Europe/London).unixTime\");\n        }\n    }\n\n    /// Handles ProvableAPI call response\n    /// @dev sets the 'deadlinePassed' variable to true if the current time exceeds the gameweek deadline.\n    function __callback(bytes32 _provableId, string memory _res) public {\n        require(msg.sender == provable_cbAddress());\n        uint timeNow = parseInt(_res);\n        if (timeNow > deadline) {\n            deadlinePassed = true;\n        }\n        emit LogDeadlineStatusUpdated(gameweek, deadlinePassed, timeNow);\n    }\n\n}",
  "sourcePath": "C:\\Users\\hp\\Pictures\\Crypto-FPL\\contracts\\CryptoFPLCore\\CryptoFPLAdmin.sol",
  "compiler": {
    "name": "solc",
    "version": "0.5.16+commit.9c3226ce.Emscripten.clang"
  },
  "schemaVersion": "3.4.16",
  "updatedAt": "2025-08-02T14:24:57.069Z",
  "devdoc": {
    "author": "Nichanan Kesonpat",
    "methods": {
      "__callback(bytes32,string)": {
        "details": "sets the 'deadlinePassed' variable to true if the current time exceeds the gameweek deadline."
      },
      "incrementGameweek(uint256)": {
        "params": {
          "_deadline": "time epoch of the live gameweek"
        }
      },
      "isPaused()": {
        "details": "Circuit breaker for contract",
        "return": "boolean of whether or not the contract is currently paused"
      },
      "toggleDeadlinePassed()": {
        "details": "should be called by admin when the gameweek deadline has passed"
      },
      "viewDeadlineStatus()": {
        "return": "boolean of whether or not the gameweek deadline has passed"
      }
    },
    "title": "Admin functions for CryptoFPL"
  },
  "userdoc": {
    "methods": {
      "__callback(bytes32,string)": {
        "notice": "Handles ProvableAPI call response"
      },
      "incrementGameweek(uint256)": {
        "notice": "Updates the live gameweek"
      },
      "isPaused()": {
        "notice": "Returns the pause status of the contract"
      },
      "toggleContractPause()": {
        "notice": "Allows the admin to pause certain contract functions to be called in case of emergency Functions paused in emergency are: createGame, joinGame, commitTeam, and revealTeam"
      },
      "toggleDeadlinePassed()": {
        "notice": "Queries the current time (GMT+1) using Provable"
      },
      "viewDeadlineStatus()": {
        "notice": "Returns deadline passed status"
      }
    }
  }
}