{
  "contractName": "CryptoFPL",
  "abi": [
    {
      "inputs": [
        {
          "internalType": "uint256",
          "name": "_entryFee",
          "type": "uint256"
        }
      ],
      "payable": false,
      "stateMutability": "nonpayable",
      "type": "constructor"
    },
    {
      "anonymous": false,
      "inputs": [
        {
          "indexed": false,
          "internalType": "uint256",
          "name": "gameweek",
          "type": "uint256"
        },
        {
          "indexed": false,
          "internalType": "bool",
          "name": "deadlinePassed",
          "type": "bool"
        },
        {
          "indexed": false,
          "internalType": "uint256",
          "name": "timeNow",
          "type": "uint256"
        }
      ],
      "name": "LogDeadlineStatusUpdated",
      "type": "event"
    },
    {
      "anonymous": false,
      "inputs": [
        {
          "indexed": true,
          "internalType": "address",
          "name": "player2",
          "type": "address"
        },
        {
          "indexed": false,
          "internalType": "uint256",
          "name": "gameId",
          "type": "uint256"
        },
        {
          "indexed": false,
          "internalType": "uint256",
          "name": "totalPayout",
          "type": "uint256"
        }
      ],
      "name": "LogGameBegin",
      "type": "event"
    },
    {
      "anonymous": false,
      "inputs": [
        {
          "indexed": true,
          "internalType": "address",
          "name": "player1",
          "type": "address"
        },
        {
          "indexed": false,
          "internalType": "uint256",
          "name": "wager",
          "type": "uint256"
        },
        {
          "indexed": false,
          "internalType": "uint256",
          "name": "gameId",
          "type": "uint256"
        }
      ],
      "name": "LogGameCreation",
      "type": "event"
    },
    {
      "anonymous": false,
      "inputs": [
        {
          "indexed": false,
          "internalType": "address",
          "name": "winner",
          "type": "address"
        },
        {
          "indexed": false,
          "internalType": "uint256",
          "name": "winningScore",
          "type": "uint256"
        },
        {
          "indexed": false,
          "internalType": "uint256",
          "name": "losingScore",
          "type": "uint256"
        }
      ],
      "name": "LogGameEnd",
      "type": "event"
    },
    {
      "anonymous": false,
      "inputs": [
        {
          "indexed": false,
          "internalType": "uint256",
          "name": "gameweek",
          "type": "uint256"
        },
        {
          "indexed": false,
          "internalType": "uint256",
          "name": "deadline",
          "type": "uint256"
        }
      ],
      "name": "LogNewGameweekBegin",
      "type": "event"
    },
    {
      "anonymous": false,
      "inputs": [
        {
          "indexed": false,
          "internalType": "string",
          "name": "message",
          "type": "string"
        }
      ],
      "name": "LogNewProvableQuery",
      "type": "event"
    },
    {
      "anonymous": false,
      "inputs": [
        {
          "indexed": false,
          "internalType": "address",
          "name": "winner",
          "type": "address"
        },
        {
          "indexed": false,
          "internalType": "uint256",
          "name": "balance",
          "type": "uint256"
        }
      ],
      "name": "LogPayoutSent",
      "type": "event"
    },
    {
      "anonymous": false,
      "inputs": [
        {
          "indexed": false,
          "internalType": "address",
          "name": "player1",
          "type": "address"
        },
        {
          "indexed": false,
          "internalType": "uint256",
          "name": "gameId",
          "type": "uint256"
        },
        {
          "indexed": false,
          "internalType": "bytes32",
          "name": "gkHash",
          "type": "bytes32"
        },
        {
          "indexed": false,
          "internalType": "bytes32",
          "name": "defHash",
          "type": "bytes32"
        },
        {
          "indexed": false,
          "internalType": "bytes32",
          "name": "midHash",
          "type": "bytes32"
        },
        {
          "indexed": false,
          "internalType": "bytes32",
          "name": "fwdHash",
          "type": "bytes32"
        }
      ],
      "name": "LogPlayer1TeamCommit",
      "type": "event"
    },
    {
      "anonymous": false,
      "inputs": [
        {
          "indexed": false,
          "internalType": "address",
          "name": "player2",
          "type": "address"
        },
        {
          "indexed": false,
          "internalType": "uint256",
          "name": "gameId",
          "type": "uint256"
        },
        {
          "indexed": false,
          "internalType": "bytes32",
          "name": "gkHash",
          "type": "bytes32"
        },
        {
          "indexed": false,
          "internalType": "bytes32",
          "name": "defHash",
          "type": "bytes32"
        },
        {
          "indexed": false,
          "internalType": "bytes32",
          "name": "midHash",
          "type": "bytes32"
        },
        {
          "indexed": false,
          "internalType": "bytes32",
          "name": "fwdHash",
          "type": "bytes32"
        }
      ],
      "name": "LogPlayer2TeamCommit",
      "type": "event"
    },
    {
      "anonymous": false,
      "inputs": [
        {
          "indexed": false,
          "internalType": "address",
          "name": "sender",
          "type": "address"
        },
        {
          "indexed": false,
          "internalType": "bytes",
          "name": "gkReveal",
          "type": "bytes"
        },
        {
          "indexed": false,
          "internalType": "bytes",
          "name": "defReveal",
          "type": "bytes"
        },
        {
          "indexed": false,
          "internalType": "bytes",
          "name": "midReveal",
          "type": "bytes"
        },
        {
          "indexed": false,
          "internalType": "bytes",
          "name": "fwdReveal",
          "type": "bytes"
        },
        {
          "indexed": false,
          "internalType": "bytes",
          "name": "salt",
          "type": "bytes"
        }
      ],
      "name": "LogTeamReveal",
      "type": "event"
    },
    {
      "payable": true,
      "stateMutability": "payable",
      "type": "fallback"
    },
    {
      "constant": false,
      "inputs": [
        {
          "internalType": "bytes32",
          "name": "_provableId",
          "type": "bytes32"
        },
        {
          "internalType": "string",
          "name": "_res",
          "type": "string"
        }
      ],
      "name": "__callback",
      "outputs": [],
      "payable": false,
      "stateMutability": "nonpayable",
      "type": "function"
    },
    {
      "constant": false,
      "inputs": [
        {
          "internalType": "bytes32",
          "name": "_myid",
          "type": "bytes32"
        },
        {
          "internalType": "string",
          "name": "_result",
          "type": "string"
        },
        {
          "internalType": "bytes",
          "name": "_proof",
          "type": "bytes"
        }
      ],
      "name": "__callback",
      "outputs": [],
      "payable": false,
      "stateMutability": "nonpayable",
      "type": "function"
    },
    {
      "constant": false,
      "inputs": [
        {
          "internalType": "uint256",
          "name": "_deadline",
          "type": "uint256"
        }
      ],
      "name": "incrementGameweek",
      "outputs": [],
      "payable": false,
      "stateMutability": "nonpayable",
      "type": "function"
    },
    {
      "constant": true,
      "inputs": [],
      "name": "isPaused",
      "outputs": [
        {
          "internalType": "bool",
          "name": "",
          "type": "bool"
        }
      ],
      "payable": false,
      "stateMutability": "view",
      "type": "function"
    },
    {
      "constant": true,
      "inputs": [],
      "name": "leagueManager",
      "outputs": [
        {
          "internalType": "address payable",
          "name": "",
          "type": "address"
        }
      ],
      "payable": false,
      "stateMutability": "view",
      "type": "function"
    },
    {
      "constant": true,
      "inputs": [],
      "name": "provableId",
      "outputs": [
        {
          "internalType": "bytes32",
          "name": "",
          "type": "bytes32"
        }
      ],
      "payable": false,
      "stateMutability": "view",
      "type": "function"
    },
    {
      "constant": false,
      "inputs": [],
      "name": "toggleContractPause",
      "outputs": [],
      "payable": false,
      "stateMutability": "nonpayable",
      "type": "function"
    },
    {
      "constant": false,
      "inputs": [],
      "name": "toggleDeadlinePassed",
      "outputs": [],
      "payable": true,
      "stateMutability": "payable",
      "type": "function"
    },
    {
      "constant": true,
      "inputs": [],
      "name": "viewDeadlineStatus",
      "outputs": [
        {
          "internalType": "uint256",
          "name": "_deadline",
          "type": "uint256"
        },
        {
          "internalType": "bool",
          "name": "_deadlinePassed",
          "type": "bool"
        }
      ],
      "payable": false,
      "stateMutability": "view",
      "type": "function"
    },
    {
      "constant": false,
      "inputs": [],
      "name": "withdrawRefund",
      "outputs": [],
      "payable": false,
      "stateMutability": "nonpayable",
      "type": "function"
    },
    {
      "constant": false,
      "inputs": [
        {
          "internalType": "uint256",
          "name": "gameId",
          "type": "uint256"
        }
      ],
      "name": "withdrawPayout",
      "outputs": [],
      "payable": false,
      "stateMutability": "nonpayable",
      "type": "function"
    },
    {
      "constant": false,
      "inputs": [],
      "name": "withdrawFunds",
      "outputs": [],
      "payable": false,
      "stateMutability": "nonpayable",
      "type": "function"
    },
    {
      "constant": true,
      "inputs": [
        {
          "internalType": "uint256",
          "name": "gameId",
          "type": "uint256"
        }
      ],
      "name": "viewGameDetails",
      "outputs": [
        {
          "internalType": "address",
          "name": "player1",
          "type": "address"
        },
        {
          "internalType": "address",
          "name": "player2",
          "type": "address"
        },
        {
          "internalType": "uint256",
          "name": "wager",
          "type": "uint256"
        },
        {
          "internalType": "bool",
          "name": "isOpen",
          "type": "bool"
        },
        {
          "internalType": "bool",
          "name": "isFinished",
          "type": "bool"
        }
      ],
      "payable": false,
      "stateMutability": "view",
      "type": "function"
    },
    {
      "constant": false,
      "inputs": [
        {
          "internalType": "uint256",
          "name": "wager",
          "type": "uint256"
        }
      ],
      "name": "createGame",
      "outputs": [
        {
          "internalType": "uint256",
          "name": "",
          "type": "uint256"
        }
      ],
      "payable": true,
      "stateMutability": "payable",
      "type": "function"
    },
    {
      "constant": false,
      "inputs": [
        {
          "internalType": "uint256",
          "name": "gameId",
          "type": "uint256"
        }
      ],
      "name": "joinGame",
      "outputs": [
        {
          "internalType": "uint256",
          "name": "",
          "type": "uint256"
        }
      ],
      "payable": true,
      "stateMutability": "payable",
      "type": "function"
    },
    {
      "constant": true,
      "inputs": [],
      "name": "totalGames",
      "outputs": [
        {
          "internalType": "uint256",
          "name": "",
          "type": "uint256"
        }
      ],
      "payable": false,
      "stateMutability": "view",
      "type": "function"
    },
    {
      "constant": false,
      "inputs": [
        {
          "internalType": "bytes32",
          "name": "gkHash",
          "type": "bytes32"
        },
        {
          "internalType": "bytes32",
          "name": "defHash",
          "type": "bytes32"
        },
        {
          "internalType": "bytes32",
          "name": "midHash",
          "type": "bytes32"
        },
        {
          "internalType": "bytes32",
          "name": "fwdHash",
          "type": "bytes32"
        },
        {
          "internalType": "uint256",
          "name": "gameId",
          "type": "uint256"
        }
      ],
      "name": "commitTeam",
      "outputs": [],
      "payable": false,
      "stateMutability": "nonpayable",
      "type": "function"
    },
    {
      "constant": true,
      "inputs": [
        {
          "internalType": "bytes",
          "name": "data",
          "type": "bytes"
        },
        {
          "internalType": "bytes",
          "name": "salt",
          "type": "bytes"
        }
      ],
      "name": "getSaltedHash",
      "outputs": [
        {
          "internalType": "bytes32",
          "name": "",
          "type": "bytes32"
        }
      ],
      "payable": false,
      "stateMutability": "view",
      "type": "function"
    },
    {
      "constant": false,
      "inputs": [
        {
          "internalType": "bytes",
          "name": "gkReveal",
          "type": "bytes"
        },
        {
          "internalType": "bytes",
          "name": "defReveal",
          "type": "bytes"
        },
        {
          "internalType": "bytes",
          "name": "midReveal",
          "type": "bytes"
        },
        {
          "internalType": "bytes",
          "name": "fwdReveal",
          "type": "bytes"
        },
        {
          "internalType": "uint256",
          "name": "gameId",
          "type": "uint256"
        },
        {
          "internalType": "bytes",
          "name": "salt",
          "type": "bytes"
        },
        {
          "internalType": "uint256",
          "name": "totalScore",
          "type": "uint256"
        }
      ],
      "name": "revealTeam",
      "outputs": [],
      "payable": false,
      "stateMutability": "nonpayable",
      "type": "function"
    },
    {
      "constant": true,
      "inputs": [
        {
          "internalType": "uint256",
          "name": "gameId",
          "type": "uint256"
        },
        {
          "internalType": "address",
          "name": "player",
          "type": "address"
        }
      ],
      "name": "getTeamCommitForGame",
      "outputs": [
        {
          "internalType": "bytes32[4]",
          "name": "commits",
          "type": "bytes32[4]"
        }
      ],
      "payable": false,
      "stateMutability": "view",
      "type": "function"
    },
    {
      "constant": true,
      "inputs": [
        {
          "internalType": "uint256",
          "name": "gameId",
          "type": "uint256"
        },
        {
          "internalType": "address",
          "name": "player",
          "type": "address"
        }
      ],
      "name": "teamRevealed",
      "outputs": [
        {
          "internalType": "bool",
          "name": "",
          "type": "bool"
        }
      ],
      "payable": false,
      "stateMutability": "view",
      "type": "function"
    },
    {
      "constant": true,
      "inputs": [
        {
          "internalType": "uint256",
          "name": "gameId",
          "type": "uint256"
        },
        {
          "internalType": "address",
          "name": "player",
          "type": "address"
        }
      ],
      "name": "viewPlayerScore",
      "outputs": [
        {
          "internalType": "uint256",
          "name": "",
          "type": "uint256"
        }
      ],
      "payable": false,
      "stateMutability": "view",
      "type": "function"
    },
    {
      "constant": true,
      "inputs": [
        {
          "internalType": "uint256",
          "name": "gameId",
          "type": "uint256"
        }
      ],
      "name": "viewWinner",
      "outputs": [
        {
          "internalType": "address",
          "name": "winner",
          "type": "address"
        }
      ],
      "payable": false,
      "stateMutability": "view",
      "type": "function"
    }
  ],
  "bytecode": "0x60806040526000600760006101000a81548160ff0219169083151502179055506000600955635d4db4a0600a556000600b60006101000a81548160ff0219169083151502179055503480156200005457600080fd5b5060405162005a7b38038062005a7b833981810160405260208110156200007a57600080fd5b810190808051906020019092919050505033600560006101000a81548173ffffffffffffffffffffffffffffffffffffffff021916908373ffffffffffffffffffffffffffffffffffffffff160217905550806008819055506000600c819055505061598f80620000ec6000396000f3fe6080604052600436106101405760003560e01c80635dd437c0116100b6578063bce1dd241161006f578063bce1dd2414610a91578063df6fab6114610ae8578063ea93ae4114610b7f578063efaa55a014610bba578063f45d030c14610bfc578063fc1d635414610d6f57610140565b80635dd437c0146109135780636b2ece281461097657806386f9c864146109e55780639cf262b5146109fc578063b187bd2614610a27578063b21c793514610a5657610140565b806327dc297e1161010857806327dc297e146102685780632c4e591b1461033a57806338bbfa501461036557806348e837b9146104ce5780635692722f14610510578063590659dd146105db57610140565b8063097b6c2514610142578063110f8874146101b55780631f197a73146101cc57806324600fc3146102475780632575d0c71461025e575b005b34801561014e57600080fd5b5061019b6004803603604081101561016557600080fd5b8101908080359060200190929190803573ffffffffffffffffffffffffffffffffffffffff169060200190929190505050610da5565b604051808215151515815260200191505060405180910390f35b3480156101c157600080fd5b506101ca611092565b005b3480156101d857600080fd5b50610205600480360360208110156101ef57600080fd5b8101908080359060200190929190505050611165565b604051808273ffffffffffffffffffffffffffffffffffffffff1673ffffffffffffffffffffffffffffffffffffffff16815260200191505060405180910390f35b34801561025357600080fd5b5061025c6112c2565b005b6102666113b7565b005b34801561027457600080fd5b506103386004803603604081101561028b57600080fd5b8101908080359060200190929190803590602001906401000000008111156102b257600080fd5b8201836020820111156102c457600080fd5b803590602001918460018302840111640100000000831117156102e657600080fd5b91908080601f016020809104026020016040519081016040528093929190818152602001838380828437600081840152601f19601f82011690508083019250505050505050919291929050505061159d565b005b34801561034657600080fd5b5061034f611670565b6040518082815260200191505060405180910390f35b34801561037157600080fd5b506104cc6004803603606081101561038857600080fd5b8101908080359060200190929190803590602001906401000000008111156103af57600080fd5b8201836020820111156103c157600080fd5b803590602001918460018302840111640100000000831117156103e357600080fd5b91908080601f016020809104026020016040519081016040528093929190818152602001838380828437600081840152601f19601f8201169050808301925050505050505091929192908035906020019064010000000081111561044657600080fd5b82018360208201111561045857600080fd5b8035906020019184600183028401116401000000008311171561047a57600080fd5b91908080601f016020809104026020016040519081016040528093929190818152602001838380828437600081840152601f19601f82011690508083019250505050505050919291929050505061167a565b005b6104fa600480360360208110156104e457600080fd5b810190808035906020019092919050505061169d565b6040518082815260200191505060405180910390f35b34801561051c57600080fd5b506105496004803603602081101561053357600080fd5b8101908080359060200190929190505050611c38565b604051808673ffffffffffffffffffffffffffffffffffffffff1673ffffffffffffffffffffffffffffffffffffffff1681526020018573ffffffffffffffffffffffffffffffffffffffff1673ffffffffffffffffffffffffffffffffffffffff16815260200184815260200183151515158152602001821515151581526020019550505050505060405180910390f35b3480156105e757600080fd5b50610911600480360360e08110156105fe57600080fd5b810190808035906020019064010000000081111561061b57600080fd5b82018360208201111561062d57600080fd5b8035906020019184600183028401116401000000008311171561064f57600080fd5b91908080601f016020809104026020016040519081016040528093929190818152602001838380828437600081840152601f19601f820116905080830192505050505050509192919290803590602001906401000000008111156106b257600080fd5b8201836020820111156106c457600080fd5b803590602001918460018302840111640100000000831117156106e657600080fd5b91908080601f016020809104026020016040519081016040528093929190818152602001838380828437600081840152601f19601f8201169050808301925050505050505091929192908035906020019064010000000081111561074957600080fd5b82018360208201111561075b57600080fd5b8035906020019184600183028401116401000000008311171561077d57600080fd5b91908080601f016020809104026020016040519081016040528093929190818152602001838380828437600081840152601f19601f820116905080830192505050505050509192919290803590602001906401000000008111156107e057600080fd5b8201836020820111156107f257600080fd5b8035906020019184600183028401116401000000008311171561081457600080fd5b91908080601f016020809104026020016040519081016040528093929190818152602001838380828437600081840152601f19601f820116905080830192505050505050509192919290803590602001909291908035906020019064010000000081111561088157600080fd5b82018360208201111561089357600080fd5b803590602001918460018302840111640100000000831117156108b557600080fd5b91908080601f016020809104026020016040519081016040528093929190818152602001838380828437600081840152601f19601f82011690508083019250505050505050919291929080359060200190929190505050611d26565b005b34801561091f57600080fd5b50610974600480360360a081101561093657600080fd5b81019080803590602001909291908035906020019092919080359060200190929190803590602001909291908035906020019092919050505061288d565b005b34801561098257600080fd5b506109cf6004803603604081101561099957600080fd5b8101908080359060200190929190803573ffffffffffffffffffffffffffffffffffffffff169060200190929190505050612fdb565b6040518082815260200191505060405180910390f35b3480156109f157600080fd5b506109fa61323d565b005b348015610a0857600080fd5b50610a1161330f565b6040518082815260200191505060405180910390f35b348015610a3357600080fd5b50610a3c613315565b604051808215151515815260200191505060405180910390f35b348015610a6257600080fd5b50610a8f60048036036020811015610a7957600080fd5b810190808035906020019092919050505061332c565b005b348015610a9d57600080fd5b50610aa6613880565b604051808273ffffffffffffffffffffffffffffffffffffffff1673ffffffffffffffffffffffffffffffffffffffff16815260200191505060405180910390f35b348015610af457600080fd5b50610b4160048036036040811015610b0b57600080fd5b8101908080359060200190929190803573ffffffffffffffffffffffffffffffffffffffff1690602001909291905050506138a6565b6040518082600460200280838360005b83811015610b6c578082015181840152602081019050610b51565b5050505090500191505060405180910390f35b348015610b8b57600080fd5b50610bb860048036036020811015610ba257600080fd5b8101908080359060200190929190505050613a3b565b005b610be660048036036020811015610bd057600080fd5b8101908080359060200190929190505050613b5a565b6040518082815260200191505060405180910390f35b348015610c0857600080fd5b50610d5960048036036040811015610c1f57600080fd5b8101908080359060200190640100000000811115610c3c57600080fd5b820183602082011115610c4e57600080fd5b80359060200191846001830284011164010000000083111715610c7057600080fd5b91908080601f016020809104026020016040519081016040528093929190818152602001838380828437600081840152601f19601f82011690508083019250505050505050919291929080359060200190640100000000811115610cd357600080fd5b820183602082011115610ce557600080fd5b80359060200191846001830284011164010000000083111715610d0757600080fd5b91908080601f016020809104026020016040519081016040528093929190818152602001838380828437600081840152601f19601f82011690508083019250505050505050919291929050505061412d565b6040518082815260200191505060405180910390f35b348015610d7b57600080fd5b50610d84614233565b60405180838152602001821515151581526020019250505060405180910390f35b60008282600d600083815260200190815260200160002060010160009054906101000a900473ffffffffffffffffffffffffffffffffffffffff1673ffffffffffffffffffffffffffffffffffffffff168173ffffffffffffffffffffffffffffffffffffffff161480610e7a5750600d600083815260200190815260200160002060020160009054906101000a900473ffffffffffffffffffffffffffffffffffffffff1673ffffffffffffffffffffffffffffffffffffffff168173ffffffffffffffffffffffffffffffffffffffff16145b610eec576040517f08c379a00000000000000000000000000000000000000000000000000000000081526004018080602001828103825260168152602001807f496e76616c696420706c6179657220616464726573730000000000000000000081525060200191505060405180910390fd5b601260008573ffffffffffffffffffffffffffffffffffffffff1673ffffffffffffffffffffffffffffffffffffffff168152602001908152602001600020600086815260200190815260200160002060010160089054906101000a900460ff168015610fb65750601360008573ffffffffffffffffffffffffffffffffffffffff1673ffffffffffffffffffffffffffffffffffffffff168152602001908152602001600020600086815260200190815260200160002060010160089054906101000a900460ff165b801561101f5750601460008573ffffffffffffffffffffffffffffffffffffffff1673ffffffffffffffffffffffffffffffffffffffff168152602001908152602001600020600086815260200190815260200160002060010160089054906101000a900460ff165b80156110885750601560008573ffffffffffffffffffffffffffffffffffffffff1673ffffffffffffffffffffffffffffffffffffffff168152602001908152602001600020600086815260200190815260200160002060010160089054906101000a900460ff165b9250505092915050565b6000600f60003373ffffffffffffffffffffffffffffffffffffffff1673ffffffffffffffffffffffffffffffffffffffff1681526020019081526020016000205490506000600f60003373ffffffffffffffffffffffffffffffffffffffff1673ffffffffffffffffffffffffffffffffffffffff168152602001908152602001600020819055503373ffffffffffffffffffffffffffffffffffffffff166108fc829081150290604051600060405180830381858888f19350505050158015611161573d6000803e3d6000fd5b5050565b60008160011515600d600083815260200190815260200160002060050160029054906101000a900460ff1615151480156111c6575060011515600d600083815260200190815260200160002060050160039054906101000a900460ff161515145b61121b576040517f08c379a00000000000000000000000000000000000000000000000000000000081526004018080602001828103825260368152602001806158906036913960400191505060405180910390fd5b600d600084815260200190815260200160002060050160049054906101000a900460ff161561128257600d600084815260200190815260200160002060010160009054906101000a900473ffffffffffffffffffffffffffffffffffffffff1691506112bc565b600d600084815260200190815260200160002060020160009054906101000a900473ffffffffffffffffffffffffffffffffffffffff1691505b50919050565b600560009054906101000a900473ffffffffffffffffffffffffffffffffffffffff1673ffffffffffffffffffffffffffffffffffffffff163373ffffffffffffffffffffffffffffffffffffffff1614611368576040517f08c379a000000000000000000000000000000000000000000000000000000000815260040180806020018281038252602f81526020018061592c602f913960400191505060405180910390fd5b60004790503373ffffffffffffffffffffffffffffffffffffffff166108fc829081150290604051600060405180830381858888f193505050501580156113b3573d6000803e3d6000fd5b5050565b600560009054906101000a900473ffffffffffffffffffffffffffffffffffffffff1673ffffffffffffffffffffffffffffffffffffffff163373ffffffffffffffffffffffffffffffffffffffff161461145d576040517f08c379a000000000000000000000000000000000000000000000000000000000815260040180806020018281038252602f81526020018061592c602f913960400191505060405180910390fd5b4761149c6040518060400160405280600381526020017f55524c0000000000000000000000000000000000000000000000000000000000815250614251565b11156114f2577fc4dc360d0a9c0677a3379ae0a3d81e887f761e65fdf3d7e00859d1bcd3c4738960405180806020018281038252602e815260200180615841602e913960400191505060405180910390a161159b565b7fc4dc360d0a9c0677a3379ae0a3d81e887f761e65fdf3d7e00859d1bcd3c473896040518080602001828103825260278152602001806159056027913960400191505060405180910390a16115946040518060400160405280600381526020017f55524c0000000000000000000000000000000000000000000000000000000000815250604051806080016040528060418152602001615800604191396145e2565b6006819055505b565b6115a5614b28565b73ffffffffffffffffffffffffffffffffffffffff163373ffffffffffffffffffffffffffffffffffffffff16146115dc57600080fd5b60006115e782614e45565b9050600a5481111561160f576001600760006101000a81548160ff0219169083151502179055505b7f4c97b356a78d40593befa5f223e75b96e277f9b9214b77dd51c2b6898cb0ef9c600954600760009054906101000a900460ff16836040518084815260200183151515158152602001828152602001935050505060405180910390a1505050565b6000600c54905090565b6000801b600360008060001b815260200190815260200160002081905550505050565b6000600560009054906101000a900473ffffffffffffffffffffffffffffffffffffffff1673ffffffffffffffffffffffffffffffffffffffff163373ffffffffffffffffffffffffffffffffffffffff16148061173a57506003601060003373ffffffffffffffffffffffffffffffffffffffff1673ffffffffffffffffffffffffffffffffffffffff16815260200190815260200160002054105b61178f576040517f08c379a000000000000000000000000000000000000000000000000000000000815260040180806020018281038252602181526020018061586f6021913960400191505060405180910390fd5b600b60009054906101000a900460ff16156117f5576040517f08c379a00000000000000000000000000000000000000000000000000000000081526004018080602001828103825260348152602001806157cc6034913960400191505060405180910390fd5b81341461180157600080fd5b6000600c549050604051806101a001604052808481526020013373ffffffffffffffffffffffffffffffffffffffff168152602001600560009054906101000a900473ffffffffffffffffffffffffffffffffffffffff1673ffffffffffffffffffffffffffffffffffffffff168152602001600081526020016000815260200160001515815260200160001515815260200160001515815260200160001515815260200160001515815260200160001515815260200160011515815260200160001515815250600d6000600c5481526020019081526020016000206000820151816000015560208201518160010160006101000a81548173ffffffffffffffffffffffffffffffffffffffff021916908373ffffffffffffffffffffffffffffffffffffffff16021790555060408201518160020160006101000a81548173ffffffffffffffffffffffffffffffffffffffff021916908373ffffffffffffffffffffffffffffffffffffffff160217905550606082015181600301556080820151816004015560a08201518160050160006101000a81548160ff02191690831515021790555060c08201518160050160016101000a81548160ff02191690831515021790555060e08201518160050160026101000a81548160ff0219169083151502179055506101008201518160050160036101000a81548160ff0219169083151502179055506101208201518160050160046101000a81548160ff0219169083151502179055506101408201518160050160056101000a81548160ff0219169083151502179055506101608201518160050160066101000a81548160ff0219169083151502179055506101808201518160050160076101000a81548160ff0219169083151502179055509050506001600c6000828254019250508190555080601160003373ffffffffffffffffffffffffffffffffffffffff1673ffffffffffffffffffffffffffffffffffffffff1681526020019081526020016000206000601060003373ffffffffffffffffffffffffffffffffffffffff1673ffffffffffffffffffffffffffffffffffffffff168152602001908152602001600020548152602001908152602001600020819055506001601060003373ffffffffffffffffffffffffffffffffffffffff1673ffffffffffffffffffffffffffffffffffffffff168152602001908152602001600020600082825401925050819055506000833403905080600f60003373ffffffffffffffffffffffffffffffffffffffff1673ffffffffffffffffffffffffffffffffffffffff168152602001908152602001600020600082825401925050819055503373ffffffffffffffffffffffffffffffffffffffff167f4312afb69a90bdbc921f5d67a7f007d55d959082541229557a6575b8908380578584604051808381526020018281526020019250505060405180910390a28192505050919050565b6000806000806000600d600087815260200190815260200160002060010160009054906101000a900473ffffffffffffffffffffffffffffffffffffffff16600d600088815260200190815260200160002060020160009054906101000a900473ffffffffffffffffffffffffffffffffffffffff16600d600089815260200190815260200160002060000154600d60008a815260200190815260200160002060050160069054906101000a900460ff16600d60008b815260200190815260200160002060050160079054906101000a900460ff168494508393509450945094509450945091939590929450565b8233600d600083815260200190815260200160002060010160009054906101000a900473ffffffffffffffffffffffffffffffffffffffff1673ffffffffffffffffffffffffffffffffffffffff168173ffffffffffffffffffffffffffffffffffffffff161480611df95750600d600083815260200190815260200160002060020160009054906101000a900473ffffffffffffffffffffffffffffffffffffffff1673ffffffffffffffffffffffffffffffffffffffff168173ffffffffffffffffffffffffffffffffffffffff16145b611e6b576040517f08c379a00000000000000000000000000000000000000000000000000000000081526004018080602001828103825260168152602001807f496e76616c696420706c6179657220616464726573730000000000000000000081525060200191505060405180910390fd5b600b60009054906101000a900460ff1615611ed1576040517f08c379a00000000000000000000000000000000000000000000000000000000081526004018080602001828103825260348152602001806157cc6034913960400191505060405180910390fd5b60001515601260003373ffffffffffffffffffffffffffffffffffffffff1673ffffffffffffffffffffffffffffffffffffffff168152602001908152602001600020600087815260200190815260200160002060010160089054906101000a900460ff161515148015611fa9575060001515601360003373ffffffffffffffffffffffffffffffffffffffff1673ffffffffffffffffffffffffffffffffffffffff168152602001908152602001600020600087815260200190815260200160002060010160089054906101000a900460ff161515145b8015612019575060001515601460003373ffffffffffffffffffffffffffffffffffffffff1673ffffffffffffffffffffffffffffffffffffffff168152602001908152602001600020600087815260200190815260200160002060010160089054906101000a900460ff161515145b8015612089575060001515601560003373ffffffffffffffffffffffffffffffffffffffff1673ffffffffffffffffffffffffffffffffffffffff168152602001908152602001600020600087815260200190815260200160002060010160089054906101000a900460ff161515145b6120fb576040517f08c379a000000000000000000000000000000000000000000000000000000000815260040180806020018281038252601e8152602001807f5465616d2068617320616c7265616479206265656e2072657665616c6564000081525060200191505060405180910390fd5b601260003373ffffffffffffffffffffffffffffffffffffffff1673ffffffffffffffffffffffffffffffffffffffff1681526020019081526020016000206000868152602001908152602001600020600001546121598a8661412d565b1480156121c15750601360003373ffffffffffffffffffffffffffffffffffffffff1673ffffffffffffffffffffffffffffffffffffffff1681526020019081526020016000206000868152602001908152602001600020600001546121bf898661412d565b145b80156122285750601460003373ffffffffffffffffffffffffffffffffffffffff1673ffffffffffffffffffffffffffffffffffffffff168152602001908152602001600020600086815260200190815260200160002060000154612226888661412d565b145b801561228f5750601560003373ffffffffffffffffffffffffffffffffffffffff1673ffffffffffffffffffffffffffffffffffffffff16815260200190815260200160002060008681526020019081526020016000206000015461228d878661412d565b145b6122e4576040517f08c379a00000000000000000000000000000000000000000000000000000000081526004018080602001828103825260238152602001806157a96023913960400191505060405180910390fd5b6001601260003373ffffffffffffffffffffffffffffffffffffffff1673ffffffffffffffffffffffffffffffffffffffff168152602001908152602001600020600087815260200190815260200160002060010160086101000a81548160ff0219169083151502179055506001601360003373ffffffffffffffffffffffffffffffffffffffff1673ffffffffffffffffffffffffffffffffffffffff168152602001908152602001600020600087815260200190815260200160002060010160086101000a81548160ff0219169083151502179055506001601460003373ffffffffffffffffffffffffffffffffffffffff1673ffffffffffffffffffffffffffffffffffffffff168152602001908152602001600020600087815260200190815260200160002060010160086101000a81548160ff0219169083151502179055506001601560003373ffffffffffffffffffffffffffffffffffffffff1673ffffffffffffffffffffffffffffffffffffffff168152602001908152602001600020600087815260200190815260200160002060010160086101000a81548160ff021916908315150217905550600d600086815260200190815260200160002060010160009054906101000a900473ffffffffffffffffffffffffffffffffffffffff1673ffffffffffffffffffffffffffffffffffffffff163373ffffffffffffffffffffffffffffffffffffffff1614156125805782600d6000878152602001908152602001600020600301819055506001600d600087815260200190815260200160002060050160026101000a81548160ff021916908315150217905550600d600086815260200190815260200160002060050160039054906101000a900460ff161561257b5761257a85614e59565b5b6125fe565b82600d6000878152602001908152602001600020600401819055506001600d600087815260200190815260200160002060050160036101000a81548160ff021916908315150217905550600d600086815260200190815260200160002060050160029054906101000a900460ff16156125fd576125fc85614e59565b5b5b7f8fe4278893ad83d3998f488629a6b65c81a06d8065be139b9a872eb73a2ebe72338a8a8a8a89604051808773ffffffffffffffffffffffffffffffffffffffff1673ffffffffffffffffffffffffffffffffffffffff168152602001806020018060200180602001806020018060200186810386528b818151815260200191508051906020019080838360005b838110156126a757808201518184015260208101905061268c565b50505050905090810190601f1680156126d45780820380516001836020036101000a031916815260200191505b5086810385528a818151815260200191508051906020019080838360005b8381101561270d5780820151818401526020810190506126f2565b50505050905090810190601f16801561273a5780820380516001836020036101000a031916815260200191505b50868103845289818151815260200191508051906020019080838360005b83811015612773578082015181840152602081019050612758565b50505050905090810190601f1680156127a05780820380516001836020036101000a031916815260200191505b50868103835288818151815260200191508051906020019080838360005b838110156127d95780820151818401526020810190506127be565b50505050905090810190601f1680156128065780820380516001836020036101000a031916815260200191505b50868103825287818151815260200191508051906020019080838360005b8381101561283f578082015181840152602081019050612824565b50505050905090810190601f16801561286c5780820380516001836020036101000a031916815260200191505b509b50505050505050505050505060405180910390a1505050505050505050565b8033600d600083815260200190815260200160002060010160009054906101000a900473ffffffffffffffffffffffffffffffffffffffff1673ffffffffffffffffffffffffffffffffffffffff168173ffffffffffffffffffffffffffffffffffffffff1614806129605750600d600083815260200190815260200160002060020160009054906101000a900473ffffffffffffffffffffffffffffffffffffffff1673ffffffffffffffffffffffffffffffffffffffff168173ffffffffffffffffffffffffffffffffffffffff16145b6129d2576040517f08c379a00000000000000000000000000000000000000000000000000000000081526004018080602001828103825260168152602001807f496e76616c696420706c6179657220616464726573730000000000000000000081525060200191505060405180910390fd5b600b60009054906101000a900460ff1615612a38576040517f08c379a00000000000000000000000000000000000000000000000000000000081526004018080602001828103825260348152602001806157cc6034913960400191505060405180910390fd5b600760009054906101000a900460ff1615612a9e576040517f08c379a000000000000000000000000000000000000000000000000000000000815260040180806020018281038252603f8152602001806158c6603f913960400191505060405180910390fd5b60405180606001604052808881526020014367ffffffffffffffff16815260200160001515815250601260003373ffffffffffffffffffffffffffffffffffffffff1673ffffffffffffffffffffffffffffffffffffffff16815260200190815260200160002060008581526020019081526020016000206000820151816000015560208201518160010160006101000a81548167ffffffffffffffff021916908367ffffffffffffffff16021790555060408201518160010160086101000a81548160ff02191690831515021790555090505060405180606001604052808781526020014367ffffffffffffffff16815260200160001515815250601360003373ffffffffffffffffffffffffffffffffffffffff1673ffffffffffffffffffffffffffffffffffffffff16815260200190815260200160002060008581526020019081526020016000206000820151816000015560208201518160010160006101000a81548167ffffffffffffffff021916908367ffffffffffffffff16021790555060408201518160010160086101000a81548160ff02191690831515021790555090505060405180606001604052808681526020014367ffffffffffffffff16815260200160001515815250601460003373ffffffffffffffffffffffffffffffffffffffff1673ffffffffffffffffffffffffffffffffffffffff16815260200190815260200160002060008581526020019081526020016000206000820151816000015560208201518160010160006101000a81548167ffffffffffffffff021916908367ffffffffffffffff16021790555060408201518160010160086101000a81548160ff02191690831515021790555090505060405180606001604052808581526020014367ffffffffffffffff16815260200160001515815250601560003373ffffffffffffffffffffffffffffffffffffffff1673ffffffffffffffffffffffffffffffffffffffff16815260200190815260200160002060008581526020019081526020016000206000820151816000015560208201518160010160006101000a81548167ffffffffffffffff021916908367ffffffffffffffff16021790555060408201518160010160086101000a81548160ff021916908315150217905550905050600d600084815260200190815260200160002060010160009054906101000a900473ffffffffffffffffffffffffffffffffffffffff1673ffffffffffffffffffffffffffffffffffffffff163373ffffffffffffffffffffffffffffffffffffffff161415612f17576001600d600085815260200190815260200160002060050160006101000a81548160ff0219169083151502179055507f5d0847c2e0be4a0b2d7891f71f4f38782e1240a49b09b55feb71aa82608f06fc338489898989604051808773ffffffffffffffffffffffffffffffffffffffff1673ffffffffffffffffffffffffffffffffffffffff168152602001868152602001858152602001848152602001838152602001828152602001965050505050505060405180910390a1612fd2565b6001600d600085815260200190815260200160002060050160016101000a81548160ff0219169083151502179055507f2da462c05cf06248c04502173e1a2b68e4c165358bcd93b79438582f179cc90b338489898989604051808773ffffffffffffffffffffffffffffffffffffffff1673ffffffffffffffffffffffffffffffffffffffff168152602001868152602001858152602001848152602001838152602001828152602001965050505050505060405180910390a15b50505050505050565b60008282600d600083815260200190815260200160002060010160009054906101000a900473ffffffffffffffffffffffffffffffffffffffff1673ffffffffffffffffffffffffffffffffffffffff168173ffffffffffffffffffffffffffffffffffffffff1614806130b05750600d600083815260200190815260200160002060020160009054906101000a900473ffffffffffffffffffffffffffffffffffffffff1673ffffffffffffffffffffffffffffffffffffffff168173ffffffffffffffffffffffffffffffffffffffff16145b613122576040517f08c379a00000000000000000000000000000000000000000000000000000000081526004018080602001828103825260168152602001807f496e76616c696420706c6179657220616464726573730000000000000000000081525060200191505060405180910390fd5b60011515601260008673ffffffffffffffffffffffffffffffffffffffff1673ffffffffffffffffffffffffffffffffffffffff168152602001908152602001600020600087815260200190815260200160002060010160089054906101000a900460ff1615151461319357600080fd5b8373ffffffffffffffffffffffffffffffffffffffff16600d600087815260200190815260200160002060010160009054906101000a900473ffffffffffffffffffffffffffffffffffffffff1673ffffffffffffffffffffffffffffffffffffffff16141561321b57600d6000868152602001908152602001600020600301549250613235565b600d60008681526020019081526020016000206004015492505b505092915050565b600560009054906101000a900473ffffffffffffffffffffffffffffffffffffffff1673ffffffffffffffffffffffffffffffffffffffff163373ffffffffffffffffffffffffffffffffffffffff16146132e3576040517f08c379a000000000000000000000000000000000000000000000000000000000815260040180806020018281038252602f81526020018061592c602f913960400191505060405180910390fd5b600b60009054906101000a900460ff1615600b60006101000a81548160ff021916908315150217905550565b60065481565b6000600b60009054906101000a900460ff16905090565b80600d600082815260200190815260200160002060010160009054906101000a900473ffffffffffffffffffffffffffffffffffffffff1673ffffffffffffffffffffffffffffffffffffffff163373ffffffffffffffffffffffffffffffffffffffff161480156133be5750600d600082815260200190815260200160002060050160049054906101000a900460ff165b806134565750600d600082815260200190815260200160002060020160009054906101000a900473ffffffffffffffffffffffffffffffffffffffff1673ffffffffffffffffffffffffffffffffffffffff163373ffffffffffffffffffffffffffffffffffffffff161480156134555750600d600082815260200190815260200160002060050160059054906101000a900460ff165b5b61345f57600080fd5b6000600e60008481526020019081526020016000205490506000600e6000858152602001908152602001600020819055506001600d600085815260200190815260200160002060050160076101000a81548160ff021916908315150217905550600060116000600d600087815260200190815260200160002060010160009054906101000a900473ffffffffffffffffffffffffffffffffffffffff1673ffffffffffffffffffffffffffffffffffffffff1673ffffffffffffffffffffffffffffffffffffffff168152602001908152602001600020600060106000600d600089815260200190815260200160002060010160009054906101000a900473ffffffffffffffffffffffffffffffffffffffff1673ffffffffffffffffffffffffffffffffffffffff1673ffffffffffffffffffffffffffffffffffffffff16815260200190815260200160002054815260200190815260200160002081905550600060116000600d600087815260200190815260200160002060020160009054906101000a900473ffffffffffffffffffffffffffffffffffffffff1673ffffffffffffffffffffffffffffffffffffffff1673ffffffffffffffffffffffffffffffffffffffff168152602001908152602001600020600060106000600d600089815260200190815260200160002060020160009054906101000a900473ffffffffffffffffffffffffffffffffffffffff1673ffffffffffffffffffffffffffffffffffffffff1673ffffffffffffffffffffffffffffffffffffffff16815260200190815260200160002054815260200190815260200160002081905550600160106000600d600087815260200190815260200160002060010160009054906101000a900473ffffffffffffffffffffffffffffffffffffffff1673ffffffffffffffffffffffffffffffffffffffff1673ffffffffffffffffffffffffffffffffffffffff16815260200190815260200160002060008282540392505081905550600160106000600d600087815260200190815260200160002060020160009054906101000a900473ffffffffffffffffffffffffffffffffffffffff1673ffffffffffffffffffffffffffffffffffffffff1673ffffffffffffffffffffffffffffffffffffffff168152602001908152602001600020600082825403925050819055503373ffffffffffffffffffffffffffffffffffffffff166108fc829081150290604051600060405180830381858888f1935050505015801561380f573d6000803e3d6000fd5b507f598b937c5ae870243cb17b7777f106fb0688cf08cdcee299bf32badb25c62a6e3382604051808373ffffffffffffffffffffffffffffffffffffffff1673ffffffffffffffffffffffffffffffffffffffff1681526020018281526020019250505060405180910390a1505050565b600560009054906101000a900473ffffffffffffffffffffffffffffffffffffffff1681565b6138ae6156e1565b6000601260008473ffffffffffffffffffffffffffffffffffffffff1673ffffffffffffffffffffffffffffffffffffffff16815260200190815260200160002060008581526020019081526020016000206000015490506000601360008573ffffffffffffffffffffffffffffffffffffffff1673ffffffffffffffffffffffffffffffffffffffff16815260200190815260200160002060008681526020019081526020016000206000015490506000601460008673ffffffffffffffffffffffffffffffffffffffff1673ffffffffffffffffffffffffffffffffffffffff16815260200190815260200160002060008781526020019081526020016000206000015490506000601560008773ffffffffffffffffffffffffffffffffffffffff1673ffffffffffffffffffffffffffffffffffffffff168152602001908152602001600020600088815260200190815260200160002060000154905060405180608001604052808581526020018481526020018381526020018281525094505050505092915050565b600560009054906101000a900473ffffffffffffffffffffffffffffffffffffffff1673ffffffffffffffffffffffffffffffffffffffff163373ffffffffffffffffffffffffffffffffffffffff1614613ae1576040517f08c379a000000000000000000000000000000000000000000000000000000000815260040180806020018281038252602f81526020018061592c602f913960400191505060405180910390fd5b600160096000828254019250508190555080600a819055506000600760006101000a81548160ff0219169083151502179055507fa21c7a9265c04997aa5d2437820f73de709c1520d918243528537c2c41db3561600954600a54604051808381526020018281526020019250505060405180910390a150565b600081600d600082815260200190815260200160002060050160069054906101000a900460ff16613bf3576040517f08c379a000000000000000000000000000000000000000000000000000000000815260040180806020018281038252600e8152602001807f47616d6520697320636c6f73656400000000000000000000000000000000000081525060200191505060405180910390fd5b82600d600082815260200190815260200160002060000154341015613c80576040517f08c379a00000000000000000000000000000000000000000000000000000000081526004018080602001828103825260208152602001807f496e73756666696369656e742066756e64732073656e7420617320776167657281525060200191505060405180910390fd5b83600d600082815260200190815260200160002060010160009054906101000a900473ffffffffffffffffffffffffffffffffffffffff1673ffffffffffffffffffffffffffffffffffffffff163373ffffffffffffffffffffffffffffffffffffffff161415613d59576040517f08c379a00000000000000000000000000000000000000000000000000000000081526004018080602001828103825260208152602001807f506c617965722063616e2774206a6f696e207468656972206f776e2067616d6581525060200191505060405180910390fd5b84600560009054906101000a900473ffffffffffffffffffffffffffffffffffffffff1673ffffffffffffffffffffffffffffffffffffffff163373ffffffffffffffffffffffffffffffffffffffff161480613df557506003601060003373ffffffffffffffffffffffffffffffffffffffff1673ffffffffffffffffffffffffffffffffffffffff16815260200190815260200160002054105b613e4a576040517f08c379a000000000000000000000000000000000000000000000000000000000815260040180806020018281038252602181526020018061586f6021913960400191505060405180910390fd5b600b60009054906101000a900460ff1615613eb0576040517f08c379a00000000000000000000000000000000000000000000000000000000081526004018080602001828103825260348152602001806157cc6034913960400191505060405180910390fd5b33600d600088815260200190815260200160002060020160006101000a81548173ffffffffffffffffffffffffffffffffffffffff021916908373ffffffffffffffffffffffffffffffffffffffff1602179055506000600d600088815260200190815260200160002060050160066101000a81548160ff0219169083151502179055506002600d60008881526020019081526020016000206000015402600e60008881526020019081526020016000208190555085601160003373ffffffffffffffffffffffffffffffffffffffff1673ffffffffffffffffffffffffffffffffffffffff1681526020019081526020016000206000601060003373ffffffffffffffffffffffffffffffffffffffff1673ffffffffffffffffffffffffffffffffffffffff168152602001908152602001600020548152602001908152602001600020819055506001601060003373ffffffffffffffffffffffffffffffffffffffff1673ffffffffffffffffffffffffffffffffffffffff168152602001908152602001600020600082825401925050819055503373ffffffffffffffffffffffffffffffffffffffff167fc128984de6e48bf6fb89ce9269cf1b8b5726f0f84b60d59b55689025378418d087600e60008a815260200190815260200160002054604051808381526020018281526020019250505060405180910390a28594506000600d60008381526020019081526020016000206000015490506000813403905080600f60003373ffffffffffffffffffffffffffffffffffffffff1673ffffffffffffffffffffffffffffffffffffffff16815260200190815260200160002060008282540192505081905550505050505050919050565b6000308383604051602001808473ffffffffffffffffffffffffffffffffffffffff1673ffffffffffffffffffffffffffffffffffffffff1660601b815260140183805190602001908083835b6020831061419d578051825260208201915060208101905060208303925061417a565b6001836020036101000a03801982511681845116808217855250505050505090500182805190602001908083835b602083106141ee57805182526020820191506020810190506020830392506141cb565b6001836020036101000a038019825116818451168082178552505050505050905001935050505060405160208183030381529060405280519060200120905092915050565b600080600a54600760009054906101000a900460ff16915091509091565b60008073ffffffffffffffffffffffffffffffffffffffff16600160009054906101000a900473ffffffffffffffffffffffffffffffffffffffff1673ffffffffffffffffffffffffffffffffffffffff1614806142d9575060006142d7600160009054906101000a900473ffffffffffffffffffffffffffffffffffffffff16615041565b145b156142ea576142e8600061504c565b505b600160009054906101000a900473ffffffffffffffffffffffffffffffffffffffff1673ffffffffffffffffffffffffffffffffffffffff166338cc48316040518163ffffffff1660e01b8152600401602060405180830381600087803b15801561435457600080fd5b505af1158015614368573d6000803e3d6000fd5b505050506040513d602081101561437e57600080fd5b810190808051906020019092919050505073ffffffffffffffffffffffffffffffffffffffff166000809054906101000a900473ffffffffffffffffffffffffffffffffffffffff1673ffffffffffffffffffffffffffffffffffffffff16146144c757600160009054906101000a900473ffffffffffffffffffffffffffffffffffffffff1673ffffffffffffffffffffffffffffffffffffffff166338cc48316040518163ffffffff1660e01b8152600401602060405180830381600087803b15801561444c57600080fd5b505af1158015614460573d6000803e3d6000fd5b505050506040513d602081101561447657600080fd5b81019080805190602001909291905050506000806101000a81548173ffffffffffffffffffffffffffffffffffffffff021916908373ffffffffffffffffffffffffffffffffffffffff1602179055505b6000809054906101000a900473ffffffffffffffffffffffffffffffffffffffff1673ffffffffffffffffffffffffffffffffffffffff1663524f3889836040518263ffffffff1660e01b81526004018080602001828103825283818151815260200191508051906020019080838360005b83811015614554578082015181840152602081019050614539565b50505050905090810190601f1680156145815780820380516001836020036101000a031916815260200191505b5092505050602060405180830381600087803b1580156145a057600080fd5b505af11580156145b4573d6000803e3d6000fd5b505050506040513d60208110156145ca57600080fd5b81019080805190602001909291905050509050919050565b60008073ffffffffffffffffffffffffffffffffffffffff16600160009054906101000a900473ffffffffffffffffffffffffffffffffffffffff1673ffffffffffffffffffffffffffffffffffffffff16148061466a57506000614668600160009054906101000a900473ffffffffffffffffffffffffffffffffffffffff16615041565b145b1561467b57614679600061504c565b505b600160009054906101000a900473ffffffffffffffffffffffffffffffffffffffff1673ffffffffffffffffffffffffffffffffffffffff166338cc48316040518163ffffffff1660e01b8152600401602060405180830381600087803b1580156146e557600080fd5b505af11580156146f9573d6000803e3d6000fd5b505050506040513d602081101561470f57600080fd5b810190808051906020019092919050505073ffffffffffffffffffffffffffffffffffffffff166000809054906101000a900473ffffffffffffffffffffffffffffffffffffffff1673ffffffffffffffffffffffffffffffffffffffff161461485857600160009054906101000a900473ffffffffffffffffffffffffffffffffffffffff1673ffffffffffffffffffffffffffffffffffffffff166338cc48316040518163ffffffff1660e01b8152600401602060405180830381600087803b1580156147dd57600080fd5b505af11580156147f1573d6000803e3d6000fd5b505050506040513d602081101561480757600080fd5b81019080805190602001909291905050506000806101000a81548173ffffffffffffffffffffffffffffffffffffffff021916908373ffffffffffffffffffffffffffffffffffffffff1602179055505b60008060009054906101000a900473ffffffffffffffffffffffffffffffffffffffff1673ffffffffffffffffffffffffffffffffffffffff1663524f3889856040518263ffffffff1660e01b81526004018080602001828103825283818151815260200191508051906020019080838360005b838110156148e75780820151818401526020810190506148cc565b50505050905090810190601f1680156149145780820380516001836020036101000a031916815260200191505b5092505050602060405180830381600087803b15801561493357600080fd5b505af1158015614947573d6000803e3d6000fd5b505050506040513d602081101561495d57600080fd5b8101908080519060200190929190505050905062030d403a02670de0b6b3a764000001811115614993576000801b915050614b22565b6000809054906101000a900473ffffffffffffffffffffffffffffffffffffffff1673ffffffffffffffffffffffffffffffffffffffff1663adf59f9982600087876040518563ffffffff1660e01b8152600401808481526020018060200180602001838103835285818151815260200191508051906020019080838360005b83811015614a2e578082015181840152602081019050614a13565b50505050905090810190601f168015614a5b5780820380516001836020036101000a031916815260200191505b50838103825284818151815260200191508051906020019080838360005b83811015614a94578082015181840152602081019050614a79565b50505050905090810190601f168015614ac15780820380516001836020036101000a031916815260200191505b50955050505050506020604051808303818588803b158015614ae257600080fd5b505af1158015614af6573d6000803e3d6000fd5b50505050506040513d6020811015614b0d57600080fd5b81019080805190602001909291905050509150505b92915050565b60008073ffffffffffffffffffffffffffffffffffffffff16600160009054906101000a900473ffffffffffffffffffffffffffffffffffffffff1673ffffffffffffffffffffffffffffffffffffffff161480614bb057506000614bae600160009054906101000a900473ffffffffffffffffffffffffffffffffffffffff16615041565b145b15614bc157614bbf600061504c565b505b600160009054906101000a900473ffffffffffffffffffffffffffffffffffffffff1673ffffffffffffffffffffffffffffffffffffffff166338cc48316040518163ffffffff1660e01b8152600401602060405180830381600087803b158015614c2b57600080fd5b505af1158015614c3f573d6000803e3d6000fd5b505050506040513d6020811015614c5557600080fd5b810190808051906020019092919050505073ffffffffffffffffffffffffffffffffffffffff166000809054906101000a900473ffffffffffffffffffffffffffffffffffffffff1673ffffffffffffffffffffffffffffffffffffffff1614614d9e57600160009054906101000a900473ffffffffffffffffffffffffffffffffffffffff1673ffffffffffffffffffffffffffffffffffffffff166338cc48316040518163ffffffff1660e01b8152600401602060405180830381600087803b158015614d2357600080fd5b505af1158015614d37573d6000803e3d6000fd5b505050506040513d6020811015614d4d57600080fd5b81019080805190602001909291905050506000806101000a81548173ffffffffffffffffffffffffffffffffffffffff021916908373ffffffffffffffffffffffffffffffffffffffff1602179055505b6000809054906101000a900473ffffffffffffffffffffffffffffffffffffffff1673ffffffffffffffffffffffffffffffffffffffff1663c281d19e6040518163ffffffff1660e01b815260040160206040518083038186803b158015614e0557600080fd5b505afa158015614e19573d6000803e3d6000fd5b505050506040513d6020811015614e2f57600080fd5b8101908080519060200190929190505050905090565b6000614e5282600061505d565b9050919050565b8060011515600d600083815260200190815260200160002060050160029054906101000a900460ff161515148015614eb8575060011515600d600083815260200190815260200160002060050160039054906101000a900460ff161515145b614f0d576040517f08c379a00000000000000000000000000000000000000000000000000000000081526004018080602001828103825260368152602001806158906036913960400191505060405180910390fd5b600d600083815260200190815260200160002060040154600d6000848152602001908152602001600020600301541115614f75576001600d600084815260200190815260200160002060050160046101000a81548160ff02191690831515021790555061503d565b600d600083815260200190815260200160002060040154600d6000848152602001908152602001600020600301541015614fdd576001600d600084815260200190815260200160002060050160056101000a81548160ff02191690831515021790555061503c565b6001600d600084815260200190815260200160002060050160046101000a81548160ff0219169083151502179055506001600d600084815260200190815260200160002060050160056101000a81548160ff0219169083151502179055505b5b5050565b6000813b9050919050565b6000615056615170565b9050919050565b600060608390506000809050600080905060008090505b835181101561515157603084828151811061508b57fe5b602001015160f81c60f81b60f81c60ff16101580156150c7575060398482815181106150b357fe5b602001015160f81c60f81b60f81c60ff1611155b156151195781156150ea5760008614156150e057615151565b8580600190039650505b600a8302925060308482815181106150fe57fe5b602001015160f81c60f81b60f81c60ff160383019250615144565b602e84828151811061512757fe5b602001015160f81c60f81b60f81c60ff16141561514357600191505b5b8080600101915050615074565b5060008511156151645784600a0a820291505b81935050505092915050565b600080615190731d3b2638a7cc9f2cb3d298a3da7a90b67e5506ed615041565b111561523257731d3b2638a7cc9f2cb3d298a3da7a90b67e5506ed600160006101000a81548173ffffffffffffffffffffffffffffffffffffffff021916908373ffffffffffffffffffffffffffffffffffffffff1602179055506152296040518060400160405280600b81526020017f6574685f6d61696e6e65740000000000000000000000000000000000000000008152506156c7565b600190506156c4565b600061525173c03a2615d5efaf5f49f60b7bb6583eaec212fdf1615041565b11156152f35773c03a2615d5efaf5f49f60b7bb6583eaec212fdf1600160006101000a81548173ffffffffffffffffffffffffffffffffffffffff021916908373ffffffffffffffffffffffffffffffffffffffff1602179055506152ea6040518060400160405280600c81526020017f6574685f726f707374656e3300000000000000000000000000000000000000008152506156c7565b600190506156c4565b600061531273b7a07bcf2ba2f2703b24c0691b5278999c59ac7e615041565b11156153b45773b7a07bcf2ba2f2703b24c0691b5278999c59ac7e600160006101000a81548173ffffffffffffffffffffffffffffffffffffffff021916908373ffffffffffffffffffffffffffffffffffffffff1602179055506153ab6040518060400160405280600981526020017f6574685f6b6f76616e00000000000000000000000000000000000000000000008152506156c7565b600190506156c4565b60006153d373146500cfd35b22e4a392fe0adc06de1a1368ed48615041565b11156154755773146500cfd35b22e4a392fe0adc06de1a1368ed48600160006101000a81548173ffffffffffffffffffffffffffffffffffffffff021916908373ffffffffffffffffffffffffffffffffffffffff16021790555061546c6040518060400160405280600b81526020017f6574685f72696e6b6562790000000000000000000000000000000000000000008152506156c7565b600190506156c4565b600061549473a2998efd205fb9d4b4963afb70778d6354ad3a41615041565b11156155365773a2998efd205fb9d4b4963afb70778d6354ad3a41600160006101000a81548173ffffffffffffffffffffffffffffffffffffffff021916908373ffffffffffffffffffffffffffffffffffffffff16021790555061552d6040518060400160405280600a81526020017f6574685f676f65726c69000000000000000000000000000000000000000000008152506156c7565b600190506156c4565b6000615555736f485c8bf6fc43ea212e93bbf8ce046c7f1cb475615041565b11156155b957736f485c8bf6fc43ea212e93bbf8ce046c7f1cb475600160006101000a81548173ffffffffffffffffffffffffffffffffffffffff021916908373ffffffffffffffffffffffffffffffffffffffff160217905550600190506156c4565b60006155d87320e12a1f859b3feae5fb2a0a32c18f5a65555bbf615041565b111561563c577320e12a1f859b3feae5fb2a0a32c18f5a65555bbf600160006101000a81548173ffffffffffffffffffffffffffffffffffffffff021916908373ffffffffffffffffffffffffffffffffffffffff160217905550600190506156c4565b600061565b7351efaf4c8b3c9afbd5ab9f4bbc82784ab6ef8faa615041565b11156156bf577351efaf4c8b3c9afbd5ab9f4bbc82784ab6ef8faa600160006101000a81548173ffffffffffffffffffffffffffffffffffffffff021916908373ffffffffffffffffffffffffffffffffffffffff160217905550600190506156c4565b600090505b90565b80600290805190602001906156dd929190615703565b5050565b6040518060800160405280600490602082028038833980820191505090505090565b828054600181600116156101000203166002900490600052602060002090601f016020900481019282601f1061574457805160ff1916838001178555615772565b82800160010185558215615772579182015b82811115615771578251825591602001919060010190615756565b5b50905061577f9190615783565b5090565b6157a591905b808211156157a1576000816000905550600101615789565b5090565b9056fe52657665616c6564206861736820646f6573206e6f74206d6174636820636f6d6d697443616e6e6f74206578656375746520746869732066756e6374696f6e207768656e20636f6e7472616374206973207061757365646a736f6e28687474703a2f2f776f726c6474696d656170692e6f72672f6170692f74696d657a6f6e652f4575726f70652f4c6f6e646f6e292e756e697854696d65506c656173652061646420736f6d652045544820746f20636f76657220666f722074686520717565727920666565506c6179657220616c7265616479206861732033206163746976652067616d6573426f746820706c61796572732061726520726571756972656420746f20686176652072657665616c6564207468656972207465616d73546869732066756e6374696f6e2063616e206f6e6c792062652065786563757465642077697468696e207468652067616d657765656b20646561646c696e6570726f7661626c65207175657279207761732073656e742c207374616e64696e672062792e2e2e4f6e6c7920746865206c6561677565206d616e616765722063616e20706572666f726d207468697320616374696f6ea265627a7a7231582027bcfe9969e00ef4633db2d2066d918ca3da37b8d13ff8e0d73512289c2818cf64736f6c63430005100032",
  "source": "pragma solidity ^0.5.0;\n\nimport \"./CryptoFPLAdmin.sol\";\n\n    /// @author Nichanan Kesonpat\n    /// @title A lightweight PvP card game based on Fantasy Premier League.\n\n    /*\n        THE GAME:\n        - Players select four footballers from their card collection to compete in a round of FPL\n        - Players accummulate scores depending on their team's performance in that gameweek of the Premier League, according to official FPL rules\n        - The player with the top score collects prize winnings for the stated wager for that gameweek\n        \n        RULES:\n        - Each player deposits fees to enter the game\n        - Each player selects footballer cards from their CryptoFPL collection\n        - A player can only be involved in 3 active games at one time\n        - A team selection must consist of: 1 GK, 1 DF, 1 MF, 1 FWD\n    */\n\ncontract CryptoFPL is CryptoFPLAdmin {\n\n    //Storage variables\n    uint idGenerator; // Keep track of game ids\n\n    //Structs\n    struct Commit {\n        bytes32 commit;\n        uint64 block;\n        bool revealed;\n    }\n\n    struct Game {\n        uint wager;\n        address payable player1;\n        address payable player2;\n        uint player1Score;\n        uint player2Score;\n        bool player1TeamSubmitted;\n        bool player2TeamSubmitted;\n        bool player1TeamRevealed;\n        bool player2TeamRevealed;\n        bool player1Wins;\n        bool player2Wins;\n        bool isOpen;\n        bool isFinished;\n    }\n\n    mapping(uint => Game) games;\n    mapping(uint => uint) balances;\n    \n    mapping(address => uint) refunds; // Keeps track of refunds for players to withdraw from in case they deposited too much.\n    mapping(address => uint) activeGameIndex;\n    mapping(address => mapping(uint => uint)) activeGames; // Keeps track of each player's active games by mapping activeGameIndex to gameId\n    \n    // Map player address to gameId and footballer selection\n    mapping(address => mapping(uint => Commit)) gkCommits;\n    mapping(address => mapping(uint => Commit)) defCommits;\n    mapping(address => mapping(uint => Commit)) midCommits;\n    mapping(address => mapping(uint => Commit)) fwdCommits;\n\n    //Events\n    event LogGameCreation(address indexed player1, uint wager, uint gameId);\n    event LogGameBegin(address indexed player2, uint gameId, uint totalPayout);\n    event LogGameEnd(address winner, uint winningScore, uint losingScore);\n    event LogPayoutSent(address winner, uint balance);\n    event LogPlayer1TeamCommit(\n        address player1, \n        uint gameId, \n        bytes32 gkHash, \n        bytes32 defHash, \n        bytes32 midHash, \n        bytes32 fwdHash\n    );\n    event LogPlayer2TeamCommit(\n        address player2, \n        uint gameId, \n        bytes32 gkHash, \n        bytes32 defHash, \n        bytes32 midHash, \n        bytes32 fwdHash\n    );\n    event LogTeamReveal(\n        address sender, \n        bytes gkReveal, \n        bytes defReveal, \n        bytes midReveal, \n        bytes fwdReveal, \n        bytes salt\n    );\n    \n\n    //Modifiers\n    modifier isPlayer(uint gameId, address player) { require(player == games[gameId].player1 || player == games[gameId].player2, \"Invalid player address\"); _;}\n    modifier validPlayer2(uint gameId) { require(msg.sender != games[gameId].player1, \"Player can't join their own game\"); _;}\n    modifier gameIsOpen(uint gameId) { require(games[gameId].isOpen, \"Game is closed\"); _;}\n    modifier enoughFunds(uint gameId) { require(msg.value >= games[gameId].wager, \"Insufficient funds sent as wager\"); _;}\n    \n    modifier bothTeamsSubmitted(uint gameId) { \n        require(games[gameId].player1TeamSubmitted == true && games[gameId].player2TeamSubmitted == true, \n        \"Both players are required to have submitted a team\"); \n        _; \n    }\n\n    modifier bothTeamsRevealed(uint gameId) { \n        require(games[gameId].player1TeamRevealed == true && games[gameId].player2TeamRevealed == true, \n        \"Both players are required to have revealed their teams\"); \n        _; \n    }\n\n    /// Refund player 2 if they send in an amount exceeding the stated wager\n    modifier checkValue(uint gameId) {\n        _;\n        uint _wager = games[gameId].wager;\n        uint amountToRefund = msg.value - _wager;\n        refunds[msg.sender] += (amountToRefund);\n    }\n   \n    /// Checks how many games a player is active in. Passes if they are in 3 games or less\n    modifier validActiveGameCount() { \n        require(msg.sender == leagueManager || activeGameIndex[msg.sender] < 3, \n        \"Player already has 3 active games\");\n         _;\n    }\n\n    /// Verify winner for payout withdrawal\n    modifier isWinner(uint gameId) {\n        require((msg.sender == games[gameId].player1 && games[gameId].player1Wins) ||\n             (msg.sender == games[gameId].player2 && games[gameId].player2Wins));\n        _;\n    }\n\n    constructor(uint _entryFee) public {\n        leagueManager = msg.sender;\n        entryFee = _entryFee;\n        idGenerator = 0;\n    }\n\n    /// Fallback function\n    function() external payable {\n\n    }\n\n    /// Lets the user withdraw the refund in case of overpayment or game cancellation\n    function withdrawRefund() external {\n        uint refund = refunds[msg.sender];\n        refunds[msg.sender] = 0;\n        msg.sender.transfer(refund);\n    }\n\n    /// Allows the game winner to withdraw their payout\n    /// @param gameId of the game the caller wants to withdraw payout for\n    function withdrawPayout(uint gameId) external isWinner(gameId) {\n        uint winnings = balances[gameId];\n        balances[gameId] = 0;\n        games[gameId].isFinished = true;\n        activeGames[games[gameId].player1][activeGameIndex[games[gameId].player1]] = 0;\n        activeGames[games[gameId].player2][activeGameIndex[games[gameId].player2]] = 0;\n        activeGameIndex[games[gameId].player1] -= 1;\n        activeGameIndex[games[gameId].player2] -= 1;\n        msg.sender.transfer(winnings);\n        emit LogPayoutSent(msg.sender, winnings);\n    }\n\n    /// Allows league admin to withdraw funds from the contract.\n    function withdrawFunds() public isLeagueManager() {\n        uint availableFunds = address(this).balance;\n        msg.sender.transfer(availableFunds);\n    }\n\n    /* \n        GAME ENTRY: Players can create a game by depositing a wager and wait for another player to join the game.\n     */\n    \n    /// Return information for a given game\n    /// @param gameId of the game \n    /// @return player information, wager, whether or not the game is open, and whether or not the game is finished\n    function viewGameDetails(uint gameId) public view returns(address player1, address player2, uint wager, bool isOpen, bool isFinished) {\n        return (games[gameId].player1, games[gameId].player2, games[gameId].wager, games[gameId].isOpen, games[gameId].isFinished);\n    }\n    \n    /// Allows a player to create their game and stores the new game in the 'games' mapping\n    /// @param wager for the game\n    /// @return gameId of the newly created game in\n    function createGame(uint wager)\n        public \n        payable\n        validActiveGameCount()\n        stopInEmergency()\n        returns(uint) \n        {\n        require(msg.value == wager);\n        uint gameId = idGenerator;\n        games[idGenerator] = Game({\n            wager: wager,\n            player1: msg.sender,\n            player2: leagueManager,\n            player1Score: 0,\n            player2Score: 0,\n            player1TeamSubmitted: false,\n            player2TeamSubmitted: false,\n            player1TeamRevealed: false,\n            player2TeamRevealed: false,\n            player1Wins: false,\n            player2Wins: false,\n            isOpen: true,\n            isFinished: false \n        });\n        idGenerator += 1;\n        activeGames[msg.sender][activeGameIndex[msg.sender]] = gameId;\n        activeGameIndex[msg.sender] += 1;\n        uint change = msg.value - wager;\n        refunds[msg.sender] += change;\n        emit LogGameCreation(msg.sender, wager, gameId);\n        return gameId;\n    }\n\n    /// Allows a second player to join an open game\n    /// @param gameId of the game that the player wants to join\n    /// @return the gameId\n    function joinGame(uint gameId) \n        public\n        payable\n        gameIsOpen(gameId)\n        enoughFunds(gameId)\n        validPlayer2(gameId)\n        checkValue(gameId)\n        validActiveGameCount()\n        stopInEmergency()\n        returns(uint) \n        {\n        games[gameId].player2 = msg.sender;\n        games[gameId].isOpen = false;\n        balances[gameId] = games[gameId].wager * 2;\n        activeGames[msg.sender][activeGameIndex[msg.sender]] = gameId;\n        activeGameIndex[msg.sender] += 1;\n        emit LogGameBegin(msg.sender, gameId, balances[gameId]);\n        return gameId;\n    }\n\n    /// @return the total number of games that have ever been created\n    function totalGames() public view returns (uint) {\n        return idGenerator;\n    }\n\n    /* \n        GAMEPLAY: Players submit a team consisting of 1 GK, 1 DEF, 1 MID, and 1 FWD. A hash of this selection is commited to the blockchain with a random salt. They can then reveal their team by providing their original team submission and salt.\n    */\n\n    /// Stores hashes of a players' team selection for a given game\n    /// @param gkHash of the player's Goalkeeper selection\n    /// @param defHash of the player's Defender selection\n    /// @param midHash of the player's Midfield selection\n    /// @param fwdHash of the player's Forward selection\n    /// @param gameId of the game that the player wants to commit their team to for\n    function commitTeam(\n        bytes32 gkHash, \n        bytes32 defHash, \n        bytes32 midHash, \n        bytes32 fwdHash, \n        uint gameId) \n        public \n        isPlayer(gameId, msg.sender) \n        stopInEmergency()\n        withinDeadline() \n        {\n        gkCommits[msg.sender][gameId] = Commit({\n            commit: gkHash,\n            block: uint64(block.number),\n            revealed: false\n        });\n\n        defCommits[msg.sender][gameId] = Commit({\n            commit: defHash,\n            block: uint64(block.number),\n            revealed: false\n        });\n\n        midCommits[msg.sender][gameId] = Commit({\n            commit: midHash,\n            block: uint64(block.number),\n            revealed: false\n        });\n\n        fwdCommits[msg.sender][gameId] = Commit({\n            commit: fwdHash,\n            block: uint64(block.number),\n            revealed: false\n        });   \n\n        if (msg.sender == games[gameId].player1) {\n            games[gameId].player1TeamSubmitted = true;\n            emit LogPlayer1TeamCommit(msg.sender, gameId, gkHash, defHash, midHash, fwdHash);\n        } else {\n            games[gameId].player2TeamSubmitted = true;\n            emit LogPlayer2TeamCommit(msg.sender, gameId, gkHash, defHash, midHash, fwdHash);\n        }\n    }\n\n    /// Hashes a given piece of data with a given salt\n    /// @param data to be hashed\n    /// @param salt to hash the data with\n    /// @return saltedHash of the data and salt\n    function getSaltedHash(bytes memory data, bytes memory salt) public view returns(bytes32) {\n        return keccak256(abi.encodePacked(address(this), data, salt));\n    }\n    \n    /// Check if reveal hashes match the commit hash\n    /// @param gkReveal reveal hash of the player's Goalkeeper selection\n    /// @param defReveal reveal hash of the player's Defender selection\n    /// @param midReveal reveal hash of the player's Midfield selection\n    /// @param fwdReveal reveal hash of the player's Forward selection\n    /// @param gameId of the active game\n    /// @param salt that the original commits have been hashed with\n    /// @param totalScore accumulated by the submitted team\n    function revealTeam(\n        bytes memory gkReveal, \n        bytes memory defReveal, \n        bytes memory midReveal, \n        bytes memory fwdReveal, \n        uint gameId, \n        bytes memory salt, \n        uint totalScore) \n        public \n        isPlayer(gameId, msg.sender) \n        stopInEmergency() {        \n        \n        /// Make sure it hasn't been revealed yet and set it to revealed\n        require(\n            gkCommits[msg.sender][gameId].revealed == false &&\n            defCommits[msg.sender][gameId].revealed == false &&\n            midCommits[msg.sender][gameId].revealed == false &&\n            fwdCommits[msg.sender][gameId].revealed == false, \"Team has already been revealed\"\n            );\n        \n        //require that they can produce the committed hash\n        require(\n            getSaltedHash(gkReveal, salt) == gkCommits[msg.sender][gameId].commit &&\n            getSaltedHash(defReveal, salt) == defCommits[msg.sender][gameId].commit &&\n            getSaltedHash(midReveal, salt) == midCommits[msg.sender][gameId].commit &&\n            getSaltedHash(fwdReveal, salt) == fwdCommits[msg.sender][gameId].commit, \"Revealed hash does not match commit\"\n            );\n\n        gkCommits[msg.sender][gameId].revealed = true;\n        defCommits[msg.sender][gameId].revealed = true;\n        midCommits[msg.sender][gameId].revealed = true;\n        fwdCommits[msg.sender][gameId].revealed = true;\n\n        //Determine the winner if both players have submitted their scores.\n        if (msg.sender == games[gameId].player1) {\n            games[gameId].player1Score = totalScore;\n            games[gameId].player1TeamRevealed = true;\n            if (games[gameId].player2TeamRevealed) {\n                _declareWinner(gameId);\n            }\n        } else {\n            games[gameId].player2Score = totalScore;\n            games[gameId].player2TeamRevealed = true;\n            if (games[gameId].player1TeamRevealed) {\n                _declareWinner(gameId);\n            }\n        }\n        emit LogTeamReveal(msg.sender, gkReveal, defReveal, midReveal, fwdReveal, salt);\n    }\n\n    /// Returns a player's team commit for a given game\n    /// @param gameId for the game in question\n    /// @param player address whose team commit you want\n    /// @return a bytes32 array of the commit hashes\n    function getTeamCommitForGame(uint gameId, address player) public view returns(bytes32[4] memory commits) {\n        bytes32 gkCommit = gkCommits[player][gameId].commit;\n        bytes32 defCommit = defCommits[player][gameId].commit;\n        bytes32 midCommit = midCommits[player][gameId].commit;\n        bytes32 fwdCommit = fwdCommits[player][gameId].commit;\n        return [gkCommit, defCommit, midCommit, fwdCommit];\n    }\n\n    /* \n        GAME END: Team scores are totaled for each player and the player with the highest total score for that gameweek wins, they can then withdraw their payout.\n    */\n\n    /// Checks if the player's team has been revealed for a given game\n    /// @param gameId for the game in question\n    /// @param player address whose team you want to check the reveal status\n    /// @return whether or not the player has revealed their team\n    function teamRevealed(uint gameId, address player) public view isPlayer(gameId, player) returns(bool) {\n        return (gkCommits[player][gameId].revealed && \n                defCommits[player][gameId].revealed && \n                midCommits[player][gameId].revealed && \n                fwdCommits[player][gameId].revealed);\n    }\n\n    /// Retrieves final score for a given player for a game\n    /// @param gameId for the game in question\n    /// @param player address whose team you want to check the score\n    /// @return player score for game\n    function viewPlayerScore(uint gameId, address player) public view isPlayer(gameId, player) returns(uint) {\n        require(gkCommits[player][gameId].revealed == true);\n        if (games[gameId].player1 == player) {\n            return games[gameId].player1Score;\n        } else {\n            return games[gameId].player2Score;\n        }\n    }\n\n    /// Retrives the winner for a given game\n    /// @param gameId for the game you want to see the winner of\n    /// @return address of the winner\n    function viewWinner(uint gameId) public view bothTeamsRevealed(gameId) returns(address winner) {\n        if (games[gameId].player1Wins) {\n            return games[gameId].player1;\n        } else {\n            return games[gameId].player2;\n        }\n    }\n\n    /// Sets the winner for a given game once both teams have been revealed\n    /// @param gameId for the active game\n    function _declareWinner(uint gameId) internal bothTeamsRevealed(gameId) {\n        if (games[gameId].player1Score > games[gameId].player2Score) {\n            games[gameId].player1Wins = true;\n        } else if (games[gameId].player1Score < games[gameId].player2Score) {\n            games[gameId].player2Wins = true;\n        } else {\n            games[gameId].player1Wins = true;\n            games[gameId].player2Wins = true;\n        }\n    }\n\n}\n\n\ninterface CryptoFPLCards {\n    enum Position {\n    Forward,\n    Midfielder,\n    Defender,\n    Goalkeeper\n  }\n    function positionOf(uint tokenId) external returns(Position);\n    function balanceOf(address addr, uint tokenId) external returns(uint);\n}",
  "sourcePath": "C:\\Users\\hp\\Pictures\\Crypto-FPL\\contracts\\CryptoFPLCore\\CryptoFPL.sol",
  "compiler": {
    "name": "solc",
    "version": "0.5.16+commit.9c3226ce.Emscripten.clang"
  },
  "schemaVersion": "3.4.16",
  "updatedAt": "2025-08-02T14:24:57.031Z",
  "devdoc": {
    "author": "Nichanan Kesonpat",
    "methods": {
      "__callback(bytes32,string)": {
        "details": "sets the 'deadlinePassed' variable to true if the current time exceeds the gameweek deadline."
      },
      "commitTeam(bytes32,bytes32,bytes32,bytes32,uint256)": {
        "params": {
          "defHash": "of the player's Defender selection",
          "fwdHash": "of the player's Forward selection",
          "gameId": "of the game that the player wants to commit their team to for",
          "gkHash": "of the player's Goalkeeper selection",
          "midHash": "of the player's Midfield selection"
        }
      },
      "createGame(uint256)": {
        "params": {
          "wager": "for the game"
        },
        "return": "gameId of the newly created game in"
      },
      "getSaltedHash(bytes,bytes)": {
        "params": {
          "data": "to be hashed",
          "salt": "to hash the data with"
        },
        "return": "saltedHash of the data and salt"
      },
      "getTeamCommitForGame(uint256,address)": {
        "params": {
          "gameId": "for the game in question",
          "player": "address whose team commit you want"
        },
        "return": "a bytes32 array of the commit hashes"
      },
      "incrementGameweek(uint256)": {
        "params": {
          "_deadline": "time epoch of the live gameweek"
        }
      },
      "isPaused()": {
        "details": "Circuit breaker for contract",
        "return": "boolean of whether or not the contract is currently paused"
      },
      "joinGame(uint256)": {
        "params": {
          "gameId": "of the game that the player wants to join"
        },
        "return": "the gameId"
      },
      "revealTeam(bytes,bytes,bytes,bytes,uint256,bytes,uint256)": {
        "params": {
          "defReveal": "reveal hash of the player's Defender selection",
          "fwdReveal": "reveal hash of the player's Forward selection",
          "gameId": "of the active game",
          "gkReveal": "reveal hash of the player's Goalkeeper selection",
          "midReveal": "reveal hash of the player's Midfield selection",
          "salt": "that the original commits have been hashed with",
          "totalScore": "accumulated by the submitted team"
        }
      },
      "teamRevealed(uint256,address)": {
        "params": {
          "gameId": "for the game in question",
          "player": "address whose team you want to check the reveal status"
        },
        "return": "whether or not the player has revealed their team"
      },
      "toggleDeadlinePassed()": {
        "details": "should be called by admin when the gameweek deadline has passed"
      },
      "totalGames()": {
        "return": "the total number of games that have ever been created"
      },
      "viewDeadlineStatus()": {
        "return": "boolean of whether or not the gameweek deadline has passed"
      },
      "viewGameDetails(uint256)": {
        "params": {
          "gameId": "of the game "
        },
        "return": "player information, wager, whether or not the game is open, and whether or not the game is finished"
      },
      "viewPlayerScore(uint256,address)": {
        "params": {
          "gameId": "for the game in question",
          "player": "address whose team you want to check the score"
        },
        "return": "player score for game"
      },
      "viewWinner(uint256)": {
        "params": {
          "gameId": "for the game you want to see the winner of"
        },
        "return": "address of the winner"
      },
      "withdrawPayout(uint256)": {
        "params": {
          "gameId": "of the game the caller wants to withdraw payout for"
        }
      }
    },
    "title": "A lightweight PvP card game based on Fantasy Premier League."
  },
  "userdoc": {
    "methods": {
      "__callback(bytes32,string)": {
        "notice": "Handles ProvableAPI call response"
      },
      "commitTeam(bytes32,bytes32,bytes32,bytes32,uint256)": {
        "notice": "Stores hashes of a players' team selection for a given game"
      },
      "createGame(uint256)": {
        "notice": "Allows a player to create their game and stores the new game in the 'games' mapping"
      },
      "getSaltedHash(bytes,bytes)": {
        "notice": "Hashes a given piece of data with a given salt"
      },
      "getTeamCommitForGame(uint256,address)": {
        "notice": "Returns a player's team commit for a given game"
      },
      "incrementGameweek(uint256)": {
        "notice": "Updates the live gameweek"
      },
      "isPaused()": {
        "notice": "Returns the pause status of the contract"
      },
      "joinGame(uint256)": {
        "notice": "Allows a second player to join an open game"
      },
      "revealTeam(bytes,bytes,bytes,bytes,uint256,bytes,uint256)": {
        "notice": "Check if reveal hashes match the commit hash"
      },
      "teamRevealed(uint256,address)": {
        "notice": "Checks if the player's team has been revealed for a given game"
      },
      "toggleContractPause()": {
        "notice": "Allows the admin to pause certain contract functions to be called in case of emergency Functions paused in emergency are: createGame, joinGame, commitTeam, and revealTeam"
      },
      "toggleDeadlinePassed()": {
        "notice": "Queries the current time (GMT+1) using Provable"
      },
      "viewDeadlineStatus()": {
        "notice": "Returns deadline passed status"
      },
      "viewGameDetails(uint256)": {
        "notice": "Return information for a given game"
      },
      "viewPlayerScore(uint256,address)": {
        "notice": "Retrieves final score for a given player for a game"
      },
      "viewWinner(uint256)": {
        "notice": "Retrives the winner for a given game"
      },
      "withdrawFunds()": {
        "notice": "Allows league admin to withdraw funds from the contract."
      },
      "withdrawPayout(uint256)": {
        "notice": "Allows the game winner to withdraw their payout"
      },
      "withdrawRefund()": {
        "notice": "Lets the user withdraw the refund in case of overpayment or game cancellation"
      }
    }
  }
}