{
  "contractName": "ERC1155MintBurnPackedBalance",
  "abi": [
    {
      "anonymous": false,
      "inputs": [
        {
          "indexed": true,
          "internalType": "address",
          "name": "_owner",
          "type": "address"
        },
        {
          "indexed": true,
          "internalType": "address",
          "name": "_operator",
          "type": "address"
        },
        {
          "indexed": false,
          "internalType": "bool",
          "name": "_approved",
          "type": "bool"
        }
      ],
      "name": "ApprovalForAll",
      "type": "event"
    },
    {
      "anonymous": false,
      "inputs": [
        {
          "indexed": true,
          "internalType": "address",
          "name": "_operator",
          "type": "address"
        },
        {
          "indexed": true,
          "internalType": "address",
          "name": "_from",
          "type": "address"
        },
        {
          "indexed": true,
          "internalType": "address",
          "name": "_to",
          "type": "address"
        },
        {
          "indexed": false,
          "internalType": "uint256[]",
          "name": "_ids",
          "type": "uint256[]"
        },
        {
          "indexed": false,
          "internalType": "uint256[]",
          "name": "_amounts",
          "type": "uint256[]"
        }
      ],
      "name": "TransferBatch",
      "type": "event"
    },
    {
      "anonymous": false,
      "inputs": [
        {
          "indexed": true,
          "internalType": "address",
          "name": "_operator",
          "type": "address"
        },
        {
          "indexed": true,
          "internalType": "address",
          "name": "_from",
          "type": "address"
        },
        {
          "indexed": true,
          "internalType": "address",
          "name": "_to",
          "type": "address"
        },
        {
          "indexed": false,
          "internalType": "uint256",
          "name": "_id",
          "type": "uint256"
        },
        {
          "indexed": false,
          "internalType": "uint256",
          "name": "_amount",
          "type": "uint256"
        }
      ],
      "name": "TransferSingle",
      "type": "event"
    },
    {
      "anonymous": false,
      "inputs": [
        {
          "indexed": false,
          "internalType": "string",
          "name": "_uri",
          "type": "string"
        },
        {
          "indexed": true,
          "internalType": "uint256",
          "name": "_id",
          "type": "uint256"
        }
      ],
      "name": "URI",
      "type": "event"
    },
    {
      "constant": true,
      "inputs": [
        {
          "internalType": "address",
          "name": "_owner",
          "type": "address"
        },
        {
          "internalType": "uint256",
          "name": "_id",
          "type": "uint256"
        }
      ],
      "name": "balanceOf",
      "outputs": [
        {
          "internalType": "uint256",
          "name": "",
          "type": "uint256"
        }
      ],
      "payable": false,
      "stateMutability": "view",
      "type": "function"
    },
    {
      "constant": true,
      "inputs": [
        {
          "internalType": "address[]",
          "name": "_owners",
          "type": "address[]"
        },
        {
          "internalType": "uint256[]",
          "name": "_ids",
          "type": "uint256[]"
        }
      ],
      "name": "balanceOfBatch",
      "outputs": [
        {
          "internalType": "uint256[]",
          "name": "",
          "type": "uint256[]"
        }
      ],
      "payable": false,
      "stateMutability": "view",
      "type": "function"
    },
    {
      "constant": true,
      "inputs": [
        {
          "internalType": "uint256",
          "name": "_id",
          "type": "uint256"
        }
      ],
      "name": "getIDBinIndex",
      "outputs": [
        {
          "internalType": "uint256",
          "name": "bin",
          "type": "uint256"
        },
        {
          "internalType": "uint256",
          "name": "index",
          "type": "uint256"
        }
      ],
      "payable": false,
      "stateMutability": "pure",
      "type": "function"
    },
    {
      "constant": true,
      "inputs": [
        {
          "internalType": "uint256",
          "name": "_binAmount",
          "type": "uint256"
        },
        {
          "internalType": "uint256",
          "name": "_index",
          "type": "uint256"
        }
      ],
      "name": "getValueInBin",
      "outputs": [
        {
          "internalType": "uint256",
          "name": "",
          "type": "uint256"
        }
      ],
      "payable": false,
      "stateMutability": "pure",
      "type": "function"
    },
    {
      "constant": true,
      "inputs": [
        {
          "internalType": "address",
          "name": "_owner",
          "type": "address"
        },
        {
          "internalType": "address",
          "name": "_operator",
          "type": "address"
        }
      ],
      "name": "isApprovedForAll",
      "outputs": [
        {
          "internalType": "bool",
          "name": "isOperator",
          "type": "bool"
        }
      ],
      "payable": false,
      "stateMutability": "view",
      "type": "function"
    },
    {
      "constant": false,
      "inputs": [
        {
          "internalType": "address",
          "name": "_from",
          "type": "address"
        },
        {
          "internalType": "address",
          "name": "_to",
          "type": "address"
        },
        {
          "internalType": "uint256[]",
          "name": "_ids",
          "type": "uint256[]"
        },
        {
          "internalType": "uint256[]",
          "name": "_amounts",
          "type": "uint256[]"
        },
        {
          "internalType": "bytes",
          "name": "_data",
          "type": "bytes"
        }
      ],
      "name": "safeBatchTransferFrom",
      "outputs": [],
      "payable": false,
      "stateMutability": "nonpayable",
      "type": "function"
    },
    {
      "constant": false,
      "inputs": [
        {
          "internalType": "address",
          "name": "_from",
          "type": "address"
        },
        {
          "internalType": "address",
          "name": "_to",
          "type": "address"
        },
        {
          "internalType": "uint256",
          "name": "_id",
          "type": "uint256"
        },
        {
          "internalType": "uint256",
          "name": "_amount",
          "type": "uint256"
        },
        {
          "internalType": "bytes",
          "name": "_data",
          "type": "bytes"
        }
      ],
      "name": "safeTransferFrom",
      "outputs": [],
      "payable": false,
      "stateMutability": "nonpayable",
      "type": "function"
    },
    {
      "constant": false,
      "inputs": [
        {
          "internalType": "address",
          "name": "_operator",
          "type": "address"
        },
        {
          "internalType": "bool",
          "name": "_approved",
          "type": "bool"
        }
      ],
      "name": "setApprovalForAll",
      "outputs": [],
      "payable": false,
      "stateMutability": "nonpayable",
      "type": "function"
    },
    {
      "constant": true,
      "inputs": [
        {
          "internalType": "bytes4",
          "name": "_interfaceID",
          "type": "bytes4"
        }
      ],
      "name": "supportsInterface",
      "outputs": [
        {
          "internalType": "bool",
          "name": "",
          "type": "bool"
        }
      ],
      "payable": false,
      "stateMutability": "view",
      "type": "function"
    },
    {
      "constant": true,
      "inputs": [
        {
          "internalType": "uint256",
          "name": "_binAmount",
          "type": "uint256"
        },
        {
          "internalType": "uint256",
          "name": "_index",
          "type": "uint256"
        },
        {
          "internalType": "uint256",
          "name": "_amount",
          "type": "uint256"
        }
      ],
      "name": "writeValueInBin",
      "outputs": [
        {
          "internalType": "uint256",
          "name": "",
          "type": "uint256"
        }
      ],
      "payable": false,
      "stateMutability": "pure",
      "type": "function"
    }
  ],
  "bytecode": "0x608060405234801561001057600080fd5b50611f1d806100206000396000f3fe608060405234801561001057600080fd5b506004361061009d5760003560e01c8063a22cb46511610066578063a22cb46514610505578063db90e83c14610555578063e985e9c51461059e578063eaec5f811461061a578063f242432a146106665761009d565b8062fdd58e146100a257806301ffc9a7146101045780632eb2c2d6146101695780634e1273f41461038c57806372d80f6f146104af575b600080fd5b6100ee600480360360408110156100b857600080fd5b81019080803573ffffffffffffffffffffffffffffffffffffffff16906020019092919080359060200190929190505050610775565b6040518082815260200191505060405180910390f35b61014f6004803603602081101561011a57600080fd5b8101908080357bffffffffffffffffffffffffffffffffffffffffffffffffffffffff191690602001909291905050506107ee565b604051808215151515815260200191505060405180910390f35b61038a600480360360a081101561017f57600080fd5b81019080803573ffffffffffffffffffffffffffffffffffffffff169060200190929190803573ffffffffffffffffffffffffffffffffffffffff169060200190929190803590602001906401000000008111156101dc57600080fd5b8201836020820111156101ee57600080fd5b8035906020019184602083028401116401000000008311171561021057600080fd5b919080806020026020016040519081016040528093929190818152602001838360200280828437600081840152601f19601f8201169050808301925050505050505091929192908035906020019064010000000081111561027057600080fd5b82018360208201111561028257600080fd5b803590602001918460208302840111640100000000831117156102a457600080fd5b919080806020026020016040519081016040528093929190818152602001838360200280828437600081840152601f19601f8201169050808301925050505050505091929192908035906020019064010000000081111561030457600080fd5b82018360208201111561031657600080fd5b8035906020019184600183028401116401000000008311171561033857600080fd5b91908080601f016020809104026020016040519081016040528093929190818152602001838380828437600081840152601f19601f82011690508083019250505050505050919291929050505061089f565b005b610458600480360360408110156103a257600080fd5b81019080803590602001906401000000008111156103bf57600080fd5b8201836020820111156103d157600080fd5b803590602001918460208302840111640100000000831117156103f357600080fd5b90919293919293908035906020019064010000000081111561041457600080fd5b82018360208201111561042657600080fd5b8035906020019184602083028401116401000000008311171561044857600080fd5b9091929391929390505050610a4e565b6040518080602001828103825283818151815260200191508051906020019060200280838360005b8381101561049b578082015181840152602081019050610480565b505050509050019250505060405180910390f35b6104ef600480360360608110156104c557600080fd5b81019080803590602001909291908035906020019092919080359060200190929190505050610bd1565b6040518082815260200191505060405180910390f35b6105536004803603604081101561051b57600080fd5b81019080803573ffffffffffffffffffffffffffffffffffffffff169060200190929190803515159060200190929190505050610c62565b005b6105816004803603602081101561056b57600080fd5b8101908080359060200190929190505050610d63565b604051808381526020018281526020019250505060405180910390f35b610600600480360360408110156105b457600080fd5b81019080803573ffffffffffffffffffffffffffffffffffffffff169060200190929190803573ffffffffffffffffffffffffffffffffffffffff169060200190929190505050610d9a565b604051808215151515815260200191505060405180910390f35b6106506004803603604081101561063057600080fd5b810190808035906020019092919080359060200190929190505050610e2e565b6040518082815260200191505060405180910390f35b610773600480360360a081101561067c57600080fd5b81019080803573ffffffffffffffffffffffffffffffffffffffff169060200190929190803573ffffffffffffffffffffffffffffffffffffffff1690602001909291908035906020019092919080359060200190929190803590602001906401000000008111156106ed57600080fd5b8201836020820111156106ff57600080fd5b8035906020019184600183028401116401000000008311171561072157600080fd5b91908080601f016020809104026020016040519081016040528093929190818152602001838380828437600081840152601f19601f820116905080830192505050505050509192919290505050610e5b565b005b600080600061078384610d63565b80925081935050506107e46000808773ffffffffffffffffffffffffffffffffffffffff1673ffffffffffffffffffffffffffffffffffffffff16815260200190815260200160002060008481526020019081526020016000205482610e2e565b9250505092915050565b60006301ffc9a760e01b7bffffffffffffffffffffffffffffffffffffffffffffffffffffffff1916827bffffffffffffffffffffffffffffffffffffffffffffffffffffffff1916148061088757506397a409d260e01b7bffffffffffffffffffffffffffffffffffffffffffffffffffffffff1916827bffffffffffffffffffffffffffffffffffffffffffffffffffffffff1916145b15610895576001905061089a565b600090505b919050565b8473ffffffffffffffffffffffffffffffffffffffff163373ffffffffffffffffffffffffffffffffffffffff16148061095f5750600160008673ffffffffffffffffffffffffffffffffffffffff1673ffffffffffffffffffffffffffffffffffffffff16815260200190815260200160002060003373ffffffffffffffffffffffffffffffffffffffff1673ffffffffffffffffffffffffffffffffffffffff16815260200190815260200160002060009054906101000a900460ff165b6109b4576040517f08c379a000000000000000000000000000000000000000000000000000000000815260040180806020018281038252603c815260200180611dba603c913960400191505060405180910390fd5b600073ffffffffffffffffffffffffffffffffffffffff168473ffffffffffffffffffffffffffffffffffffffff161415610a3a576040517f08c379a000000000000000000000000000000000000000000000000000000000815260040180806020018281038252603d815260200180611cc2603d913960400191505060405180910390fd5b610a47858585858561100a565b5050505050565b6060828290508585905014610aae576040517f08c379a0000000000000000000000000000000000000000000000000000000008152600401808060200182810382526039815260200180611c896039913960400191505060405180910390fd5b606085859050604051908082528060200260200182016040528015610ae25781602001602082028038833980820191505090505b50905060008060008090505b88889050811015610bc257610b14878783818110610b0857fe5b90506020020135610d63565b8093508194505050610b9d6000808b8b85818110610b2e57fe5b9050602002013573ffffffffffffffffffffffffffffffffffffffff1673ffffffffffffffffffffffffffffffffffffffff1673ffffffffffffffffffffffffffffffffffffffff16815260200190815260200160002060008581526020019081526020016000205483610e2e565b848281518110610ba957fe5b6020026020010181815250508080600101915050610aee565b50829350505050949350505050565b6000602060020a8210610c2f576040517f08c379a000000000000000000000000000000000000000000000000000000000815260040180806020018281038252602e815260200180611df6602e913960400191505060405180910390fd5b6000600160206001901b0390506000600185016020026101000390508084901b8183901b19871617925050509392505050565b80600160003373ffffffffffffffffffffffffffffffffffffffff1673ffffffffffffffffffffffffffffffffffffffff16815260200190815260200160002060008473ffffffffffffffffffffffffffffffffffffffff1673ffffffffffffffffffffffffffffffffffffffff16815260200190815260200160002060006101000a81548160ff0219169083151502179055508173ffffffffffffffffffffffffffffffffffffffff163373ffffffffffffffffffffffffffffffffffffffff167f17307eab39ab6107e8899845ad3d59bd9653f200f220920489ca2b5937696c3183604051808215151515815260200191505060405180910390a35050565b6000806101006020840281610d7457fe5b049150602061010081610d8357fe5b048381610d8c57fe5b069050818191509150915091565b6000600160008473ffffffffffffffffffffffffffffffffffffffff1673ffffffffffffffffffffffffffffffffffffffff16815260200190815260200160002060008373ffffffffffffffffffffffffffffffffffffffff1673ffffffffffffffffffffffffffffffffffffffff16815260200190815260200160002060009054906101000a900460ff16905092915050565b600080600160206001901b039050600060018401602002610100039050818186901c169250505092915050565b8473ffffffffffffffffffffffffffffffffffffffff163373ffffffffffffffffffffffffffffffffffffffff161480610f1b5750600160008673ffffffffffffffffffffffffffffffffffffffff1673ffffffffffffffffffffffffffffffffffffffff16815260200190815260200160002060003373ffffffffffffffffffffffffffffffffffffffff1673ffffffffffffffffffffffffffffffffffffffff16815260200190815260200160002060009054906101000a900460ff165b610f70576040517f08c379a0000000000000000000000000000000000000000000000000000000008152600401808060200182810382526037815260200180611d416037913960400191505060405180910390fd5b600073ffffffffffffffffffffffffffffffffffffffff168473ffffffffffffffffffffffffffffffffffffffff161415610ff6576040517f08c379a0000000000000000000000000000000000000000000000000000000008152600401808060200182810382526038815260200180611e6a6038913960400191505060405180910390fd5b61100385858585856117c6565b5050505050565b8151835114611064576040517f08c379a0000000000000000000000000000000000000000000000000000000008152600401808060200182810382526042815260200180611d786042913960600191505060405180910390fd5b6000806110848560008151811061107757fe5b6020026020010151610d63565b9150915060006110fa6000808a73ffffffffffffffffffffffffffffffffffffffff1673ffffffffffffffffffffffffffffffffffffffff16815260200190815260200160002060008581526020019081526020016000205483876000815181106110eb57fe5b60200260200101516001611a9d565b9050600061116e6000808a73ffffffffffffffffffffffffffffffffffffffff1673ffffffffffffffffffffffffffffffffffffffff168152602001908152602001600020600086815260200190815260200160002054848860008151811061115f57fe5b60200260200101516000611a9d565b905060008751905060008590506000600190505b82811015611356576111a68a828151811061119957fe5b6020026020010151610d63565b809750819850505081871461130557846000808e73ffffffffffffffffffffffffffffffffffffffff1673ffffffffffffffffffffffffffffffffffffffff168152602001908152602001600020600084815260200190815260200160002081905550836000808d73ffffffffffffffffffffffffffffffffffffffff1673ffffffffffffffffffffffffffffffffffffffff1681526020019081526020016000206000848152602001908152602001600020819055506000808d73ffffffffffffffffffffffffffffffffffffffff1673ffffffffffffffffffffffffffffffffffffffff16815260200190815260200160002060008881526020019081526020016000205494506000808c73ffffffffffffffffffffffffffffffffffffffff1673ffffffffffffffffffffffffffffffffffffffff16815260200190815260200160002060008881526020019081526020016000205493508691505b61132585878b848151811061131657fe5b60200260200101516001611a9d565b945061134784878b848151811061133857fe5b60200260200101516000611a9d565b93508080600101915050611182565b50836000808d73ffffffffffffffffffffffffffffffffffffffff1673ffffffffffffffffffffffffffffffffffffffff168152602001908152602001600020600088815260200190815260200160002081905550826000808c73ffffffffffffffffffffffffffffffffffffffff1673ffffffffffffffffffffffffffffffffffffffff1681526020019081526020016000206000888152602001908152602001600020819055508973ffffffffffffffffffffffffffffffffffffffff168b73ffffffffffffffffffffffffffffffffffffffff163373ffffffffffffffffffffffffffffffffffffffff167f4a39dc06d4c0dbc64b70af90fd698a233a518aa5d07e595d983b8c0526c8f7fb8c8c604051808060200180602001838103835285818151815260200191508051906020019060200280838360005b838110156114ae578082015181840152602081019050611493565b50505050905001838103825284818151815260200191508051906020019060200280838360005b838110156114f05780820151818401526020810190506114d5565b5050505090500194505050505060405180910390a46115248a73ffffffffffffffffffffffffffffffffffffffff16611b8b565b156117b95760008a73ffffffffffffffffffffffffffffffffffffffff1663bc197c81338e8d8d8d6040518663ffffffff1660e01b8152600401808673ffffffffffffffffffffffffffffffffffffffff1673ffffffffffffffffffffffffffffffffffffffff1681526020018573ffffffffffffffffffffffffffffffffffffffff1673ffffffffffffffffffffffffffffffffffffffff168152602001806020018060200180602001848103845287818151815260200191508051906020019060200280838360005b8381101561160a5780820151818401526020810190506115ef565b50505050905001848103835286818151815260200191508051906020019060200280838360005b8381101561164c578082015181840152602081019050611631565b50505050905001848103825285818151815260200191508051906020019080838360005b8381101561168b578082015181840152602081019050611670565b50505050905090810190601f1680156116b85780820380516001836020036101000a031916815260200191505b5098505050505050505050602060405180830381600087803b1580156116dd57600080fd5b505af11580156116f1573d6000803e3d6000fd5b505050506040513d602081101561170757600080fd5b8101908080519060200190929190505050905063bc197c8160e01b7bffffffffffffffffffffffffffffffffffffffffffffffffffffffff1916817bffffffffffffffffffffffffffffffffffffffffffffffffffffffff1916146117b7576040517f08c379a0000000000000000000000000000000000000000000000000000000008152600401808060200182810382526047815260200180611ea26047913960600191505060405180910390fd5b505b5050505050505050505050565b6117d38584846001611b9e565b6117e08484846000611b9e565b8373ffffffffffffffffffffffffffffffffffffffff168573ffffffffffffffffffffffffffffffffffffffff163373ffffffffffffffffffffffffffffffffffffffff167fc3d58168c5ae7397731d063d5bbf3d657854427343f4c083240f7aacaa2d0f628686604051808381526020018281526020019250505060405180910390a46118838473ffffffffffffffffffffffffffffffffffffffff16611b8b565b15611a965760008473ffffffffffffffffffffffffffffffffffffffff1663f23a6e6133888787876040518663ffffffff1660e01b8152600401808673ffffffffffffffffffffffffffffffffffffffff1673ffffffffffffffffffffffffffffffffffffffff1681526020018573ffffffffffffffffffffffffffffffffffffffff1673ffffffffffffffffffffffffffffffffffffffff16815260200184815260200183815260200180602001828103825283818151815260200191508051906020019080838360005b8381101561196a57808201518184015260208101905061194f565b50505050905090810190601f1680156119975780820380516001836020036101000a031916815260200191505b509650505050505050602060405180830381600087803b1580156119ba57600080fd5b505af11580156119ce573d6000803e3d6000fd5b505050506040513d60208110156119e457600080fd5b8101908080519060200190929190505050905063f23a6e6160e01b7bffffffffffffffffffffffffffffffffffffffffffffffffffffffff1916817bffffffffffffffffffffffffffffffffffffffffffffffffffffffff191614611a94576040517f08c379a0000000000000000000000000000000000000000000000000000000008152600401808060200182810382526042815260200180611cff6042913960600191505060405180910390fd5b505b5050505050565b60008060006001811115611aad57fe5b836001811115611ab957fe5b1415611adf57611ac98686610e2e565b9050611ad88686868401610bd1565b9150611b7f565b600180811115611aeb57fe5b836001811115611af757fe5b1415611b2d57611b078686610e2e565b9050611b268686611b218785611c6890919063ffffffff16565b610bd1565b9150611b7e565b6040517f08c379a0000000000000000000000000000000000000000000000000000000008152600401808060200182810382526046815260200180611e246046913960600191505060405180910390fd5b5b81915050949350505050565b600080823b905060008111915050919050565b600080611baa85610d63565b8092508193505050611c0d6000808873ffffffffffffffffffffffffffffffffffffffff1673ffffffffffffffffffffffffffffffffffffffff168152602001908152602001600020600084815260200190815260200160002054828686611a9d565b6000808873ffffffffffffffffffffffffffffffffffffffff1673ffffffffffffffffffffffffffffffffffffffff168152602001908152602001600020600084815260200190815260200160002081905550505050505050565b600082821115611c7757600080fd5b60008284039050809150509291505056fe455243313135355061636b656442616c616e63652362616c616e63654f6642617463683a20494e56414c49445f41525241595f4c454e475448455243313135355061636b656442616c616e6365237361666542617463685472616e7366657246726f6d3a20494e56414c49445f524543495049454e54455243313135355061636b656442616c616e6365235f736166655472616e7366657246726f6d3a20494e56414c49445f4f4e5f524543454956455f4d455353414745455243313135355061636b656442616c616e636523736166655472616e7366657246726f6d3a20494e56414c49445f4f50455241544f52455243313135355061636b656442616c616e6365235f7361666542617463685472616e7366657246726f6d3a20494e56414c49445f4152524159535f4c454e475448455243313135355061636b656442616c616e6365237361666542617463685472616e7366657246726f6d3a20494e56414c49445f4f50455241544f52455243313135355061636b656442616c616e636523777269746556616c7565496e42696e3a204f564552464c4f57455243313135355061636b656442616c616e6365235f76696577557064617465494442616c616e63653a20494e56414c49445f42494e5f57524954455f4f5045524154494f4e455243313135355061636b656442616c616e636523736166655472616e7366657246726f6d3a20494e56414c49445f524543495049454e54455243313135355061636b656442616c616e6365235f7361666542617463685472616e7366657246726f6d3a20494e56414c49445f4f4e5f524543454956455f4d455353414745a265627a7a72315820e57d439cd57e5f5c66ba9c801435b3cafb505b01349bec22de55f228b2ff2a0364736f6c63430005100032",
  "source": "pragma solidity ^0.5.0;\n// pragma experimental ABIEncoderV2;\n\nimport \"./ERC1155PackedBalance.sol\";\n\n\n/**\n * @dev Multi-Fungible Tokens with minting and burning methods. These methods assume\n *      a parent contract to be executed as they are `internal` functions.\n */\ncontract ERC1155MintBurnPackedBalance is ERC1155PackedBalance {\n\n\n  /****************************************|\n  |            Minting Functions           |\n  |_______________________________________*/\n\n  /**\n   * @notice Mint _amount of tokens of a given id\n   * @param _to      The address to mint tokens to\n   * @param _id      Token id to mint\n   * @param _amount  The amount to be minted\n   */\n  function _mint(address _to, uint256 _id, uint256 _amount)\n    internal\n  {\n    //Add _amount\n    _updateIDBalance(_to,   _id, _amount, Operations.Add); // Add amount to recipient\n\n    // Emit event\n    emit TransferSingle(msg.sender, address(0x0), _to, _id, _amount);\n  }\n\n  /**\n   * @notice Mint tokens for each (_ids[i], _amounts[i]) pair\n   * @param _to       The address to mint tokens to\n   * @param _ids      Array of ids to mint\n   * @param _amounts  Array of amount of tokens to mint per id\n   */\n  function _batchMint(address _to, uint256[] memory _ids, uint256[] memory _amounts)\n    internal\n  {\n    require(_ids.length == _amounts.length, \"ERC1155MintBurnPackedBalance#batchMint: INVALID_ARRAYS_LENGTH\");\n\n    // Number of mints to execute\n    uint256 nMint = _ids.length;\n\n     // Executing all minting\n    for (uint256 i = 0; i < nMint; i++) {\n      // Update storage balance\n      _updateIDBalance(_to,   _ids[i], _amounts[i], Operations.Add); // Add amount to recipient\n    }\n\n    // Emit batch mint event\n    emit TransferBatch(msg.sender, address(0x0), _to, _ids, _amounts);\n  }\n\n\n  /****************************************|\n  |            Burning Functions           |\n  |_______________________________________*/\n\n  /**\n   * @notice Burn _amount of tokens of a given token id\n   * @param _from    The address to burn tokens from\n   * @param _id      Token id to burn\n   * @param _amount  The amount to be burned\n   */\n  function _burn(address _from, uint256 _id, uint256 _amount)\n    internal\n  {\n    //Substract _amount\n    _updateIDBalance(_from, _id, _amount, Operations.Sub);\n\n    // Emit event\n    emit TransferSingle(msg.sender, _from, address(0x0), _id, _amount);\n  }\n\n\n  /**\n   * @notice Burn tokens of given token id for each (_ids[i], _amounts[i]) pair\n   * @param _from     The address to burn tokens from\n   * @param _ids      Array of token ids to burn\n   * @param _amounts  Array of the amount to be burned\n   */\n  function _batchBurn(address _from, uint256[] memory _ids, uint256[] memory _amounts)\n    internal\n  {\n    require(_ids.length == _amounts.length, \"ERC1155MintBurnPackedBalance#batchBurn: INVALID_ARRAYS_LENGTH\");\n\n    // Number of mints to execute\n    uint256 nBurn = _ids.length;\n\n     // Executing all minting\n    for (uint256 i = 0; i < nBurn; i++) {\n      // Update storage balance\n      _updateIDBalance(_from,   _ids[i], _amounts[i], Operations.Sub); // Add amount to recipient\n    }\n\n    // Emit batch mint event\n    emit TransferBatch(msg.sender, _from, address(0x0), _ids, _amounts);\n  }\n\n}\n\n",
  "sourcePath": "C:\\Users\\hp\\Pictures\\Crypto-FPL\\contracts\\erc\\erc1155\\ERC1155MintBurnPackedBalance.sol",
  "compiler": {
    "name": "solc",
    "version": "0.5.16+commit.9c3226ce.Emscripten.clang"
  },
  "schemaVersion": "3.4.16",
  "updatedAt": "2025-08-02T14:26:46.759Z",
  "devdoc": {
    "details": "Multi-Fungible Tokens with minting and burning methods. These methods assume     a parent contract to be executed as they are `internal` functions.",
    "methods": {
      "balanceOf(address,uint256)": {
        "params": {
          "_id": "ID of the Token",
          "_owner": "The address of the token holder"
        },
        "return": "The _owner's balance of the Token type requested"
      },
      "balanceOfBatch(address[],uint256[])": {
        "params": {
          "_ids": "ID of the Tokens",
          "_owners": "The addresses of the token holders"
        },
        "return": "The _owner's balance of the Token types requested (i.e. balance for each (owner, id) pair)"
      },
      "getIDBinIndex(uint256)": {
        "params": {
          "_id": "Token id"
        },
        "return": "(Bin number, ID\"s index within that bin)"
      },
      "getValueInBin(uint256,uint256)": {
        "params": {
          "_binAmount": "uint256 containing the balances of IDS_PER_UINT256 ids",
          "_index": "Index at which to retrieve amount"
        },
        "return": "amount at given _index in _bin"
      },
      "isApprovedForAll(address,address)": {
        "params": {
          "_operator": "Address of authorized operator",
          "_owner": "The owner of the Tokens"
        },
        "return": "True if the operator is approved, false if not"
      },
      "safeBatchTransferFrom(address,address,uint256[],uint256[],bytes)": {
        "details": "Arrays should be sorted so that all ids in a same storage slot are adjacent (more efficient)",
        "params": {
          "_amounts": "Transfer amounts per token type",
          "_data": "Additional data with no specified format, sent in call to `_to`",
          "_from": "Source addresses",
          "_ids": "IDs of each token type",
          "_to": "Target addresses"
        }
      },
      "safeTransferFrom(address,address,uint256,uint256,bytes)": {
        "params": {
          "_amount": "Transfered amount",
          "_data": "Additional data with no specified format, sent in call to `_to`",
          "_from": "Source address",
          "_id": "ID of the token type",
          "_to": "Target address"
        }
      },
      "setApprovalForAll(address,bool)": {
        "params": {
          "_approved": "True if the operator is approved, false to revoke approval",
          "_operator": "Address to add to the set of authorized operators"
        }
      },
      "supportsInterface(bytes4)": {
        "params": {
          "_interfaceID": "The interface identifier, as specified in ERC-165"
        },
        "return": "`true` if the contract implements `_interfaceID` and"
      },
      "writeValueInBin(uint256,uint256,uint256)": {
        "params": {
          "_amount": "amount to store at _index in _bin",
          "_binAmount": "uint256 containing the balances of IDS_PER_UINT256 ids",
          "_index": "Index at which to retrieve amount"
        },
        "return": "amount at given _index in _bin"
      }
    }
  },
  "userdoc": {
    "methods": {
      "balanceOf(address,uint256)": {
        "notice": "Get the balance of an account's Tokens"
      },
      "balanceOfBatch(address[],uint256[])": {
        "notice": "Get the balance of multiple account/token pairs"
      },
      "getIDBinIndex(uint256)": {
        "notice": "Return the bin number and index within that bin where ID is"
      },
      "getValueInBin(uint256,uint256)": {
        "notice": "Return amount in _binAmount at position _index"
      },
      "isApprovedForAll(address,address)": {
        "notice": "Queries the approval status of an operator for a given owner"
      },
      "safeBatchTransferFrom(address,address,uint256[],uint256[],bytes)": {
        "notice": "Send multiple types of Tokens from the _from address to the _to address (with safety call)"
      },
      "safeTransferFrom(address,address,uint256,uint256,bytes)": {
        "notice": "Transfers amount amount of an _id from the _from address to the _to address specified"
      },
      "setApprovalForAll(address,bool)": {
        "notice": "Enable or disable approval for a third party (\"operator\") to manage all of caller's tokens"
      },
      "supportsInterface(bytes4)": {
        "notice": "Query if a contract implements an interface"
      },
      "writeValueInBin(uint256,uint256,uint256)": {
        "notice": "Return the updated _binAmount after writing _amount at _index"
      }
    }
  }
}