{
  "contractName": "SignatureValidator",
  "abi": [
    {
      "constant": true,
      "inputs": [
        {
          "internalType": "address",
          "name": "_signerAddress",
          "type": "address"
        },
        {
          "internalType": "bytes32",
          "name": "_hash",
          "type": "bytes32"
        },
        {
          "internalType": "bytes",
          "name": "_data",
          "type": "bytes"
        },
        {
          "internalType": "bytes",
          "name": "_sig",
          "type": "bytes"
        }
      ],
      "name": "isValidSignature",
      "outputs": [
        {
          "internalType": "bool",
          "name": "isValid",
          "type": "bool"
        }
      ],
      "payable": false,
      "stateMutability": "view",
      "type": "function"
    }
  ],
  "bytecode": "0x60806040527f035aff83d86937d35b32e04f0ddc6ff469290eef2f1b692d8a815c89404d474960001b30604051602001808381526020018273ffffffffffffffffffffffffffffffffffffffff1673ffffffffffffffffffffffffffffffffffffffff1660601b81526014019250505060405160208183030381529060405280519060200120600081905550610d278061009a6000396000f3fe608060405234801561001057600080fd5b506004361061002b5760003560e01c8063fa4e12d714610030575b600080fd5b6101aa6004803603608081101561004657600080fd5b81019080803573ffffffffffffffffffffffffffffffffffffffff169060200190929190803590602001909291908035906020019064010000000081111561008d57600080fd5b82018360208201111561009f57600080fd5b803590602001918460018302840111640100000000831117156100c157600080fd5b91908080601f016020809104026020016040519081016040528093929190818152602001838380828437600081840152601f19601f8201169050808301925050505050505091929192908035906020019064010000000081111561012457600080fd5b82018360208201111561013657600080fd5b8035906020019184600183028401116401000000008311171561015857600080fd5b91908080601f016020809104026020016040519081016040528093929190818152602001838380828437600081840152601f19601f8201169050808301925050505050505091929192905050506101c4565b604051808215151515815260200191505060405180910390f35b60008082511161021f576040517f08c379a0000000000000000000000000000000000000000000000000000000008152600401808060200182810382526043815260200180610c3d6043913960600191505060405180910390fd5b600073ffffffffffffffffffffffffffffffffffffffff168573ffffffffffffffffffffffffffffffffffffffff1614156102a5576040517f08c379a0000000000000000000000000000000000000000000000000000000008152600401808060200182810382526033815260200180610c0a6033913960400191505060405180910390fd5b60006102b083610a65565b60f81c90506005808111156102c157fe5b60ff168160ff161061031e576040517f08c379a000000000000000000000000000000000000000000000000000000000815260040180806020018281038252603a815260200180610b9a603a913960400191505060405180910390fd5b60008160ff16600581111561032f57fe5b90506000806000806000600581111561034457fe5b85600581111561035057fe5b14156103a7576040517f08c379a0000000000000000000000000000000000000000000000000000000008152600401808060200182810382526036815260200180610bd46036913960400191505060405180910390fd5b600160058111156103b457fe5b8560058111156103c057fe5b1415610511576041885114610420576040517f08c379a0000000000000000000000000000000000000000000000000000000008152600401808060200182810382526037815260200180610cbc6037913960400191505060405180910390fd5b610434600089610aee90919063ffffffff16565b925061044a602089610aee90919063ffffffff16565b91508760408151811061045957fe5b602001015160f81c60f81b60f81c935060018a85858560405160008152602001604052604051808581526020018460ff1660ff1681526020018381526020018281526020019450505050506020604051602081039080840390855afa1580156104c6573d6000803e3d6000fd5b5050506020604051035190508073ffffffffffffffffffffffffffffffffffffffff168b73ffffffffffffffffffffffffffffffffffffffff16149650869650505050505050610a5d565b6002600581111561051e57fe5b85600581111561052a57fe5b14156106c957604188511461058a576040517f08c379a0000000000000000000000000000000000000000000000000000000008152600401808060200182810382526037815260200180610cbc6037913960400191505060405180910390fd5b61059e600089610aee90919063ffffffff16565b92506105b4602089610aee90919063ffffffff16565b9150876040815181106105c357fe5b602001015160f81c60f81b60f81c935060018a60405160200180807f19457468657265756d205369676e6564204d6573736167653a0a333200000000815250601c018281526020019150506040516020818303038152906040528051906020012085858560405160008152602001604052604051808581526020018460ff1660ff1681526020018381526020018281526020019450505050506020604051602081039080840390855afa15801561067e573d6000803e3d6000fd5b5050506020604051035190508073ffffffffffffffffffffffffffffffffffffffff168b73ffffffffffffffffffffffffffffffffffffffff16149650869650505050505050610a5d565b600360058111156106d657fe5b8560058111156106e257fe5b141561089d578a73ffffffffffffffffffffffffffffffffffffffff166320c13b0b8a8a6040518363ffffffff1660e01b8152600401808060200180602001838103835285818151815260200191508051906020019080838360005b8381101561075957808201518184015260208101905061073e565b50505050905090810190601f1680156107865780820380516001836020036101000a031916815260200191505b50838103825284818151815260200191508051906020019080838360005b838110156107bf5780820151818401526020810190506107a4565b50505050905090810190601f1680156107ec5780820380516001836020036101000a031916815260200191505b5094505050505060206040518083038186803b15801561080b57600080fd5b505afa15801561081f573d6000803e3d6000fd5b505050506040513d602081101561083557600080fd5b81019080805190602001909291905050507bffffffffffffffffffffffffffffffffffffffffffffffffffffffff19166320c13b0b60e01b7bffffffffffffffffffffffffffffffffffffffffffffffffffffffff1916149650869650505050505050610a5d565b600460058111156108aa57fe5b8560058111156108b657fe5b1415610a0c578a73ffffffffffffffffffffffffffffffffffffffff16631626ba7e8b8a6040518363ffffffff1660e01b81526004018083815260200180602001828103825283818151815260200191508051906020019080838360005b8381101561092f578082015181840152602081019050610914565b50505050905090810190601f16801561095c5780820380516001836020036101000a031916815260200191505b50935050505060206040518083038186803b15801561097a57600080fd5b505afa15801561098e573d6000803e3d6000fd5b505050506040513d60208110156109a457600080fd5b81019080805190602001909291905050507bffffffffffffffffffffffffffffffffffffffffffffffffffffffff19166320c13b0b60e01b7bffffffffffffffffffffffffffffffffffffffffffffffffffffffff1916149650869650505050505050610a5d565b6040517f08c379a000000000000000000000000000000000000000000000000000000000815260040180806020018281038252603a815260200180610b9a603a913960400191505060405180910390fd5b949350505050565b600080825111610ac0576040517f08c379a0000000000000000000000000000000000000000000000000000000008152600401808060200182810382526037815260200180610b636037913960400191505060405180910390fd5b81600183510381518110610ad057fe5b602001015160f81c60f81b9050600182510380835250809050919050565b60006020820183511015610b4d576040517f08c379a000000000000000000000000000000000000000000000000000000000815260040180806020018281038252603c815260200180610c80603c913960400191505060405180910390fd5b6020820191508183015190508090509291505056fe4c6962427974657323706f704c617374427974653a20475245415445525f5448414e5f5a45524f5f4c454e4754485f52455155495245445369676e617475726556616c696461746f7223697356616c69645369676e61747572653a20554e535550504f525445445f5349474e41545552455369676e617475726556616c696461746f7223697356616c69645369676e61747572653a20494c4c4547414c5f5349474e41545552455369676e617475726556616c696461746f7223697356616c69645369676e61747572653a20494e56414c49445f5349474e45525369676e617475726556616c696461746f7223697356616c69645369676e61747572653a204c454e4754485f475245415445525f5448414e5f305f52455155495245444c696242797465732372656164427974657333323a20475245415445525f4f525f455155414c5f544f5f33325f4c454e4754485f52455155495245445369676e617475726556616c696461746f7223697356616c69645369676e61747572653a204c454e4754485f36355f5245515549524544a265627a7a72315820a00ee7a801fafc26491eb2e6f259055b853ab55bf114e562e507638a95fd0fcc64736f6c63430005100032",
  "source": "pragma solidity ^0.5.0;\n// pragma experimental ABIEncoderV2;\n\nimport \"../erc/IERC1271Wallet.sol\";\nimport \"./LibBytes.sol\";\nimport \"./LibEIP712.sol\";\n\n/**\n * @dev Contains logic for signature validation.\n * Signatures from wallet contracts assume ERC-1271 support (https://github.com/ethereum/EIPs/blob/master/EIPS/eip-1271.md)\n * Notes: Methods are strongly inspired by contracts in https://github.com/0xProject/0x-monorepo/blob/development/\n */\ncontract SignatureValidator is LibEIP712 {\n  using LibBytes for bytes;\n\n  /***********************************|\n  |             Variables             |\n  |__________________________________*/\n\n\n  // bytes4(keccak256(\"isValidSignature(bytes,bytes)\")\n  bytes4 constant internal ERC1271_MAGICVALUE = 0x20c13b0b;\n\n  // Allowed signature types.\n  enum SignatureType {\n      Illegal,         // 0x00, default value\n      EIP712,          // 0x01\n      EthSign,         // 0x02\n      WalletBytes,     // 0x03 To call isValidSignature(bytes, bytes) on wallet contract\n      WalletBytes32,   // 0x04 To call isValidSignature(bytes32, bytes) on wallet contract\n      NSignatureTypes  // 0x05, number of signature types. Always leave at end.\n  }\n\n\n  /***********************************|\n  |        Signature Functions        |\n  |__________________________________*/\n\n  /**\n   * @dev Verifies that a hash has been signed by the given signer.\n   * @param _signerAddress  Address that should have signed the given hash.\n   * @param _hash           Hash of the EIP-712 encoded data\n   * @param _data           Full EIP-712 data structure that was hashed and signed\n   * @param _sig            Proof that the hash has been signed by signer.\n   * @return True if the address recovered from the provided signature matches the input signer address.\n   */\n  function isValidSignature(\n    address _signerAddress,\n    bytes32 _hash,\n    bytes memory _data,\n    bytes memory _sig\n  )\n    public\n    view\n    returns (bool isValid)\n  {\n    require(\n      _sig.length > 0,\n      \"SignatureValidator#isValidSignature: LENGTH_GREATER_THAN_0_REQUIRED\"\n    );\n\n    require(\n      _signerAddress != address(0x0),\n      \"SignatureValidator#isValidSignature: INVALID_SIGNER\"\n    );\n\n    // Pop last byte off of signature byte array.\n    uint8 signatureTypeRaw = uint8(_sig.popLastByte());\n\n    // Ensure signature is supported\n    require(\n      signatureTypeRaw < uint8(SignatureType.NSignatureTypes),\n      \"SignatureValidator#isValidSignature: UNSUPPORTED_SIGNATURE\"\n    );\n\n    // Extract signature type\n    SignatureType signatureType = SignatureType(signatureTypeRaw);\n\n    // Variables are not scoped in Solidity.\n    uint8 v;\n    bytes32 r;\n    bytes32 s;\n    address recovered;\n\n    // Always illegal signature.\n    // This is always an implicit option since a signer can create a\n    // signature array with invalid type or length. We may as well make\n    // it an explicit option. This aids testing and analysis. It is\n    // also the initialization value for the enum type.\n    if (signatureType == SignatureType.Illegal) {\n      revert(\"SignatureValidator#isValidSignature: ILLEGAL_SIGNATURE\");\n\n\n    // Signature using EIP712\n    } else if (signatureType == SignatureType.EIP712) {\n      require(\n        _sig.length == 65,\n        \"SignatureValidator#isValidSignature: LENGTH_65_REQUIRED\"\n      );\n      r = _sig.readBytes32(0);\n      s = _sig.readBytes32(32);\n      v = uint8(_sig[64]);\n      recovered = ecrecover(_hash, v, r, s);\n      isValid = _signerAddress == recovered;\n      return isValid;\n\n\n    // Signed using web3.eth_sign\n    } else if (signatureType == SignatureType.EthSign) {\n      require(\n        _sig.length == 65,\n        \"SignatureValidator#isValidSignature: LENGTH_65_REQUIRED\"\n      );\n      r = _sig.readBytes32(0);\n      s = _sig.readBytes32(32);\n      v = uint8(_sig[64]);\n      recovered = ecrecover(\n        keccak256(abi.encodePacked(\"\\x19Ethereum Signed Message:\\n32\", _hash)),\n        v,\n        r,\n        s\n      );\n      isValid = _signerAddress == recovered;\n      return isValid;\n\n\n    // Signature verified by wallet contract with data validation.\n    } else if (signatureType == SignatureType.WalletBytes) {\n      isValid = ERC1271_MAGICVALUE == IERC1271Wallet(_signerAddress).isValidSignature(_data, _sig);\n      return isValid;\n\n\n    // Signature verified by wallet contract without data validation.\n    } else if (signatureType == SignatureType.WalletBytes32) {\n      isValid = ERC1271_MAGICVALUE == IERC1271Wallet(_signerAddress).isValidSignature(_hash, _sig);\n      return isValid;\n    }\n\n    // Anything else is illegal (We do not return false because\n    // the signature may actually be valid, just not in a format\n    // that we currently support. In this case returning false\n    // may lead the caller to incorrectly believe that the\n    // signature was invalid.)\n    revert(\"SignatureValidator#isValidSignature: UNSUPPORTED_SIGNATURE\");\n  }\n\n}",
  "sourcePath": "C:\\Users\\hp\\Pictures\\Crypto-FPL\\contracts\\utils\\SignatureValidator.sol",
  "compiler": {
    "name": "solc",
    "version": "0.5.16+commit.9c3226ce.Emscripten.clang"
  },
  "schemaVersion": "3.4.16",
  "updatedAt": "2025-08-02T14:24:57.821Z",
  "devdoc": {
    "details": "Contains logic for signature validation. Signatures from wallet contracts assume ERC-1271 support (https://github.com/ethereum/EIPs/blob/master/EIPS/eip-1271.md) Notes: Methods are strongly inspired by contracts in https://github.com/0xProject/0x-monorepo/blob/development/",
    "methods": {
      "isValidSignature(address,bytes32,bytes,bytes)": {
        "details": "Verifies that a hash has been signed by the given signer.",
        "params": {
          "_data": "Full EIP-712 data structure that was hashed and signed",
          "_hash": "Hash of the EIP-712 encoded data",
          "_sig": "Proof that the hash has been signed by signer.",
          "_signerAddress": "Address that should have signed the given hash."
        },
        "return": "True if the address recovered from the provided signature matches the input signer address."
      }
    }
  },
  "userdoc": {
    "methods": {}
  }
}